{
	"contracts/MasterChef.sol": {
		"MasterChef": {
			"abi": [
				{
					"inputs": [
						{
							"internalType": "contract IERC20",
							"name": "_rewardToken",
							"type": "address"
						},
						{
							"internalType": "uint256",
							"name": "_rewardPerBlock",
							"type": "uint256"
						},
						{
							"internalType": "uint256",
							"name": "_startBlock",
							"type": "uint256"
						},
						{
							"internalType": "uint256",
							"name": "_bonusEndBlock",
							"type": "uint256"
						}
					],
					"stateMutability": "nonpayable",
					"type": "constructor"
				},
				{
					"anonymous": false,
					"inputs": [
						{
							"indexed": true,
							"internalType": "address",
							"name": "user",
							"type": "address"
						},
						{
							"indexed": true,
							"internalType": "uint256",
							"name": "pid",
							"type": "uint256"
						},
						{
							"indexed": false,
							"internalType": "uint256",
							"name": "amount",
							"type": "uint256"
						}
					],
					"name": "Deposit",
					"type": "event"
				},
				{
					"anonymous": false,
					"inputs": [
						{
							"indexed": true,
							"internalType": "address",
							"name": "user",
							"type": "address"
						},
						{
							"indexed": true,
							"internalType": "uint256",
							"name": "pid",
							"type": "uint256"
						},
						{
							"indexed": false,
							"internalType": "uint256",
							"name": "amount",
							"type": "uint256"
						}
					],
					"name": "EmergencyWithdraw",
					"type": "event"
				},
				{
					"anonymous": false,
					"inputs": [
						{
							"indexed": true,
							"internalType": "address",
							"name": "previousOwner",
							"type": "address"
						},
						{
							"indexed": true,
							"internalType": "address",
							"name": "newOwner",
							"type": "address"
						}
					],
					"name": "OwnershipTransferred",
					"type": "event"
				},
				{
					"anonymous": false,
					"inputs": [
						{
							"indexed": true,
							"internalType": "address",
							"name": "user",
							"type": "address"
						},
						{
							"indexed": true,
							"internalType": "uint256",
							"name": "pid",
							"type": "uint256"
						},
						{
							"indexed": false,
							"internalType": "uint256",
							"name": "amount",
							"type": "uint256"
						}
					],
					"name": "Withdraw",
					"type": "event"
				},
				{
					"inputs": [
						{
							"internalType": "uint256",
							"name": "_allocPoint",
							"type": "uint256"
						},
						{
							"internalType": "contract IERC20",
							"name": "_lpToken",
							"type": "address"
						},
						{
							"internalType": "bool",
							"name": "_withUpdate",
							"type": "bool"
						}
					],
					"name": "add",
					"outputs": [],
					"stateMutability": "nonpayable",
					"type": "function"
				},
				{
					"inputs": [],
					"name": "bonusEndBlock",
					"outputs": [
						{
							"internalType": "uint256",
							"name": "",
							"type": "uint256"
						}
					],
					"stateMutability": "view",
					"type": "function"
				},
				{
					"inputs": [
						{
							"internalType": "uint256",
							"name": "_pid",
							"type": "uint256"
						},
						{
							"internalType": "uint256",
							"name": "_amount",
							"type": "uint256"
						}
					],
					"name": "deposit",
					"outputs": [],
					"stateMutability": "nonpayable",
					"type": "function"
				},
				{
					"inputs": [
						{
							"internalType": "uint256",
							"name": "_pid",
							"type": "uint256"
						}
					],
					"name": "emergencyWithdraw",
					"outputs": [],
					"stateMutability": "nonpayable",
					"type": "function"
				},
				{
					"inputs": [
						{
							"internalType": "uint256",
							"name": "_from",
							"type": "uint256"
						},
						{
							"internalType": "uint256",
							"name": "_to",
							"type": "uint256"
						}
					],
					"name": "getMultiplier",
					"outputs": [
						{
							"internalType": "uint256",
							"name": "",
							"type": "uint256"
						}
					],
					"stateMutability": "view",
					"type": "function"
				},
				{
					"inputs": [],
					"name": "massUpdatePools",
					"outputs": [],
					"stateMutability": "nonpayable",
					"type": "function"
				},
				{
					"inputs": [],
					"name": "owner",
					"outputs": [
						{
							"internalType": "address",
							"name": "",
							"type": "address"
						}
					],
					"stateMutability": "view",
					"type": "function"
				},
				{
					"inputs": [
						{
							"internalType": "uint256",
							"name": "_pid",
							"type": "uint256"
						},
						{
							"internalType": "address",
							"name": "_user",
							"type": "address"
						}
					],
					"name": "pendingReward",
					"outputs": [
						{
							"internalType": "uint256",
							"name": "",
							"type": "uint256"
						}
					],
					"stateMutability": "view",
					"type": "function"
				},
				{
					"inputs": [
						{
							"internalType": "uint256",
							"name": "",
							"type": "uint256"
						}
					],
					"name": "poolInfo",
					"outputs": [
						{
							"internalType": "contract IERC20",
							"name": "lpToken",
							"type": "address"
						},
						{
							"internalType": "uint256",
							"name": "allocPoint",
							"type": "uint256"
						},
						{
							"internalType": "uint256",
							"name": "lastRewardBlock",
							"type": "uint256"
						},
						{
							"internalType": "uint256",
							"name": "accRewardPerShare",
							"type": "uint256"
						}
					],
					"stateMutability": "view",
					"type": "function"
				},
				{
					"inputs": [],
					"name": "poolLength",
					"outputs": [
						{
							"internalType": "uint256",
							"name": "",
							"type": "uint256"
						}
					],
					"stateMutability": "view",
					"type": "function"
				},
				{
					"inputs": [],
					"name": "renounceOwnership",
					"outputs": [],
					"stateMutability": "nonpayable",
					"type": "function"
				},
				{
					"inputs": [],
					"name": "rewardPerBlock",
					"outputs": [
						{
							"internalType": "uint256",
							"name": "",
							"type": "uint256"
						}
					],
					"stateMutability": "view",
					"type": "function"
				},
				{
					"inputs": [],
					"name": "rewardToken",
					"outputs": [
						{
							"internalType": "contract IERC20",
							"name": "",
							"type": "address"
						}
					],
					"stateMutability": "view",
					"type": "function"
				},
				{
					"inputs": [
						{
							"internalType": "uint256",
							"name": "_pid",
							"type": "uint256"
						},
						{
							"internalType": "uint256",
							"name": "_allocPoint",
							"type": "uint256"
						},
						{
							"internalType": "bool",
							"name": "_withUpdate",
							"type": "bool"
						}
					],
					"name": "set",
					"outputs": [],
					"stateMutability": "nonpayable",
					"type": "function"
				},
				{
					"inputs": [],
					"name": "startBlock",
					"outputs": [
						{
							"internalType": "uint256",
							"name": "",
							"type": "uint256"
						}
					],
					"stateMutability": "view",
					"type": "function"
				},
				{
					"inputs": [],
					"name": "stopReward",
					"outputs": [],
					"stateMutability": "nonpayable",
					"type": "function"
				},
				{
					"inputs": [],
					"name": "totalAllocPoint",
					"outputs": [
						{
							"internalType": "uint256",
							"name": "",
							"type": "uint256"
						}
					],
					"stateMutability": "view",
					"type": "function"
				},
				{
					"inputs": [
						{
							"internalType": "address",
							"name": "newOwner",
							"type": "address"
						}
					],
					"name": "transferOwnership",
					"outputs": [],
					"stateMutability": "nonpayable",
					"type": "function"
				},
				{
					"inputs": [
						{
							"internalType": "uint256",
							"name": "_pid",
							"type": "uint256"
						}
					],
					"name": "updatePool",
					"outputs": [],
					"stateMutability": "nonpayable",
					"type": "function"
				},
				{
					"inputs": [
						{
							"internalType": "uint256",
							"name": "",
							"type": "uint256"
						},
						{
							"internalType": "address",
							"name": "",
							"type": "address"
						}
					],
					"name": "userInfo",
					"outputs": [
						{
							"internalType": "uint256",
							"name": "amount",
							"type": "uint256"
						},
						{
							"internalType": "uint256",
							"name": "rewardDebt",
							"type": "uint256"
						}
					],
					"stateMutability": "view",
					"type": "function"
				},
				{
					"inputs": [
						{
							"internalType": "uint256",
							"name": "_pid",
							"type": "uint256"
						},
						{
							"internalType": "uint256",
							"name": "_amount",
							"type": "uint256"
						}
					],
					"name": "withdraw",
					"outputs": [],
					"stateMutability": "nonpayable",
					"type": "function"
				}
			],
			"devdoc": {
				"kind": "dev",
				"methods": {
					"owner()": {
						"details": "Returns the address of the current owner."
					},
					"renounceOwnership()": {
						"details": "Leaves the contract without owner. It will not be possible to call `onlyOwner` functions anymore. Can only be called by the current owner. NOTE: Renouncing ownership will leave the contract without an owner, thereby removing any functionality that is only available to the owner."
					},
					"transferOwnership(address)": {
						"details": "Transfers ownership of the contract to a new account (`newOwner`). Can only be called by the current owner."
					}
				},
				"version": 1
			},
			"evm": {
				"assembly": "    /* \"contracts/MasterChef.sol\":303:7008  contract MasterChef is Ownable {... */\n  mstore(0x40, 0x80)\n    /* \"contracts/MasterChef.sol\":970:971  0 */\n  0x00\n    /* \"contracts/MasterChef.sol\":937:971  uint256 public totalAllocPoint = 0 */\n  0x03\n  sstore\n    /* \"contracts/MasterChef.sol\":1555:1865  constructor(... */\n  callvalue\n  dup1\n  iszero\n  tag_1\n  jumpi\n  0x00\n  dup1\n  revert\ntag_1:\n  pop\n  mload(0x40)\n  sub(codesize, bytecodeSize)\n  dup1\n  bytecodeSize\n  dup4\n  codecopy\n  dup2\n  dup2\n  add\n  0x40\n  mstore\n  dup2\n  add\n  swap1\n  tag_2\n  swap2\n  swap1\n  tag_3\n  jump\t// in\ntag_2:\n    /* \"@openzeppelin/contracts/access/Ownable.sol\":936:968  _transferOwnership(_msgSender()) */\n  tag_7\n    /* \"@openzeppelin/contracts/access/Ownable.sol\":955:967  _msgSender() */\n  tag_8\n    /* \"@openzeppelin/contracts/access/Ownable.sol\":955:965  _msgSender */\n  shl(0x20, tag_9)\n    /* \"@openzeppelin/contracts/access/Ownable.sol\":955:967  _msgSender() */\n  0x20\n  shr\n  jump\t// in\ntag_8:\n    /* \"@openzeppelin/contracts/access/Ownable.sol\":936:954  _transferOwnership */\n  shl(0x20, tag_10)\n    /* \"@openzeppelin/contracts/access/Ownable.sol\":936:968  _transferOwnership(_msgSender()) */\n  0x20\n  shr\n  jump\t// in\ntag_7:\n    /* \"contracts/MasterChef.sol\":1726:1738  _rewardToken */\n  dup4\n    /* \"contracts/MasterChef.sol\":1712:1723  rewardToken */\n  0x01\n  0x00\n    /* \"contracts/MasterChef.sol\":1712:1738  rewardToken = _rewardToken */\n  0x0100\n  exp\n  dup2\n  sload\n  dup2\n  0xffffffffffffffffffffffffffffffffffffffff\n  mul\n  not\n  and\n  swap1\n  dup4\n  0xffffffffffffffffffffffffffffffffffffffff\n  and\n  mul\n  or\n  swap1\n  sstore\n  pop\n    /* \"contracts/MasterChef.sol\":1766:1781  _rewardPerBlock */\n  dup3\n    /* \"contracts/MasterChef.sol\":1749:1763  rewardPerBlock */\n  0x02\n    /* \"contracts/MasterChef.sol\":1749:1781  rewardPerBlock = _rewardPerBlock */\n  dup2\n  swap1\n  sstore\n  pop\n    /* \"contracts/MasterChef.sol\":1805:1816  _startBlock */\n  dup2\n    /* \"contracts/MasterChef.sol\":1792:1802  startBlock */\n  0x04\n    /* \"contracts/MasterChef.sol\":1792:1816  startBlock = _startBlock */\n  dup2\n  swap1\n  sstore\n  pop\n    /* \"contracts/MasterChef.sol\":1843:1857  _bonusEndBlock */\n  dup1\n    /* \"contracts/MasterChef.sol\":1827:1840  bonusEndBlock */\n  0x05\n    /* \"contracts/MasterChef.sol\":1827:1857  bonusEndBlock = _bonusEndBlock */\n  dup2\n  swap1\n  sstore\n  pop\n    /* \"contracts/MasterChef.sol\":1555:1865  constructor(... */\n  pop\n  pop\n  pop\n  pop\n    /* \"contracts/MasterChef.sol\":303:7008  contract MasterChef is Ownable {... */\n  jump(tag_12)\n    /* \"@openzeppelin/contracts/utils/Context.sol\":640:736  function _msgSender() internal view virtual returns (address) {... */\ntag_9:\n    /* \"@openzeppelin/contracts/utils/Context.sol\":693:700  address */\n  0x00\n    /* \"@openzeppelin/contracts/utils/Context.sol\":719:729  msg.sender */\n  caller\n    /* \"@openzeppelin/contracts/utils/Context.sol\":712:729  return msg.sender */\n  swap1\n  pop\n    /* \"@openzeppelin/contracts/utils/Context.sol\":640:736  function _msgSender() internal view virtual returns (address) {... */\n  swap1\n  jump\t// out\n    /* \"@openzeppelin/contracts/access/Ownable.sol\":2433:2620  function _transferOwnership(address newOwner) internal virtual {... */\ntag_10:\n    /* \"@openzeppelin/contracts/access/Ownable.sol\":2506:2522  address oldOwner */\n  0x00\n    /* \"@openzeppelin/contracts/access/Ownable.sol\":2525:2531  _owner */\n  dup1\n  0x00\n  swap1\n  sload\n  swap1\n  0x0100\n  exp\n  swap1\n  div\n  0xffffffffffffffffffffffffffffffffffffffff\n  and\n    /* \"@openzeppelin/contracts/access/Ownable.sol\":2506:2531  address oldOwner = _owner */\n  swap1\n  pop\n    /* \"@openzeppelin/contracts/access/Ownable.sol\":2550:2558  newOwner */\n  dup2\n    /* \"@openzeppelin/contracts/access/Ownable.sol\":2541:2547  _owner */\n  0x00\n  dup1\n    /* \"@openzeppelin/contracts/access/Ownable.sol\":2541:2558  _owner = newOwner */\n  0x0100\n  exp\n  dup2\n  sload\n  dup2\n  0xffffffffffffffffffffffffffffffffffffffff\n  mul\n  not\n  and\n  swap1\n  dup4\n  0xffffffffffffffffffffffffffffffffffffffff\n  and\n  mul\n  or\n  swap1\n  sstore\n  pop\n    /* \"@openzeppelin/contracts/access/Ownable.sol\":2604:2612  newOwner */\n  dup2\n    /* \"@openzeppelin/contracts/access/Ownable.sol\":2573:2613  OwnershipTransferred(oldOwner, newOwner) */\n  0xffffffffffffffffffffffffffffffffffffffff\n  and\n    /* \"@openzeppelin/contracts/access/Ownable.sol\":2594:2602  oldOwner */\n  dup2\n    /* \"@openzeppelin/contracts/access/Ownable.sol\":2573:2613  OwnershipTransferred(oldOwner, newOwner) */\n  0xffffffffffffffffffffffffffffffffffffffff\n  and\n  0x8be0079c531659141344cd1fd0a4f28419497f9722a3daafe3b4186f6b6457e0\n  mload(0x40)\n  mload(0x40)\n  dup1\n  swap2\n  sub\n  swap1\n  log3\n    /* \"@openzeppelin/contracts/access/Ownable.sol\":2496:2620  {... */\n  pop\n    /* \"@openzeppelin/contracts/access/Ownable.sol\":2433:2620  function _transferOwnership(address newOwner) internal virtual {... */\n  pop\n  jump\t// out\n    /* \"#utility.yul\":88:205   */\ntag_16:\n    /* \"#utility.yul\":197:198   */\n  0x00\n    /* \"#utility.yul\":194:195   */\n  dup1\n    /* \"#utility.yul\":187:199   */\n  revert\n    /* \"#utility.yul\":334:460   */\ntag_18:\n    /* \"#utility.yul\":371:378   */\n  0x00\n    /* \"#utility.yul\":411:453   */\n  0xffffffffffffffffffffffffffffffffffffffff\n    /* \"#utility.yul\":404:409   */\n  dup3\n    /* \"#utility.yul\":400:454   */\n  and\n    /* \"#utility.yul\":389:454   */\n  swap1\n  pop\n    /* \"#utility.yul\":334:460   */\n  swap2\n  swap1\n  pop\n  jump\t// out\n    /* \"#utility.yul\":466:562   */\ntag_19:\n    /* \"#utility.yul\":503:510   */\n  0x00\n    /* \"#utility.yul\":532:556   */\n  tag_32\n    /* \"#utility.yul\":550:555   */\n  dup3\n    /* \"#utility.yul\":532:556   */\n  tag_18\n  jump\t// in\ntag_32:\n    /* \"#utility.yul\":521:556   */\n  swap1\n  pop\n    /* \"#utility.yul\":466:562   */\n  swap2\n  swap1\n  pop\n  jump\t// out\n    /* \"#utility.yul\":568:678   */\ntag_20:\n    /* \"#utility.yul\":619:626   */\n  0x00\n    /* \"#utility.yul\":648:672   */\n  tag_34\n    /* \"#utility.yul\":666:671   */\n  dup3\n    /* \"#utility.yul\":648:672   */\n  tag_19\n  jump\t// in\ntag_34:\n    /* \"#utility.yul\":637:672   */\n  swap1\n  pop\n    /* \"#utility.yul\":568:678   */\n  swap2\n  swap1\n  pop\n  jump\t// out\n    /* \"#utility.yul\":684:834   */\ntag_21:\n    /* \"#utility.yul\":771:809   */\n  tag_36\n    /* \"#utility.yul\":803:808   */\n  dup2\n    /* \"#utility.yul\":771:809   */\n  tag_20\n  jump\t// in\ntag_36:\n    /* \"#utility.yul\":764:769   */\n  dup2\n    /* \"#utility.yul\":761:810   */\n  eq\n    /* \"#utility.yul\":751:828   */\n  tag_37\n  jumpi\n    /* \"#utility.yul\":824:825   */\n  0x00\n    /* \"#utility.yul\":821:822   */\n  dup1\n    /* \"#utility.yul\":814:826   */\n  revert\n    /* \"#utility.yul\":751:828   */\ntag_37:\n    /* \"#utility.yul\":684:834   */\n  pop\n  jump\t// out\n    /* \"#utility.yul\":840:1011   */\ntag_22:\n    /* \"#utility.yul\":911:916   */\n  0x00\n    /* \"#utility.yul\":942:948   */\n  dup2\n    /* \"#utility.yul\":936:949   */\n  mload\n    /* \"#utility.yul\":927:949   */\n  swap1\n  pop\n    /* \"#utility.yul\":958:1005   */\n  tag_39\n    /* \"#utility.yul\":999:1004   */\n  dup2\n    /* \"#utility.yul\":958:1005   */\n  tag_21\n  jump\t// in\ntag_39:\n    /* \"#utility.yul\":840:1011   */\n  swap3\n  swap2\n  pop\n  pop\n  jump\t// out\n    /* \"#utility.yul\":1017:1094   */\ntag_23:\n    /* \"#utility.yul\":1054:1061   */\n  0x00\n    /* \"#utility.yul\":1083:1088   */\n  dup2\n    /* \"#utility.yul\":1072:1088   */\n  swap1\n  pop\n    /* \"#utility.yul\":1017:1094   */\n  swap2\n  swap1\n  pop\n  jump\t// out\n    /* \"#utility.yul\":1100:1222   */\ntag_24:\n    /* \"#utility.yul\":1173:1197   */\n  tag_42\n    /* \"#utility.yul\":1191:1196   */\n  dup2\n    /* \"#utility.yul\":1173:1197   */\n  tag_23\n  jump\t// in\ntag_42:\n    /* \"#utility.yul\":1166:1171   */\n  dup2\n    /* \"#utility.yul\":1163:1198   */\n  eq\n    /* \"#utility.yul\":1153:1216   */\n  tag_43\n  jumpi\n    /* \"#utility.yul\":1212:1213   */\n  0x00\n    /* \"#utility.yul\":1209:1210   */\n  dup1\n    /* \"#utility.yul\":1202:1214   */\n  revert\n    /* \"#utility.yul\":1153:1216   */\ntag_43:\n    /* \"#utility.yul\":1100:1222   */\n  pop\n  jump\t// out\n    /* \"#utility.yul\":1228:1371   */\ntag_25:\n    /* \"#utility.yul\":1285:1290   */\n  0x00\n    /* \"#utility.yul\":1316:1322   */\n  dup2\n    /* \"#utility.yul\":1310:1323   */\n  mload\n    /* \"#utility.yul\":1301:1323   */\n  swap1\n  pop\n    /* \"#utility.yul\":1332:1365   */\n  tag_45\n    /* \"#utility.yul\":1359:1364   */\n  dup2\n    /* \"#utility.yul\":1332:1365   */\n  tag_24\n  jump\t// in\ntag_45:\n    /* \"#utility.yul\":1228:1371   */\n  swap3\n  swap2\n  pop\n  pop\n  jump\t// out\n    /* \"#utility.yul\":1377:2225   */\ntag_3:\n    /* \"#utility.yul\":1488:1494   */\n  0x00\n    /* \"#utility.yul\":1496:1502   */\n  dup1\n    /* \"#utility.yul\":1504:1510   */\n  0x00\n    /* \"#utility.yul\":1512:1518   */\n  dup1\n    /* \"#utility.yul\":1561:1564   */\n  0x80\n    /* \"#utility.yul\":1549:1558   */\n  dup6\n    /* \"#utility.yul\":1540:1547   */\n  dup8\n    /* \"#utility.yul\":1536:1559   */\n  sub\n    /* \"#utility.yul\":1532:1565   */\n  slt\n    /* \"#utility.yul\":1529:1649   */\n  iszero\n  tag_47\n  jumpi\n    /* \"#utility.yul\":1568:1647   */\n  tag_48\n  tag_16\n  jump\t// in\ntag_48:\n    /* \"#utility.yul\":1529:1649   */\ntag_47:\n    /* \"#utility.yul\":1688:1689   */\n  0x00\n    /* \"#utility.yul\":1713:1791   */\n  tag_49\n    /* \"#utility.yul\":1783:1790   */\n  dup8\n    /* \"#utility.yul\":1774:1780   */\n  dup3\n    /* \"#utility.yul\":1763:1772   */\n  dup9\n    /* \"#utility.yul\":1759:1781   */\n  add\n    /* \"#utility.yul\":1713:1791   */\n  tag_22\n  jump\t// in\ntag_49:\n    /* \"#utility.yul\":1703:1791   */\n  swap5\n  pop\n    /* \"#utility.yul\":1659:1801   */\n  pop\n    /* \"#utility.yul\":1840:1842   */\n  0x20\n    /* \"#utility.yul\":1866:1930   */\n  tag_50\n    /* \"#utility.yul\":1922:1929   */\n  dup8\n    /* \"#utility.yul\":1913:1919   */\n  dup3\n    /* \"#utility.yul\":1902:1911   */\n  dup9\n    /* \"#utility.yul\":1898:1920   */\n  add\n    /* \"#utility.yul\":1866:1930   */\n  tag_25\n  jump\t// in\ntag_50:\n    /* \"#utility.yul\":1856:1930   */\n  swap4\n  pop\n    /* \"#utility.yul\":1811:1940   */\n  pop\n    /* \"#utility.yul\":1979:1981   */\n  0x40\n    /* \"#utility.yul\":2005:2069   */\n  tag_51\n    /* \"#utility.yul\":2061:2068   */\n  dup8\n    /* \"#utility.yul\":2052:2058   */\n  dup3\n    /* \"#utility.yul\":2041:2050   */\n  dup9\n    /* \"#utility.yul\":2037:2059   */\n  add\n    /* \"#utility.yul\":2005:2069   */\n  tag_25\n  jump\t// in\ntag_51:\n    /* \"#utility.yul\":1995:2069   */\n  swap3\n  pop\n    /* \"#utility.yul\":1950:2079   */\n  pop\n    /* \"#utility.yul\":2118:2120   */\n  0x60\n    /* \"#utility.yul\":2144:2208   */\n  tag_52\n    /* \"#utility.yul\":2200:2207   */\n  dup8\n    /* \"#utility.yul\":2191:2197   */\n  dup3\n    /* \"#utility.yul\":2180:2189   */\n  dup9\n    /* \"#utility.yul\":2176:2198   */\n  add\n    /* \"#utility.yul\":2144:2208   */\n  tag_25\n  jump\t// in\ntag_52:\n    /* \"#utility.yul\":2134:2208   */\n  swap2\n  pop\n    /* \"#utility.yul\":2089:2218   */\n  pop\n    /* \"#utility.yul\":1377:2225   */\n  swap3\n  swap6\n  swap2\n  swap5\n  pop\n  swap3\n  pop\n  jump\t// out\n    /* \"contracts/MasterChef.sol\":303:7008  contract MasterChef is Ownable {... */\ntag_12:\n  dataSize(sub_0)\n  dup1\n  dataOffset(sub_0)\n  0x00\n  codecopy\n  0x00\n  return\nstop\n\nsub_0: assembly {\n        /* \"contracts/MasterChef.sol\":303:7008  contract MasterChef is Ownable {... */\n      mstore(0x40, 0x80)\n      callvalue\n      dup1\n      iszero\n      tag_1\n      jumpi\n      0x00\n      dup1\n      revert\n    tag_1:\n      pop\n      jumpi(tag_2, lt(calldatasize, 0x04))\n      shr(0xe0, calldataload(0x00))\n      dup1\n      0x64482f79\n      gt\n      tag_24\n      jumpi\n      dup1\n      0x8dbb1e3a\n      gt\n      tag_25\n      jumpi\n      dup1\n      0x8dbb1e3a\n      eq\n      tag_18\n      jumpi\n      dup1\n      0x93f1a40b\n      eq\n      tag_19\n      jumpi\n      dup1\n      0x98969e82\n      eq\n      tag_20\n      jumpi\n      dup1\n      0xe2bbb158\n      eq\n      tag_21\n      jumpi\n      dup1\n      0xf2fde38b\n      eq\n      tag_22\n      jumpi\n      dup1\n      0xf7c618c1\n      eq\n      tag_23\n      jumpi\n      jump(tag_2)\n    tag_25:\n      dup1\n      0x64482f79\n      eq\n      tag_13\n      jumpi\n      dup1\n      0x715018a6\n      eq\n      tag_14\n      jumpi\n      dup1\n      0x80dc0672\n      eq\n      tag_15\n      jumpi\n      dup1\n      0x8ae39cac\n      eq\n      tag_16\n      jumpi\n      dup1\n      0x8da5cb5b\n      eq\n      tag_17\n      jumpi\n      jump(tag_2)\n    tag_24:\n      dup1\n      0x441a3e70\n      gt\n      tag_26\n      jumpi\n      dup1\n      0x441a3e70\n      eq\n      tag_8\n      jumpi\n      dup1\n      0x48cd4cb1\n      eq\n      tag_9\n      jumpi\n      dup1\n      0x51eb05a6\n      eq\n      tag_10\n      jumpi\n      dup1\n      0x5312ea8e\n      eq\n      tag_11\n      jumpi\n      dup1\n      0x630b5ba1\n      eq\n      tag_12\n      jumpi\n      jump(tag_2)\n    tag_26:\n      dup1\n      0x081e3eda\n      eq\n      tag_3\n      jumpi\n      dup1\n      0x1526fe27\n      eq\n      tag_4\n      jumpi\n      dup1\n      0x17caf6f1\n      eq\n      tag_5\n      jumpi\n      dup1\n      0x1aed6553\n      eq\n      tag_6\n      jumpi\n      dup1\n      0x1eaaa045\n      eq\n      tag_7\n      jumpi\n    tag_2:\n      0x00\n      dup1\n      revert\n        /* \"contracts/MasterChef.sol\":1873:1968  function poolLength() external view returns (uint256) {... */\n    tag_3:\n      tag_27\n      tag_28\n      jump\t// in\n    tag_27:\n      mload(0x40)\n      tag_29\n      swap2\n      swap1\n      tag_30\n      jump\t// in\n    tag_29:\n      mload(0x40)\n      dup1\n      swap2\n      sub\n      swap1\n      return\n        /* \"contracts/MasterChef.sol\":1130:1156  PoolInfo[] public poolInfo */\n    tag_4:\n      tag_31\n      0x04\n      dup1\n      calldatasize\n      sub\n      dup2\n      add\n      swap1\n      tag_32\n      swap2\n      swap1\n      tag_33\n      jump\t// in\n    tag_32:\n      tag_34\n      jump\t// in\n    tag_31:\n      mload(0x40)\n      tag_35\n      swap5\n      swap4\n      swap3\n      swap2\n      swap1\n      tag_36\n      jump\t// in\n    tag_35:\n      mload(0x40)\n      dup1\n      swap2\n      sub\n      swap1\n      return\n        /* \"contracts/MasterChef.sol\":937:971  uint256 public totalAllocPoint = 0 */\n    tag_5:\n      tag_37\n      tag_38\n      jump\t// in\n    tag_37:\n      mload(0x40)\n      tag_39\n      swap2\n      swap1\n      tag_30\n      jump\t// in\n    tag_39:\n      mload(0x40)\n      dup1\n      swap2\n      sub\n      swap1\n      return\n        /* \"contracts/MasterChef.sol\":1069:1097  uint256 public bonusEndBlock */\n    tag_6:\n      tag_40\n      tag_41\n      jump\t// in\n    tag_40:\n      mload(0x40)\n      tag_42\n      swap2\n      swap1\n      tag_30\n      jump\t// in\n    tag_42:\n      mload(0x40)\n      dup1\n      swap2\n      sub\n      swap1\n      return\n        /* \"contracts/MasterChef.sol\":2452:2992  function add(... */\n    tag_7:\n      tag_43\n      0x04\n      dup1\n      calldatasize\n      sub\n      dup2\n      add\n      swap1\n      tag_44\n      swap2\n      swap1\n      tag_45\n      jump\t// in\n    tag_44:\n      tag_46\n      jump\t// in\n    tag_43:\n      stop\n        /* \"contracts/MasterChef.sol\":5884:6639  function withdraw(uint256 _pid, uint256 _amount) public {... */\n    tag_8:\n      tag_47\n      0x04\n      dup1\n      calldatasize\n      sub\n      dup2\n      add\n      swap1\n      tag_48\n      swap2\n      swap1\n      tag_49\n      jump\t// in\n    tag_48:\n      tag_50\n      jump\t// in\n    tag_47:\n      stop\n        /* \"contracts/MasterChef.sol\":1012:1037  uint256 public startBlock */\n    tag_9:\n      tag_51\n      tag_52\n      jump\t// in\n    tag_51:\n      mload(0x40)\n      tag_53\n      swap2\n      swap1\n      tag_30\n      jump\t// in\n    tag_53:\n      mload(0x40)\n      dup1\n      swap2\n      sub\n      swap1\n      return\n        /* \"contracts/MasterChef.sol\":3530:4213  function updatePool(uint256 _pid) public {... */\n    tag_10:\n      tag_54\n      0x04\n      dup1\n      calldatasize\n      sub\n      dup2\n      add\n      swap1\n      tag_55\n      swap2\n      swap1\n      tag_33\n      jump\t// in\n    tag_55:\n      tag_56\n      jump\t// in\n    tag_54:\n      stop\n        /* \"contracts/MasterChef.sol\":6647:7005  function emergencyWithdraw(uint256 _pid) public {... */\n    tag_11:\n      tag_57\n      0x04\n      dup1\n      calldatasize\n      sub\n      dup2\n      add\n      swap1\n      tag_58\n      swap2\n      swap1\n      tag_33\n      jump\t// in\n    tag_58:\n      tag_59\n      jump\t// in\n    tag_57:\n      stop\n        /* \"contracts/MasterChef.sol\":3342:3522  function massUpdatePools() public {... */\n    tag_12:\n      tag_60\n      tag_61\n      jump\t// in\n    tag_60:\n      stop\n        /* \"contracts/MasterChef.sol\":3000:3334  function set(... */\n    tag_13:\n      tag_62\n      0x04\n      dup1\n      calldatasize\n      sub\n      dup2\n      add\n      swap1\n      tag_63\n      swap2\n      swap1\n      tag_64\n      jump\t// in\n    tag_63:\n      tag_65\n      jump\t// in\n    tag_62:\n      stop\n        /* \"@openzeppelin/contracts/access/Ownable.sol\":1831:1932  function renounceOwnership() public virtual onlyOwner {... */\n    tag_14:\n      tag_66\n      tag_67\n      jump\t// in\n    tag_66:\n      stop\n        /* \"contracts/MasterChef.sol\":1976:2062  function stopReward() public onlyOwner {... */\n    tag_15:\n      tag_68\n      tag_69\n      jump\t// in\n    tag_68:\n      stop\n        /* \"contracts/MasterChef.sol\":870:899  uint256 public rewardPerBlock */\n    tag_16:\n      tag_70\n      tag_71\n      jump\t// in\n    tag_70:\n      mload(0x40)\n      tag_72\n      swap2\n      swap1\n      tag_30\n      jump\t// in\n    tag_72:\n      mload(0x40)\n      dup1\n      swap2\n      sub\n      swap1\n      return\n        /* \"@openzeppelin/contracts/access/Ownable.sol\":1201:1286  function owner() public view virtual returns (address) {... */\n    tag_17:\n      tag_73\n      tag_74\n      jump\t// in\n    tag_73:\n      mload(0x40)\n      tag_75\n      swap2\n      swap1\n      tag_76\n      jump\t// in\n    tag_75:\n      mload(0x40)\n      dup1\n      swap2\n      sub\n      swap1\n      return\n        /* \"contracts/MasterChef.sol\":2138:2444  function getMultiplier(uint256 _from, uint256 _to) public view returns (uint256) {... */\n    tag_18:\n      tag_77\n      0x04\n      dup1\n      calldatasize\n      sub\n      dup2\n      add\n      swap1\n      tag_78\n      swap2\n      swap1\n      tag_49\n      jump\t// in\n    tag_78:\n      tag_79\n      jump\t// in\n    tag_77:\n      mload(0x40)\n      tag_80\n      swap2\n      swap1\n      tag_30\n      jump\t// in\n    tag_80:\n      mload(0x40)\n      dup1\n      swap2\n      sub\n      swap1\n      return\n        /* \"contracts/MasterChef.sol\":1176:1240  mapping(uint256 => mapping(address => UserInfo)) public userInfo */\n    tag_19:\n      tag_81\n      0x04\n      dup1\n      calldatasize\n      sub\n      dup2\n      add\n      swap1\n      tag_82\n      swap2\n      swap1\n      tag_83\n      jump\t// in\n    tag_82:\n      tag_84\n      jump\t// in\n    tag_81:\n      mload(0x40)\n      tag_85\n      swap3\n      swap2\n      swap1\n      tag_86\n      jump\t// in\n    tag_85:\n      mload(0x40)\n      dup1\n      swap2\n      sub\n      swap1\n      return\n        /* \"contracts/MasterChef.sol\":4221:5037  function pendingReward(... */\n    tag_20:\n      tag_87\n      0x04\n      dup1\n      calldatasize\n      sub\n      dup2\n      add\n      swap1\n      tag_88\n      swap2\n      swap1\n      tag_83\n      jump\t// in\n    tag_88:\n      tag_89\n      jump\t// in\n    tag_87:\n      mload(0x40)\n      tag_90\n      swap2\n      swap1\n      tag_30\n      jump\t// in\n    tag_90:\n      mload(0x40)\n      dup1\n      swap2\n      sub\n      swap1\n      return\n        /* \"contracts/MasterChef.sol\":5045:5876  function deposit(uint256 _pid, uint256 _amount) public {... */\n    tag_21:\n      tag_91\n      0x04\n      dup1\n      calldatasize\n      sub\n      dup2\n      add\n      swap1\n      tag_92\n      swap2\n      swap1\n      tag_49\n      jump\t// in\n    tag_92:\n      tag_93\n      jump\t// in\n    tag_91:\n      stop\n        /* \"@openzeppelin/contracts/access/Ownable.sol\":2081:2279  function transferOwnership(address newOwner) public virtual onlyOwner {... */\n    tag_22:\n      tag_94\n      0x04\n      dup1\n      calldatasize\n      sub\n      dup2\n      add\n      swap1\n      tag_95\n      swap2\n      swap1\n      tag_96\n      jump\t// in\n    tag_95:\n      tag_97\n      jump\t// in\n    tag_94:\n      stop\n        /* \"contracts/MasterChef.sol\":822:847  IERC20 public rewardToken */\n    tag_23:\n      tag_98\n      tag_99\n      jump\t// in\n    tag_98:\n      mload(0x40)\n      tag_100\n      swap2\n      swap1\n      tag_101\n      jump\t// in\n    tag_100:\n      mload(0x40)\n      dup1\n      swap2\n      sub\n      swap1\n      return\n        /* \"contracts/MasterChef.sol\":1873:1968  function poolLength() external view returns (uint256) {... */\n    tag_28:\n        /* \"contracts/MasterChef.sol\":1918:1925  uint256 */\n      0x00\n        /* \"contracts/MasterChef.sol\":1945:1953  poolInfo */\n      0x06\n        /* \"contracts/MasterChef.sol\":1945:1960  poolInfo.length */\n      dup1\n      sload\n      swap1\n      pop\n        /* \"contracts/MasterChef.sol\":1938:1960  return poolInfo.length */\n      swap1\n      pop\n        /* \"contracts/MasterChef.sol\":1873:1968  function poolLength() external view returns (uint256) {... */\n      swap1\n      jump\t// out\n        /* \"contracts/MasterChef.sol\":1130:1156  PoolInfo[] public poolInfo */\n    tag_34:\n      0x06\n      dup2\n      dup2\n      sload\n      dup2\n      lt\n      tag_103\n      jumpi\n      0x00\n      dup1\n      revert\n    tag_103:\n      swap1\n      0x00\n      mstore\n      keccak256(0x00, 0x20)\n      swap1\n      0x04\n      mul\n      add\n      0x00\n      swap2\n      pop\n      swap1\n      pop\n      dup1\n      0x00\n      add\n      0x00\n      swap1\n      sload\n      swap1\n      0x0100\n      exp\n      swap1\n      div\n      0xffffffffffffffffffffffffffffffffffffffff\n      and\n      swap1\n      dup1\n      0x01\n      add\n      sload\n      swap1\n      dup1\n      0x02\n      add\n      sload\n      swap1\n      dup1\n      0x03\n      add\n      sload\n      swap1\n      pop\n      dup5\n      jump\t// out\n        /* \"contracts/MasterChef.sol\":937:971  uint256 public totalAllocPoint = 0 */\n    tag_38:\n      sload(0x03)\n      dup2\n      jump\t// out\n        /* \"contracts/MasterChef.sol\":1069:1097  uint256 public bonusEndBlock */\n    tag_41:\n      sload(0x05)\n      dup2\n      jump\t// out\n        /* \"contracts/MasterChef.sol\":2452:2992  function add(... */\n    tag_46:\n        /* \"@openzeppelin/contracts/access/Ownable.sol\":1094:1107  _checkOwner() */\n      tag_106\n        /* \"@openzeppelin/contracts/access/Ownable.sol\":1094:1105  _checkOwner */\n      tag_107\n        /* \"@openzeppelin/contracts/access/Ownable.sol\":1094:1107  _checkOwner() */\n      jump\t// in\n    tag_106:\n        /* \"contracts/MasterChef.sol\":2589:2600  _withUpdate */\n      dup1\n        /* \"contracts/MasterChef.sol\":2585:2646  if (_withUpdate) {... */\n      iszero\n      tag_109\n      jumpi\n        /* \"contracts/MasterChef.sol\":2617:2634  massUpdatePools() */\n      tag_110\n        /* \"contracts/MasterChef.sol\":2617:2632  massUpdatePools */\n      tag_61\n        /* \"contracts/MasterChef.sol\":2617:2634  massUpdatePools() */\n      jump\t// in\n    tag_110:\n        /* \"contracts/MasterChef.sol\":2585:2646  if (_withUpdate) {... */\n    tag_109:\n        /* \"contracts/MasterChef.sol\":2692:2703  _allocPoint */\n      dup3\n        /* \"contracts/MasterChef.sol\":2674:2689  totalAllocPoint */\n      sload(0x03)\n        /* \"contracts/MasterChef.sol\":2674:2703  totalAllocPoint + _allocPoint */\n      tag_111\n      swap2\n      swap1\n      tag_112\n      jump\t// in\n    tag_111:\n        /* \"contracts/MasterChef.sol\":2656:2671  totalAllocPoint */\n      0x03\n        /* \"contracts/MasterChef.sol\":2656:2703  totalAllocPoint = totalAllocPoint + _allocPoint */\n      dup2\n      swap1\n      sstore\n      pop\n        /* \"contracts/MasterChef.sol\":2714:2722  poolInfo */\n      0x06\n        /* \"contracts/MasterChef.sol\":2742:2973  PoolInfo({... */\n      mload(0x40)\n      dup1\n      0x80\n      add\n      0x40\n      mstore\n      dup1\n        /* \"contracts/MasterChef.sol\":2779:2787  _lpToken */\n      dup5\n        /* \"contracts/MasterChef.sol\":2742:2973  PoolInfo({... */\n      0xffffffffffffffffffffffffffffffffffffffff\n      and\n      dup2\n      mstore\n      0x20\n      add\n        /* \"contracts/MasterChef.sol\":2818:2829  _allocPoint */\n      dup6\n        /* \"contracts/MasterChef.sol\":2742:2973  PoolInfo({... */\n      dup2\n      mstore\n      0x20\n      add\n        /* \"contracts/MasterChef.sol\":2880:2890  startBlock */\n      sload(0x04)\n        /* \"contracts/MasterChef.sol\":2865:2877  block.number */\n      number\n        /* \"contracts/MasterChef.sol\":2865:2890  block.number > startBlock */\n      gt\n        /* \"contracts/MasterChef.sol\":2865:2918  block.number > startBlock ? block.number : startBlock */\n      tag_113\n      jumpi\n        /* \"contracts/MasterChef.sol\":2908:2918  startBlock */\n      sload(0x04)\n        /* \"contracts/MasterChef.sol\":2865:2918  block.number > startBlock ? block.number : startBlock */\n      jump(tag_114)\n    tag_113:\n        /* \"contracts/MasterChef.sol\":2893:2905  block.number */\n      number\n        /* \"contracts/MasterChef.sol\":2865:2918  block.number > startBlock ? block.number : startBlock */\n    tag_114:\n        /* \"contracts/MasterChef.sol\":2742:2973  PoolInfo({... */\n      dup2\n      mstore\n      0x20\n      add\n        /* \"contracts/MasterChef.sol\":2956:2957  0 */\n      0x00\n        /* \"contracts/MasterChef.sol\":2742:2973  PoolInfo({... */\n      dup2\n      mstore\n      pop\n        /* \"contracts/MasterChef.sol\":2714:2984  poolInfo.push(... */\n      swap1\n      dup1\n      0x01\n      dup2\n      sload\n      add\n      dup1\n      dup3\n      sstore\n      dup1\n      swap2\n      pop\n      pop\n      0x01\n      swap1\n      sub\n      swap1\n      0x00\n      mstore\n      keccak256(0x00, 0x20)\n      swap1\n      0x04\n      mul\n      add\n      0x00\n      swap1\n      swap2\n      swap1\n      swap2\n      swap1\n      swap2\n      pop\n      0x00\n      dup3\n      add\n      mload\n      dup2\n      0x00\n      add\n      exp(0x0100, 0x00)\n      dup2\n      sload\n      dup2\n      0xffffffffffffffffffffffffffffffffffffffff\n      mul\n      not\n      and\n      swap1\n      dup4\n      0xffffffffffffffffffffffffffffffffffffffff\n      and\n      mul\n      or\n      swap1\n      sstore\n      pop\n      0x20\n      dup3\n      add\n      mload\n      dup2\n      0x01\n      add\n      sstore\n      0x40\n      dup3\n      add\n      mload\n      dup2\n      0x02\n      add\n      sstore\n      0x60\n      dup3\n      add\n      mload\n      dup2\n      0x03\n      add\n      sstore\n      pop\n      pop\n        /* \"contracts/MasterChef.sol\":2452:2992  function add(... */\n      pop\n      pop\n      pop\n      jump\t// out\n        /* \"contracts/MasterChef.sol\":5884:6639  function withdraw(uint256 _pid, uint256 _amount) public {... */\n    tag_50:\n        /* \"contracts/MasterChef.sol\":5951:5972  PoolInfo storage pool */\n      0x00\n        /* \"contracts/MasterChef.sol\":5975:5983  poolInfo */\n      0x06\n        /* \"contracts/MasterChef.sol\":5984:5988  _pid */\n      dup4\n        /* \"contracts/MasterChef.sol\":5975:5989  poolInfo[_pid] */\n      dup2\n      sload\n      dup2\n      lt\n      tag_117\n      jumpi\n      tag_118\n      tag_119\n      jump\t// in\n    tag_118:\n    tag_117:\n      swap1\n      0x00\n      mstore\n      keccak256(0x00, 0x20)\n      swap1\n      0x04\n      mul\n      add\n        /* \"contracts/MasterChef.sol\":5951:5989  PoolInfo storage pool = poolInfo[_pid] */\n      swap1\n      pop\n        /* \"contracts/MasterChef.sol\":6000:6021  UserInfo storage user */\n      0x00\n        /* \"contracts/MasterChef.sol\":6024:6032  userInfo */\n      0x07\n        /* \"contracts/MasterChef.sol\":6024:6038  userInfo[_pid] */\n      0x00\n        /* \"contracts/MasterChef.sol\":6033:6037  _pid */\n      dup6\n        /* \"contracts/MasterChef.sol\":6024:6038  userInfo[_pid] */\n      dup2\n      mstore\n      0x20\n      add\n      swap1\n      dup2\n      mstore\n      0x20\n      add\n      0x00\n      keccak256\n        /* \"contracts/MasterChef.sol\":6024:6050  userInfo[_pid][msg.sender] */\n      0x00\n        /* \"contracts/MasterChef.sol\":6039:6049  msg.sender */\n      caller\n        /* \"contracts/MasterChef.sol\":6024:6050  userInfo[_pid][msg.sender] */\n      0xffffffffffffffffffffffffffffffffffffffff\n      and\n      0xffffffffffffffffffffffffffffffffffffffff\n      and\n      dup2\n      mstore\n      0x20\n      add\n      swap1\n      dup2\n      mstore\n      0x20\n      add\n      0x00\n      keccak256\n        /* \"contracts/MasterChef.sol\":6000:6050  UserInfo storage user = userInfo[_pid][msg.sender] */\n      swap1\n      pop\n        /* \"contracts/MasterChef.sol\":6084:6091  _amount */\n      dup3\n        /* \"contracts/MasterChef.sol\":6069:6073  user */\n      dup2\n        /* \"contracts/MasterChef.sol\":6069:6080  user.amount */\n      0x00\n      add\n      sload\n        /* \"contracts/MasterChef.sol\":6069:6091  user.amount >= _amount */\n      lt\n      iszero\n        /* \"contracts/MasterChef.sol\":6061:6116  require(user.amount >= _amount, \"withdraw: not enough\") */\n      tag_121\n      jumpi\n      mload(0x40)\n      0x08c379a000000000000000000000000000000000000000000000000000000000\n      dup2\n      mstore\n      0x04\n      add\n      tag_122\n      swap1\n      tag_123\n      jump\t// in\n    tag_122:\n      mload(0x40)\n      dup1\n      swap2\n      sub\n      swap1\n      revert\n    tag_121:\n        /* \"contracts/MasterChef.sol\":6127:6143  updatePool(_pid) */\n      tag_124\n        /* \"contracts/MasterChef.sol\":6138:6142  _pid */\n      dup5\n        /* \"contracts/MasterChef.sol\":6127:6137  updatePool */\n      tag_56\n        /* \"contracts/MasterChef.sol\":6127:6143  updatePool(_pid) */\n      jump\t// in\n    tag_124:\n        /* \"contracts/MasterChef.sol\":6154:6169  uint256 pending */\n      0x00\n        /* \"contracts/MasterChef.sol\":6220:6224  user */\n      dup2\n        /* \"contracts/MasterChef.sol\":6220:6235  user.rewardDebt */\n      0x01\n      add\n      sload\n        /* \"contracts/MasterChef.sol\":6213:6217  1e12 */\n      0xe8d4a51000\n        /* \"contracts/MasterChef.sol\":6187:6191  pool */\n      dup5\n        /* \"contracts/MasterChef.sol\":6187:6209  pool.accRewardPerShare */\n      0x03\n      add\n      sload\n        /* \"contracts/MasterChef.sol\":6173:6177  user */\n      dup5\n        /* \"contracts/MasterChef.sol\":6173:6184  user.amount */\n      0x00\n      add\n      sload\n        /* \"contracts/MasterChef.sol\":6173:6209  user.amount * pool.accRewardPerShare */\n      tag_125\n      swap2\n      swap1\n      tag_126\n      jump\t// in\n    tag_125:\n        /* \"contracts/MasterChef.sol\":6172:6217  (user.amount * pool.accRewardPerShare) / 1e12 */\n      tag_127\n      swap2\n      swap1\n      tag_128\n      jump\t// in\n    tag_127:\n        /* \"contracts/MasterChef.sol\":6172:6235  (user.amount * pool.accRewardPerShare) / 1e12 - user.rewardDebt */\n      tag_129\n      swap2\n      swap1\n      tag_130\n      jump\t// in\n    tag_129:\n        /* \"contracts/MasterChef.sol\":6154:6235  uint256 pending = (user.amount * pool.accRewardPerShare) / 1e12 - user.rewardDebt */\n      swap1\n      pop\n        /* \"contracts/MasterChef.sol\":6260:6261  0 */\n      0x00\n        /* \"contracts/MasterChef.sol\":6250:6257  pending */\n      dup2\n        /* \"contracts/MasterChef.sol\":6250:6261  pending > 0 */\n      gt\n        /* \"contracts/MasterChef.sol\":6246:6344  if (pending > 0) {... */\n      iszero\n      tag_131\n      jumpi\n        /* \"contracts/MasterChef.sol\":6278:6332  rewardToken.safeTransfer(address(msg.sender), pending) */\n      tag_132\n        /* \"contracts/MasterChef.sol\":6311:6321  msg.sender */\n      caller\n        /* \"contracts/MasterChef.sol\":6324:6331  pending */\n      dup3\n        /* \"contracts/MasterChef.sol\":6278:6289  rewardToken */\n      0x01\n      0x00\n      swap1\n      sload\n      swap1\n      0x0100\n      exp\n      swap1\n      div\n      0xffffffffffffffffffffffffffffffffffffffff\n      and\n        /* \"contracts/MasterChef.sol\":6278:6302  rewardToken.safeTransfer */\n      0xffffffffffffffffffffffffffffffffffffffff\n      and\n      tag_133\n      swap1\n        /* \"contracts/MasterChef.sol\":6278:6332  rewardToken.safeTransfer(address(msg.sender), pending) */\n      swap3\n      swap2\n      swap1\n      0xffffffff\n      and\n      jump\t// in\n    tag_132:\n        /* \"contracts/MasterChef.sol\":6246:6344  if (pending > 0) {... */\n    tag_131:\n        /* \"contracts/MasterChef.sol\":6368:6369  0 */\n      0x00\n        /* \"contracts/MasterChef.sol\":6358:6365  _amount */\n      dup5\n        /* \"contracts/MasterChef.sol\":6358:6369  _amount > 0 */\n      gt\n        /* \"contracts/MasterChef.sol\":6354:6507  if (_amount > 0) {... */\n      iszero\n      tag_134\n      jumpi\n        /* \"contracts/MasterChef.sol\":6414:6421  _amount */\n      dup4\n        /* \"contracts/MasterChef.sol\":6400:6404  user */\n      dup3\n        /* \"contracts/MasterChef.sol\":6400:6411  user.amount */\n      0x00\n      add\n      sload\n        /* \"contracts/MasterChef.sol\":6400:6421  user.amount - _amount */\n      tag_135\n      swap2\n      swap1\n      tag_130\n      jump\t// in\n    tag_135:\n        /* \"contracts/MasterChef.sol\":6386:6390  user */\n      dup3\n        /* \"contracts/MasterChef.sol\":6386:6397  user.amount */\n      0x00\n      add\n        /* \"contracts/MasterChef.sol\":6386:6421  user.amount = user.amount - _amount */\n      dup2\n      swap1\n      sstore\n      pop\n        /* \"contracts/MasterChef.sol\":6443:6447  pool */\n      dup3\n        /* \"contracts/MasterChef.sol\":6443:6455  pool.lpToken */\n      0x00\n      add\n      0x00\n      swap1\n      sload\n      swap1\n      0x0100\n      exp\n      swap1\n      div\n      0xffffffffffffffffffffffffffffffffffffffff\n      and\n        /* \"contracts/MasterChef.sol\":6436:6465  IERC20(pool.lpToken).transfer */\n      0xffffffffffffffffffffffffffffffffffffffff\n      and\n      0xa9059cbb\n        /* \"contracts/MasterChef.sol\":6474:6484  msg.sender */\n      caller\n        /* \"contracts/MasterChef.sol\":6487:6494  _amount */\n      dup7\n        /* \"contracts/MasterChef.sol\":6436:6495  IERC20(pool.lpToken).transfer(address(msg.sender), _amount) */\n      mload(0x40)\n      dup4\n      0xffffffff\n      and\n      0xe0\n      shl\n      dup2\n      mstore\n      0x04\n      add\n      tag_136\n      swap3\n      swap2\n      swap1\n      tag_137\n      jump\t// in\n    tag_136:\n      0x20\n      mload(0x40)\n      dup1\n      dup4\n      sub\n      dup2\n      0x00\n      dup8\n      gas\n      call\n      iszero\n      dup1\n      iszero\n      tag_139\n      jumpi\n      returndatasize\n      0x00\n      dup1\n      returndatacopy\n      revert(0x00, returndatasize)\n    tag_139:\n      pop\n      pop\n      pop\n      pop\n      mload(0x40)\n      returndatasize\n      not(0x1f)\n      0x1f\n      dup3\n      add\n      and\n      dup3\n      add\n      dup1\n      0x40\n      mstore\n      pop\n      dup2\n      add\n      swap1\n      tag_140\n      swap2\n      swap1\n      tag_141\n      jump\t// in\n    tag_140:\n      pop\n        /* \"contracts/MasterChef.sol\":6354:6507  if (_amount > 0) {... */\n    tag_134:\n        /* \"contracts/MasterChef.sol\":6576:6580  1e12 */\n      0xe8d4a51000\n        /* \"contracts/MasterChef.sol\":6550:6554  pool */\n      dup4\n        /* \"contracts/MasterChef.sol\":6550:6572  pool.accRewardPerShare */\n      0x03\n      add\n      sload\n        /* \"contracts/MasterChef.sol\":6536:6540  user */\n      dup4\n        /* \"contracts/MasterChef.sol\":6536:6547  user.amount */\n      0x00\n      add\n      sload\n        /* \"contracts/MasterChef.sol\":6536:6572  user.amount * pool.accRewardPerShare */\n      tag_142\n      swap2\n      swap1\n      tag_126\n      jump\t// in\n    tag_142:\n        /* \"contracts/MasterChef.sol\":6535:6580  (user.amount * pool.accRewardPerShare) / 1e12 */\n      tag_143\n      swap2\n      swap1\n      tag_128\n      jump\t// in\n    tag_143:\n        /* \"contracts/MasterChef.sol\":6517:6521  user */\n      dup3\n        /* \"contracts/MasterChef.sol\":6517:6532  user.rewardDebt */\n      0x01\n      add\n        /* \"contracts/MasterChef.sol\":6517:6580  user.rewardDebt = (user.amount * pool.accRewardPerShare) / 1e12 */\n      dup2\n      swap1\n      sstore\n      pop\n        /* \"contracts/MasterChef.sol\":6617:6621  _pid */\n      dup5\n        /* \"contracts/MasterChef.sol\":6605:6615  msg.sender */\n      caller\n        /* \"contracts/MasterChef.sol\":6596:6631  Withdraw(msg.sender, _pid, _amount) */\n      0xffffffffffffffffffffffffffffffffffffffff\n      and\n      0xf279e6a1f5e320cca91135676d9cb6e44ca8a08c0b88342bcdb1144f6511b568\n        /* \"contracts/MasterChef.sol\":6623:6630  _amount */\n      dup7\n        /* \"contracts/MasterChef.sol\":6596:6631  Withdraw(msg.sender, _pid, _amount) */\n      mload(0x40)\n      tag_144\n      swap2\n      swap1\n      tag_30\n      jump\t// in\n    tag_144:\n      mload(0x40)\n      dup1\n      swap2\n      sub\n      swap1\n      log3\n        /* \"contracts/MasterChef.sol\":5940:6639  {... */\n      pop\n      pop\n      pop\n        /* \"contracts/MasterChef.sol\":5884:6639  function withdraw(uint256 _pid, uint256 _amount) public {... */\n      pop\n      pop\n      jump\t// out\n        /* \"contracts/MasterChef.sol\":1012:1037  uint256 public startBlock */\n    tag_52:\n      sload(0x04)\n      dup2\n      jump\t// out\n        /* \"contracts/MasterChef.sol\":3530:4213  function updatePool(uint256 _pid) public {... */\n    tag_56:\n        /* \"contracts/MasterChef.sol\":3582:3603  PoolInfo storage pool */\n      0x00\n        /* \"contracts/MasterChef.sol\":3606:3614  poolInfo */\n      0x06\n        /* \"contracts/MasterChef.sol\":3615:3619  _pid */\n      dup3\n        /* \"contracts/MasterChef.sol\":3606:3620  poolInfo[_pid] */\n      dup2\n      sload\n      dup2\n      lt\n      tag_146\n      jumpi\n      tag_147\n      tag_119\n      jump\t// in\n    tag_147:\n    tag_146:\n      swap1\n      0x00\n      mstore\n      keccak256(0x00, 0x20)\n      swap1\n      0x04\n      mul\n      add\n        /* \"contracts/MasterChef.sol\":3582:3620  PoolInfo storage pool = poolInfo[_pid] */\n      swap1\n      pop\n        /* \"contracts/MasterChef.sol\":3651:3655  pool */\n      dup1\n        /* \"contracts/MasterChef.sol\":3651:3671  pool.lastRewardBlock */\n      0x02\n      add\n      sload\n        /* \"contracts/MasterChef.sol\":3635:3647  block.number */\n      number\n        /* \"contracts/MasterChef.sol\":3635:3671  block.number <= pool.lastRewardBlock */\n      gt\n        /* \"contracts/MasterChef.sol\":3631:3706  if (block.number <= pool.lastRewardBlock) {... */\n      tag_149\n      jumpi\n        /* \"contracts/MasterChef.sol\":3688:3695  return; */\n      pop\n      jump(tag_145)\n        /* \"contracts/MasterChef.sol\":3631:3706  if (block.number <= pool.lastRewardBlock) {... */\n    tag_149:\n        /* \"contracts/MasterChef.sol\":3716:3732  uint256 lpSupply */\n      0x00\n        /* \"contracts/MasterChef.sol\":3735:3739  pool */\n      dup2\n        /* \"contracts/MasterChef.sol\":3735:3747  pool.lpToken */\n      0x00\n      add\n      0x00\n      swap1\n      sload\n      swap1\n      0x0100\n      exp\n      swap1\n      div\n      0xffffffffffffffffffffffffffffffffffffffff\n      and\n        /* \"contracts/MasterChef.sol\":3735:3757  pool.lpToken.balanceOf */\n      0xffffffffffffffffffffffffffffffffffffffff\n      and\n      0x70a08231\n        /* \"contracts/MasterChef.sol\":3766:3770  this */\n      address\n        /* \"contracts/MasterChef.sol\":3735:3772  pool.lpToken.balanceOf(address(this)) */\n      mload(0x40)\n      dup3\n      0xffffffff\n      and\n      0xe0\n      shl\n      dup2\n      mstore\n      0x04\n      add\n      tag_150\n      swap2\n      swap1\n      tag_76\n      jump\t// in\n    tag_150:\n      0x20\n      mload(0x40)\n      dup1\n      dup4\n      sub\n      dup2\n      dup7\n      gas\n      staticcall\n      iszero\n      dup1\n      iszero\n      tag_152\n      jumpi\n      returndatasize\n      0x00\n      dup1\n      returndatacopy\n      revert(0x00, returndatasize)\n    tag_152:\n      pop\n      pop\n      pop\n      pop\n      mload(0x40)\n      returndatasize\n      not(0x1f)\n      0x1f\n      dup3\n      add\n      and\n      dup3\n      add\n      dup1\n      0x40\n      mstore\n      pop\n      dup2\n      add\n      swap1\n      tag_153\n      swap2\n      swap1\n      tag_154\n      jump\t// in\n    tag_153:\n        /* \"contracts/MasterChef.sol\":3716:3772  uint256 lpSupply = pool.lpToken.balanceOf(address(this)) */\n      swap1\n      pop\n        /* \"contracts/MasterChef.sol\":3799:3800  0 */\n      0x00\n        /* \"contracts/MasterChef.sol\":3787:3795  lpSupply */\n      dup2\n        /* \"contracts/MasterChef.sol\":3787:3800  lpSupply == 0 */\n      sub\n        /* \"contracts/MasterChef.sol\":3783:3885  if (lpSupply == 0) {... */\n      tag_155\n      jumpi\n        /* \"contracts/MasterChef.sol\":3840:3852  block.number */\n      number\n        /* \"contracts/MasterChef.sol\":3817:3821  pool */\n      dup3\n        /* \"contracts/MasterChef.sol\":3817:3837  pool.lastRewardBlock */\n      0x02\n      add\n        /* \"contracts/MasterChef.sol\":3817:3852  pool.lastRewardBlock = block.number */\n      dup2\n      swap1\n      sstore\n      pop\n        /* \"contracts/MasterChef.sol\":3867:3874  return; */\n      pop\n      pop\n      jump(tag_145)\n        /* \"contracts/MasterChef.sol\":3783:3885  if (lpSupply == 0) {... */\n    tag_155:\n        /* \"contracts/MasterChef.sol\":3895:3913  uint256 multiplier */\n      0x00\n        /* \"contracts/MasterChef.sol\":3916:3965  getMultiplier(pool.lastRewardBlock, block.number) */\n      tag_156\n        /* \"contracts/MasterChef.sol\":3930:3934  pool */\n      dup4\n        /* \"contracts/MasterChef.sol\":3930:3950  pool.lastRewardBlock */\n      0x02\n      add\n      sload\n        /* \"contracts/MasterChef.sol\":3952:3964  block.number */\n      number\n        /* \"contracts/MasterChef.sol\":3916:3929  getMultiplier */\n      tag_79\n        /* \"contracts/MasterChef.sol\":3916:3965  getMultiplier(pool.lastRewardBlock, block.number) */\n      jump\t// in\n    tag_156:\n        /* \"contracts/MasterChef.sol\":3895:3965  uint256 multiplier = getMultiplier(pool.lastRewardBlock, block.number) */\n      swap1\n      pop\n        /* \"contracts/MasterChef.sol\":3976:3990  uint256 reward */\n      0x00\n        /* \"contracts/MasterChef.sol\":3993:4065  multiplier.mul(rewardPerBlock).mul(pool.allocPoint).div(totalAllocPoint) */\n      tag_157\n        /* \"contracts/MasterChef.sol\":4049:4064  totalAllocPoint */\n      sload(0x03)\n        /* \"contracts/MasterChef.sol\":3993:4044  multiplier.mul(rewardPerBlock).mul(pool.allocPoint) */\n      tag_158\n        /* \"contracts/MasterChef.sol\":4028:4032  pool */\n      dup7\n        /* \"contracts/MasterChef.sol\":4028:4043  pool.allocPoint */\n      0x01\n      add\n      sload\n        /* \"contracts/MasterChef.sol\":3993:4023  multiplier.mul(rewardPerBlock) */\n      tag_159\n        /* \"contracts/MasterChef.sol\":4008:4022  rewardPerBlock */\n      sload(0x02)\n        /* \"contracts/MasterChef.sol\":3993:4003  multiplier */\n      dup8\n        /* \"contracts/MasterChef.sol\":3993:4007  multiplier.mul */\n      tag_160\n      swap1\n        /* \"contracts/MasterChef.sol\":3993:4023  multiplier.mul(rewardPerBlock) */\n      swap2\n      swap1\n      0xffffffff\n      and\n      jump\t// in\n    tag_159:\n        /* \"contracts/MasterChef.sol\":3993:4027  multiplier.mul(rewardPerBlock).mul */\n      tag_160\n      swap1\n        /* \"contracts/MasterChef.sol\":3993:4044  multiplier.mul(rewardPerBlock).mul(pool.allocPoint) */\n      swap2\n      swap1\n      0xffffffff\n      and\n      jump\t// in\n    tag_158:\n        /* \"contracts/MasterChef.sol\":3993:4048  multiplier.mul(rewardPerBlock).mul(pool.allocPoint).div */\n      tag_161\n      swap1\n        /* \"contracts/MasterChef.sol\":3993:4065  multiplier.mul(rewardPerBlock).mul(pool.allocPoint).div(totalAllocPoint) */\n      swap2\n      swap1\n      0xffffffff\n      and\n      jump\t// in\n    tag_157:\n        /* \"contracts/MasterChef.sol\":3976:4065  uint256 reward = multiplier.mul(rewardPerBlock).mul(pool.allocPoint).div(totalAllocPoint) */\n      swap1\n      pop\n        /* \"contracts/MasterChef.sol\":4101:4159  pool.accRewardPerShare.add(reward.mul(1e12).div(lpSupply)) */\n      tag_162\n        /* \"contracts/MasterChef.sol\":4128:4158  reward.mul(1e12).div(lpSupply) */\n      tag_163\n        /* \"contracts/MasterChef.sol\":4149:4157  lpSupply */\n      dup5\n        /* \"contracts/MasterChef.sol\":4128:4144  reward.mul(1e12) */\n      tag_164\n        /* \"contracts/MasterChef.sol\":4139:4143  1e12 */\n      0xe8d4a51000\n        /* \"contracts/MasterChef.sol\":4128:4134  reward */\n      dup6\n        /* \"contracts/MasterChef.sol\":4128:4138  reward.mul */\n      tag_160\n      swap1\n        /* \"contracts/MasterChef.sol\":4128:4144  reward.mul(1e12) */\n      swap2\n      swap1\n      0xffffffff\n      and\n      jump\t// in\n    tag_164:\n        /* \"contracts/MasterChef.sol\":4128:4148  reward.mul(1e12).div */\n      tag_161\n      swap1\n        /* \"contracts/MasterChef.sol\":4128:4158  reward.mul(1e12).div(lpSupply) */\n      swap2\n      swap1\n      0xffffffff\n      and\n      jump\t// in\n    tag_163:\n        /* \"contracts/MasterChef.sol\":4101:4105  pool */\n      dup6\n        /* \"contracts/MasterChef.sol\":4101:4123  pool.accRewardPerShare */\n      0x03\n      add\n      sload\n        /* \"contracts/MasterChef.sol\":4101:4127  pool.accRewardPerShare.add */\n      tag_165\n      swap1\n        /* \"contracts/MasterChef.sol\":4101:4159  pool.accRewardPerShare.add(reward.mul(1e12).div(lpSupply)) */\n      swap2\n      swap1\n      0xffffffff\n      and\n      jump\t// in\n    tag_162:\n        /* \"contracts/MasterChef.sol\":4076:4080  pool */\n      dup5\n        /* \"contracts/MasterChef.sol\":4076:4098  pool.accRewardPerShare */\n      0x03\n      add\n        /* \"contracts/MasterChef.sol\":4076:4159  pool.accRewardPerShare = pool.accRewardPerShare.add(reward.mul(1e12).div(lpSupply)) */\n      dup2\n      swap1\n      sstore\n      pop\n        /* \"contracts/MasterChef.sol\":4193:4205  block.number */\n      number\n        /* \"contracts/MasterChef.sol\":4170:4174  pool */\n      dup5\n        /* \"contracts/MasterChef.sol\":4170:4190  pool.lastRewardBlock */\n      0x02\n      add\n        /* \"contracts/MasterChef.sol\":4170:4205  pool.lastRewardBlock = block.number */\n      dup2\n      swap1\n      sstore\n      pop\n        /* \"contracts/MasterChef.sol\":3571:4213  {... */\n      pop\n      pop\n      pop\n      pop\n        /* \"contracts/MasterChef.sol\":3530:4213  function updatePool(uint256 _pid) public {... */\n    tag_145:\n      pop\n      jump\t// out\n        /* \"contracts/MasterChef.sol\":6647:7005  function emergencyWithdraw(uint256 _pid) public {... */\n    tag_59:\n        /* \"contracts/MasterChef.sol\":6706:6727  UserInfo storage user */\n      0x00\n        /* \"contracts/MasterChef.sol\":6730:6738  userInfo */\n      0x07\n        /* \"contracts/MasterChef.sol\":6730:6744  userInfo[_pid] */\n      0x00\n        /* \"contracts/MasterChef.sol\":6739:6743  _pid */\n      dup4\n        /* \"contracts/MasterChef.sol\":6730:6744  userInfo[_pid] */\n      dup2\n      mstore\n      0x20\n      add\n      swap1\n      dup2\n      mstore\n      0x20\n      add\n      0x00\n      keccak256\n        /* \"contracts/MasterChef.sol\":6730:6756  userInfo[_pid][msg.sender] */\n      0x00\n        /* \"contracts/MasterChef.sol\":6745:6755  msg.sender */\n      caller\n        /* \"contracts/MasterChef.sol\":6730:6756  userInfo[_pid][msg.sender] */\n      0xffffffffffffffffffffffffffffffffffffffff\n      and\n      0xffffffffffffffffffffffffffffffffffffffff\n      and\n      dup2\n      mstore\n      0x20\n      add\n      swap1\n      dup2\n      mstore\n      0x20\n      add\n      0x00\n      keccak256\n        /* \"contracts/MasterChef.sol\":6706:6756  UserInfo storage user = userInfo[_pid][msg.sender] */\n      swap1\n      pop\n        /* \"contracts/MasterChef.sol\":6774:6782  poolInfo */\n      0x06\n        /* \"contracts/MasterChef.sol\":6783:6787  _pid */\n      dup3\n        /* \"contracts/MasterChef.sol\":6774:6788  poolInfo[_pid] */\n      dup2\n      sload\n      dup2\n      lt\n      tag_167\n      jumpi\n      tag_168\n      tag_119\n      jump\t// in\n    tag_168:\n    tag_167:\n      swap1\n      0x00\n      mstore\n      keccak256(0x00, 0x20)\n      swap1\n      0x04\n      mul\n      add\n        /* \"contracts/MasterChef.sol\":6774:6796  poolInfo[_pid].lpToken */\n      0x00\n      add\n      0x00\n      swap1\n      sload\n      swap1\n      0x0100\n      exp\n      swap1\n      div\n      0xffffffffffffffffffffffffffffffffffffffff\n      and\n        /* \"contracts/MasterChef.sol\":6767:6806  IERC20(poolInfo[_pid].lpToken).transfer */\n      0xffffffffffffffffffffffffffffffffffffffff\n      and\n      0xa9059cbb\n        /* \"contracts/MasterChef.sol\":6829:6839  msg.sender */\n      caller\n        /* \"contracts/MasterChef.sol\":6855:6859  user */\n      dup4\n        /* \"contracts/MasterChef.sol\":6855:6866  user.amount */\n      0x00\n      add\n      sload\n        /* \"contracts/MasterChef.sol\":6767:6877  IERC20(poolInfo[_pid].lpToken).transfer(... */\n      mload(0x40)\n      dup4\n      0xffffffff\n      and\n      0xe0\n      shl\n      dup2\n      mstore\n      0x04\n      add\n      tag_170\n      swap3\n      swap2\n      swap1\n      tag_137\n      jump\t// in\n    tag_170:\n      0x20\n      mload(0x40)\n      dup1\n      dup4\n      sub\n      dup2\n      0x00\n      dup8\n      gas\n      call\n      iszero\n      dup1\n      iszero\n      tag_172\n      jumpi\n      returndatasize\n      0x00\n      dup1\n      returndatacopy\n      revert(0x00, returndatasize)\n    tag_172:\n      pop\n      pop\n      pop\n      pop\n      mload(0x40)\n      returndatasize\n      not(0x1f)\n      0x1f\n      dup3\n      add\n      and\n      dup3\n      add\n      dup1\n      0x40\n      mstore\n      pop\n      dup2\n      add\n      swap1\n      tag_173\n      swap2\n      swap1\n      tag_141\n      jump\t// in\n    tag_173:\n      pop\n        /* \"contracts/MasterChef.sol\":6923:6927  _pid */\n      dup2\n        /* \"contracts/MasterChef.sol\":6911:6921  msg.sender */\n      caller\n        /* \"contracts/MasterChef.sol\":6893:6941  EmergencyWithdraw(msg.sender, _pid, user.amount) */\n      0xffffffffffffffffffffffffffffffffffffffff\n      and\n      0xbb757047c2b5f3974fe26b7c10f732e7bce710b0952a71082702781e62ae0595\n        /* \"contracts/MasterChef.sol\":6929:6933  user */\n      dup4\n        /* \"contracts/MasterChef.sol\":6929:6940  user.amount */\n      0x00\n      add\n      sload\n        /* \"contracts/MasterChef.sol\":6893:6941  EmergencyWithdraw(msg.sender, _pid, user.amount) */\n      mload(0x40)\n      tag_174\n      swap2\n      swap1\n      tag_30\n      jump\t// in\n    tag_174:\n      mload(0x40)\n      dup1\n      swap2\n      sub\n      swap1\n      log3\n        /* \"contracts/MasterChef.sol\":6966:6967  0 */\n      0x00\n        /* \"contracts/MasterChef.sol\":6952:6956  user */\n      dup2\n        /* \"contracts/MasterChef.sol\":6952:6963  user.amount */\n      0x00\n      add\n        /* \"contracts/MasterChef.sol\":6952:6967  user.amount = 0 */\n      dup2\n      swap1\n      sstore\n      pop\n        /* \"contracts/MasterChef.sol\":6996:6997  0 */\n      0x00\n        /* \"contracts/MasterChef.sol\":6978:6982  user */\n      dup2\n        /* \"contracts/MasterChef.sol\":6978:6993  user.rewardDebt */\n      0x01\n      add\n        /* \"contracts/MasterChef.sol\":6978:6997  user.rewardDebt = 0 */\n      dup2\n      swap1\n      sstore\n      pop\n        /* \"contracts/MasterChef.sol\":6695:7005  {... */\n      pop\n        /* \"contracts/MasterChef.sol\":6647:7005  function emergencyWithdraw(uint256 _pid) public {... */\n      pop\n      jump\t// out\n        /* \"contracts/MasterChef.sol\":3342:3522  function massUpdatePools() public {... */\n    tag_61:\n        /* \"contracts/MasterChef.sol\":3387:3401  uint256 length */\n      0x00\n        /* \"contracts/MasterChef.sol\":3404:3412  poolInfo */\n      0x06\n        /* \"contracts/MasterChef.sol\":3404:3419  poolInfo.length */\n      dup1\n      sload\n      swap1\n      pop\n        /* \"contracts/MasterChef.sol\":3387:3419  uint256 length = poolInfo.length */\n      swap1\n      pop\n        /* \"contracts/MasterChef.sol\":3435:3446  uint256 pid */\n      0x00\n        /* \"contracts/MasterChef.sol\":3430:3515  for (uint256 pid = 0; pid < length; ++pid) {... */\n    tag_176:\n        /* \"contracts/MasterChef.sol\":3458:3464  length */\n      dup2\n        /* \"contracts/MasterChef.sol\":3452:3455  pid */\n      dup2\n        /* \"contracts/MasterChef.sol\":3452:3464  pid < length */\n      lt\n        /* \"contracts/MasterChef.sol\":3430:3515  for (uint256 pid = 0; pid < length; ++pid) {... */\n      iszero\n      tag_177\n      jumpi\n        /* \"contracts/MasterChef.sol\":3488:3503  updatePool(pid) */\n      tag_179\n        /* \"contracts/MasterChef.sol\":3499:3502  pid */\n      dup2\n        /* \"contracts/MasterChef.sol\":3488:3498  updatePool */\n      tag_56\n        /* \"contracts/MasterChef.sol\":3488:3503  updatePool(pid) */\n      jump\t// in\n    tag_179:\n        /* \"contracts/MasterChef.sol\":3466:3471  ++pid */\n      dup1\n      tag_180\n      swap1\n      tag_181\n      jump\t// in\n    tag_180:\n      swap1\n      pop\n        /* \"contracts/MasterChef.sol\":3430:3515  for (uint256 pid = 0; pid < length; ++pid) {... */\n      jump(tag_176)\n    tag_177:\n      pop\n        /* \"contracts/MasterChef.sol\":3376:3522  {... */\n      pop\n        /* \"contracts/MasterChef.sol\":3342:3522  function massUpdatePools() public {... */\n      jump\t// out\n        /* \"contracts/MasterChef.sol\":3000:3334  function set(... */\n    tag_65:\n        /* \"@openzeppelin/contracts/access/Ownable.sol\":1094:1107  _checkOwner() */\n      tag_183\n        /* \"@openzeppelin/contracts/access/Ownable.sol\":1094:1105  _checkOwner */\n      tag_107\n        /* \"@openzeppelin/contracts/access/Ownable.sol\":1094:1107  _checkOwner() */\n      jump\t// in\n    tag_183:\n        /* \"contracts/MasterChef.sol\":3134:3145  _withUpdate */\n      dup1\n        /* \"contracts/MasterChef.sol\":3130:3191  if (_withUpdate) {... */\n      iszero\n      tag_185\n      jumpi\n        /* \"contracts/MasterChef.sol\":3162:3179  massUpdatePools() */\n      tag_186\n        /* \"contracts/MasterChef.sol\":3162:3177  massUpdatePools */\n      tag_61\n        /* \"contracts/MasterChef.sol\":3162:3179  massUpdatePools() */\n      jump\t// in\n    tag_186:\n        /* \"contracts/MasterChef.sol\":3130:3191  if (_withUpdate) {... */\n    tag_185:\n        /* \"contracts/MasterChef.sol\":3265:3276  _allocPoint */\n      dup2\n        /* \"contracts/MasterChef.sol\":3237:3245  poolInfo */\n      0x06\n        /* \"contracts/MasterChef.sol\":3246:3250  _pid */\n      dup5\n        /* \"contracts/MasterChef.sol\":3237:3251  poolInfo[_pid] */\n      dup2\n      sload\n      dup2\n      lt\n      tag_187\n      jumpi\n      tag_188\n      tag_119\n      jump\t// in\n    tag_188:\n    tag_187:\n      swap1\n      0x00\n      mstore\n      keccak256(0x00, 0x20)\n      swap1\n      0x04\n      mul\n      add\n        /* \"contracts/MasterChef.sol\":3237:3262  poolInfo[_pid].allocPoint */\n      0x01\n      add\n      sload\n        /* \"contracts/MasterChef.sol\":3219:3234  totalAllocPoint */\n      sload(0x03)\n        /* \"contracts/MasterChef.sol\":3219:3262  totalAllocPoint - poolInfo[_pid].allocPoint */\n      tag_190\n      swap2\n      swap1\n      tag_130\n      jump\t// in\n    tag_190:\n        /* \"contracts/MasterChef.sol\":3219:3276  totalAllocPoint - poolInfo[_pid].allocPoint + _allocPoint */\n      tag_191\n      swap2\n      swap1\n      tag_112\n      jump\t// in\n    tag_191:\n        /* \"contracts/MasterChef.sol\":3201:3216  totalAllocPoint */\n      0x03\n        /* \"contracts/MasterChef.sol\":3201:3276  totalAllocPoint = totalAllocPoint - poolInfo[_pid].allocPoint + _allocPoint */\n      dup2\n      swap1\n      sstore\n      pop\n        /* \"contracts/MasterChef.sol\":3315:3326  _allocPoint */\n      dup2\n        /* \"contracts/MasterChef.sol\":3287:3295  poolInfo */\n      0x06\n        /* \"contracts/MasterChef.sol\":3296:3300  _pid */\n      dup5\n        /* \"contracts/MasterChef.sol\":3287:3301  poolInfo[_pid] */\n      dup2\n      sload\n      dup2\n      lt\n      tag_192\n      jumpi\n      tag_193\n      tag_119\n      jump\t// in\n    tag_193:\n    tag_192:\n      swap1\n      0x00\n      mstore\n      keccak256(0x00, 0x20)\n      swap1\n      0x04\n      mul\n      add\n        /* \"contracts/MasterChef.sol\":3287:3312  poolInfo[_pid].allocPoint */\n      0x01\n      add\n        /* \"contracts/MasterChef.sol\":3287:3326  poolInfo[_pid].allocPoint = _allocPoint */\n      dup2\n      swap1\n      sstore\n      pop\n        /* \"contracts/MasterChef.sol\":3000:3334  function set(... */\n      pop\n      pop\n      pop\n      jump\t// out\n        /* \"@openzeppelin/contracts/access/Ownable.sol\":1831:1932  function renounceOwnership() public virtual onlyOwner {... */\n    tag_67:\n        /* \"@openzeppelin/contracts/access/Ownable.sol\":1094:1107  _checkOwner() */\n      tag_196\n        /* \"@openzeppelin/contracts/access/Ownable.sol\":1094:1105  _checkOwner */\n      tag_107\n        /* \"@openzeppelin/contracts/access/Ownable.sol\":1094:1107  _checkOwner() */\n      jump\t// in\n    tag_196:\n        /* \"@openzeppelin/contracts/access/Ownable.sol\":1895:1925  _transferOwnership(address(0)) */\n      tag_198\n        /* \"@openzeppelin/contracts/access/Ownable.sol\":1922:1923  0 */\n      0x00\n        /* \"@openzeppelin/contracts/access/Ownable.sol\":1895:1913  _transferOwnership */\n      tag_199\n        /* \"@openzeppelin/contracts/access/Ownable.sol\":1895:1925  _transferOwnership(address(0)) */\n      jump\t// in\n    tag_198:\n        /* \"@openzeppelin/contracts/access/Ownable.sol\":1831:1932  function renounceOwnership() public virtual onlyOwner {... */\n      jump\t// out\n        /* \"contracts/MasterChef.sol\":1976:2062  function stopReward() public onlyOwner {... */\n    tag_69:\n        /* \"@openzeppelin/contracts/access/Ownable.sol\":1094:1107  _checkOwner() */\n      tag_201\n        /* \"@openzeppelin/contracts/access/Ownable.sol\":1094:1105  _checkOwner */\n      tag_107\n        /* \"@openzeppelin/contracts/access/Ownable.sol\":1094:1107  _checkOwner() */\n      jump\t// in\n    tag_201:\n        /* \"contracts/MasterChef.sol\":2042:2054  block.number */\n      number\n        /* \"contracts/MasterChef.sol\":2026:2039  bonusEndBlock */\n      0x05\n        /* \"contracts/MasterChef.sol\":2026:2054  bonusEndBlock = block.number */\n      dup2\n      swap1\n      sstore\n      pop\n        /* \"contracts/MasterChef.sol\":1976:2062  function stopReward() public onlyOwner {... */\n      jump\t// out\n        /* \"contracts/MasterChef.sol\":870:899  uint256 public rewardPerBlock */\n    tag_71:\n      sload(0x02)\n      dup2\n      jump\t// out\n        /* \"@openzeppelin/contracts/access/Ownable.sol\":1201:1286  function owner() public view virtual returns (address) {... */\n    tag_74:\n        /* \"@openzeppelin/contracts/access/Ownable.sol\":1247:1254  address */\n      0x00\n        /* \"@openzeppelin/contracts/access/Ownable.sol\":1273:1279  _owner */\n      dup1\n      0x00\n      swap1\n      sload\n      swap1\n      0x0100\n      exp\n      swap1\n      div\n      0xffffffffffffffffffffffffffffffffffffffff\n      and\n        /* \"@openzeppelin/contracts/access/Ownable.sol\":1266:1279  return _owner */\n      swap1\n      pop\n        /* \"@openzeppelin/contracts/access/Ownable.sol\":1201:1286  function owner() public view virtual returns (address) {... */\n      swap1\n      jump\t// out\n        /* \"contracts/MasterChef.sol\":2138:2444  function getMultiplier(uint256 _from, uint256 _to) public view returns (uint256) {... */\n    tag_79:\n        /* \"contracts/MasterChef.sol\":2210:2217  uint256 */\n      0x00\n        /* \"contracts/MasterChef.sol\":2241:2254  bonusEndBlock */\n      sload(0x05)\n        /* \"contracts/MasterChef.sol\":2234:2237  _to */\n      dup3\n        /* \"contracts/MasterChef.sol\":2234:2254  _to <= bonusEndBlock */\n      gt\n        /* \"contracts/MasterChef.sol\":2230:2437  if (_to <= bonusEndBlock) {... */\n      tag_205\n      jumpi\n        /* \"contracts/MasterChef.sol\":2278:2292  _to.sub(_from) */\n      tag_206\n        /* \"contracts/MasterChef.sol\":2286:2291  _from */\n      dup4\n        /* \"contracts/MasterChef.sol\":2278:2281  _to */\n      dup4\n        /* \"contracts/MasterChef.sol\":2278:2285  _to.sub */\n      tag_207\n      swap1\n        /* \"contracts/MasterChef.sol\":2278:2292  _to.sub(_from) */\n      swap2\n      swap1\n      0xffffffff\n      and\n      jump\t// in\n    tag_206:\n        /* \"contracts/MasterChef.sol\":2271:2292  return _to.sub(_from) */\n      swap1\n      pop\n      jump(tag_204)\n        /* \"contracts/MasterChef.sol\":2230:2437  if (_to <= bonusEndBlock) {... */\n    tag_205:\n        /* \"contracts/MasterChef.sol\":2323:2336  bonusEndBlock */\n      sload(0x05)\n        /* \"contracts/MasterChef.sol\":2314:2319  _from */\n      dup4\n        /* \"contracts/MasterChef.sol\":2314:2336  _from >= bonusEndBlock */\n      lt\n        /* \"contracts/MasterChef.sol\":2310:2437  if (_from >= bonusEndBlock) {... */\n      tag_209\n      jumpi\n        /* \"contracts/MasterChef.sol\":2360:2361  0 */\n      0x00\n        /* \"contracts/MasterChef.sol\":2353:2361  return 0 */\n      swap1\n      pop\n      jump(tag_204)\n        /* \"contracts/MasterChef.sol\":2310:2437  if (_from >= bonusEndBlock) {... */\n    tag_209:\n        /* \"contracts/MasterChef.sol\":2401:2425  bonusEndBlock.sub(_from) */\n      tag_211\n        /* \"contracts/MasterChef.sol\":2419:2424  _from */\n      dup4\n        /* \"contracts/MasterChef.sol\":2401:2414  bonusEndBlock */\n      sload(0x05)\n        /* \"contracts/MasterChef.sol\":2401:2418  bonusEndBlock.sub */\n      tag_207\n      swap1\n        /* \"contracts/MasterChef.sol\":2401:2425  bonusEndBlock.sub(_from) */\n      swap2\n      swap1\n      0xffffffff\n      and\n      jump\t// in\n    tag_211:\n        /* \"contracts/MasterChef.sol\":2394:2425  return bonusEndBlock.sub(_from) */\n      swap1\n      pop\n        /* \"contracts/MasterChef.sol\":2138:2444  function getMultiplier(uint256 _from, uint256 _to) public view returns (uint256) {... */\n    tag_204:\n      swap3\n      swap2\n      pop\n      pop\n      jump\t// out\n        /* \"contracts/MasterChef.sol\":1176:1240  mapping(uint256 => mapping(address => UserInfo)) public userInfo */\n    tag_84:\n      mstore(0x20, 0x07)\n      dup2\n      0x00\n      mstore\n      mstore(0x20, keccak256(0x00, 0x40))\n      dup1\n      0x00\n      mstore\n      keccak256(0x00, 0x40)\n      0x00\n      swap2\n      pop\n      swap2\n      pop\n      pop\n      dup1\n      0x00\n      add\n      sload\n      swap1\n      dup1\n      0x01\n      add\n      sload\n      swap1\n      pop\n      dup3\n      jump\t// out\n        /* \"contracts/MasterChef.sol\":4221:5037  function pendingReward(... */\n    tag_89:\n        /* \"contracts/MasterChef.sol\":4319:4326  uint256 */\n      0x00\n        /* \"contracts/MasterChef.sol\":4339:4360  PoolInfo storage pool */\n      dup1\n        /* \"contracts/MasterChef.sol\":4363:4371  poolInfo */\n      0x06\n        /* \"contracts/MasterChef.sol\":4372:4376  _pid */\n      dup5\n        /* \"contracts/MasterChef.sol\":4363:4377  poolInfo[_pid] */\n      dup2\n      sload\n      dup2\n      lt\n      tag_213\n      jumpi\n      tag_214\n      tag_119\n      jump\t// in\n    tag_214:\n    tag_213:\n      swap1\n      0x00\n      mstore\n      keccak256(0x00, 0x20)\n      swap1\n      0x04\n      mul\n      add\n        /* \"contracts/MasterChef.sol\":4339:4377  PoolInfo storage pool = poolInfo[_pid] */\n      swap1\n      pop\n        /* \"contracts/MasterChef.sol\":4388:4409  UserInfo storage user */\n      0x00\n        /* \"contracts/MasterChef.sol\":4412:4420  userInfo */\n      0x07\n        /* \"contracts/MasterChef.sol\":4412:4426  userInfo[_pid] */\n      0x00\n        /* \"contracts/MasterChef.sol\":4421:4425  _pid */\n      dup7\n        /* \"contracts/MasterChef.sol\":4412:4426  userInfo[_pid] */\n      dup2\n      mstore\n      0x20\n      add\n      swap1\n      dup2\n      mstore\n      0x20\n      add\n      0x00\n      keccak256\n        /* \"contracts/MasterChef.sol\":4412:4433  userInfo[_pid][_user] */\n      0x00\n        /* \"contracts/MasterChef.sol\":4427:4432  _user */\n      dup6\n        /* \"contracts/MasterChef.sol\":4412:4433  userInfo[_pid][_user] */\n      0xffffffffffffffffffffffffffffffffffffffff\n      and\n      0xffffffffffffffffffffffffffffffffffffffff\n      and\n      dup2\n      mstore\n      0x20\n      add\n      swap1\n      dup2\n      mstore\n      0x20\n      add\n      0x00\n      keccak256\n        /* \"contracts/MasterChef.sol\":4388:4433  UserInfo storage user = userInfo[_pid][_user] */\n      swap1\n      pop\n        /* \"contracts/MasterChef.sol\":4444:4469  uint256 accRewardPerShare */\n      0x00\n        /* \"contracts/MasterChef.sol\":4472:4476  pool */\n      dup3\n        /* \"contracts/MasterChef.sol\":4472:4494  pool.accRewardPerShare */\n      0x03\n      add\n      sload\n        /* \"contracts/MasterChef.sol\":4444:4494  uint256 accRewardPerShare = pool.accRewardPerShare */\n      swap1\n      pop\n        /* \"contracts/MasterChef.sol\":4505:4521  uint256 lpSupply */\n      0x00\n        /* \"contracts/MasterChef.sol\":4524:4528  pool */\n      dup4\n        /* \"contracts/MasterChef.sol\":4524:4536  pool.lpToken */\n      0x00\n      add\n      0x00\n      swap1\n      sload\n      swap1\n      0x0100\n      exp\n      swap1\n      div\n      0xffffffffffffffffffffffffffffffffffffffff\n      and\n        /* \"contracts/MasterChef.sol\":4524:4546  pool.lpToken.balanceOf */\n      0xffffffffffffffffffffffffffffffffffffffff\n      and\n      0x70a08231\n        /* \"contracts/MasterChef.sol\":4555:4559  this */\n      address\n        /* \"contracts/MasterChef.sol\":4524:4561  pool.lpToken.balanceOf(address(this)) */\n      mload(0x40)\n      dup3\n      0xffffffff\n      and\n      0xe0\n      shl\n      dup2\n      mstore\n      0x04\n      add\n      tag_216\n      swap2\n      swap1\n      tag_76\n      jump\t// in\n    tag_216:\n      0x20\n      mload(0x40)\n      dup1\n      dup4\n      sub\n      dup2\n      dup7\n      gas\n      staticcall\n      iszero\n      dup1\n      iszero\n      tag_218\n      jumpi\n      returndatasize\n      0x00\n      dup1\n      returndatacopy\n      revert(0x00, returndatasize)\n    tag_218:\n      pop\n      pop\n      pop\n      pop\n      mload(0x40)\n      returndatasize\n      not(0x1f)\n      0x1f\n      dup3\n      add\n      and\n      dup3\n      add\n      dup1\n      0x40\n      mstore\n      pop\n      dup2\n      add\n      swap1\n      tag_219\n      swap2\n      swap1\n      tag_154\n      jump\t// in\n    tag_219:\n        /* \"contracts/MasterChef.sol\":4505:4561  uint256 lpSupply = pool.lpToken.balanceOf(address(this)) */\n      swap1\n      pop\n        /* \"contracts/MasterChef.sol\":4591:4595  pool */\n      dup4\n        /* \"contracts/MasterChef.sol\":4591:4611  pool.lastRewardBlock */\n      0x02\n      add\n      sload\n        /* \"contracts/MasterChef.sol\":4576:4588  block.number */\n      number\n        /* \"contracts/MasterChef.sol\":4576:4611  block.number > pool.lastRewardBlock */\n      gt\n        /* \"contracts/MasterChef.sol\":4576:4628  block.number > pool.lastRewardBlock && lpSupply != 0 */\n      dup1\n      iszero\n      tag_220\n      jumpi\n      pop\n        /* \"contracts/MasterChef.sol\":4627:4628  0 */\n      0x00\n        /* \"contracts/MasterChef.sol\":4615:4623  lpSupply */\n      dup2\n        /* \"contracts/MasterChef.sol\":4615:4628  lpSupply != 0 */\n      eq\n      iszero\n        /* \"contracts/MasterChef.sol\":4576:4628  block.number > pool.lastRewardBlock && lpSupply != 0 */\n    tag_220:\n        /* \"contracts/MasterChef.sol\":4572:4954  if (block.number > pool.lastRewardBlock && lpSupply != 0) {... */\n      iszero\n      tag_221\n      jumpi\n        /* \"contracts/MasterChef.sol\":4645:4663  uint256 multiplier */\n      0x00\n        /* \"contracts/MasterChef.sol\":4666:4764  getMultiplier(... */\n      tag_222\n        /* \"contracts/MasterChef.sol\":4698:4702  pool */\n      dup6\n        /* \"contracts/MasterChef.sol\":4698:4718  pool.lastRewardBlock */\n      0x02\n      add\n      sload\n        /* \"contracts/MasterChef.sol\":4737:4749  block.number */\n      number\n        /* \"contracts/MasterChef.sol\":4666:4679  getMultiplier */\n      tag_79\n        /* \"contracts/MasterChef.sol\":4666:4764  getMultiplier(... */\n      jump\t// in\n    tag_222:\n        /* \"contracts/MasterChef.sol\":4645:4764  uint256 multiplier = getMultiplier(... */\n      swap1\n      pop\n        /* \"contracts/MasterChef.sol\":4779:4793  uint256 reward */\n      0x00\n        /* \"contracts/MasterChef.sol\":4846:4861  totalAllocPoint */\n      sload(0x03)\n        /* \"contracts/MasterChef.sol\":4827:4831  pool */\n      dup7\n        /* \"contracts/MasterChef.sol\":4827:4842  pool.allocPoint */\n      0x01\n      add\n      sload\n        /* \"contracts/MasterChef.sol\":4810:4824  rewardPerBlock */\n      sload(0x02)\n        /* \"contracts/MasterChef.sol\":4797:4807  multiplier */\n      dup5\n        /* \"contracts/MasterChef.sol\":4797:4824  multiplier * rewardPerBlock */\n      tag_223\n      swap2\n      swap1\n      tag_126\n      jump\t// in\n    tag_223:\n        /* \"contracts/MasterChef.sol\":4797:4842  multiplier * rewardPerBlock * pool.allocPoint */\n      tag_224\n      swap2\n      swap1\n      tag_126\n      jump\t// in\n    tag_224:\n        /* \"contracts/MasterChef.sol\":4796:4861  (multiplier * rewardPerBlock * pool.allocPoint) / totalAllocPoint */\n      tag_225\n      swap2\n      swap1\n      tag_128\n      jump\t// in\n    tag_225:\n        /* \"contracts/MasterChef.sol\":4779:4861  uint256 reward = (multiplier * rewardPerBlock * pool.allocPoint) / totalAllocPoint */\n      swap1\n      pop\n        /* \"contracts/MasterChef.sol\":4934:4942  lpSupply */\n      dup3\n        /* \"contracts/MasterChef.sol\":4926:4930  1e12 */\n      0xe8d4a51000\n        /* \"contracts/MasterChef.sol\":4917:4923  reward */\n      dup3\n        /* \"contracts/MasterChef.sol\":4917:4930  reward * 1e12 */\n      tag_226\n      swap2\n      swap1\n      tag_126\n      jump\t// in\n    tag_226:\n        /* \"contracts/MasterChef.sol\":4916:4942  (reward * 1e12) / lpSupply */\n      tag_227\n      swap2\n      swap1\n      tag_128\n      jump\t// in\n    tag_227:\n        /* \"contracts/MasterChef.sol\":4896:4913  accRewardPerShare */\n      dup5\n        /* \"contracts/MasterChef.sol\":4896:4942  accRewardPerShare + (reward * 1e12) / lpSupply */\n      tag_228\n      swap2\n      swap1\n      tag_112\n      jump\t// in\n    tag_228:\n        /* \"contracts/MasterChef.sol\":4876:4942  accRewardPerShare = accRewardPerShare + (reward * 1e12) / lpSupply */\n      swap4\n      pop\n        /* \"contracts/MasterChef.sol\":4630:4954  {... */\n      pop\n      pop\n        /* \"contracts/MasterChef.sol\":4572:4954  if (block.number > pool.lastRewardBlock && lpSupply != 0) {... */\n    tag_221:\n        /* \"contracts/MasterChef.sol\":5014:5018  user */\n      dup3\n        /* \"contracts/MasterChef.sol\":5014:5029  user.rewardDebt */\n      0x01\n      add\n      sload\n        /* \"contracts/MasterChef.sol\":5007:5011  1e12 */\n      0xe8d4a51000\n        /* \"contracts/MasterChef.sol\":4986:5003  accRewardPerShare */\n      dup4\n        /* \"contracts/MasterChef.sol\":4972:4976  user */\n      dup6\n        /* \"contracts/MasterChef.sol\":4972:4983  user.amount */\n      0x00\n      add\n      sload\n        /* \"contracts/MasterChef.sol\":4972:5003  user.amount * accRewardPerShare */\n      tag_229\n      swap2\n      swap1\n      tag_126\n      jump\t// in\n    tag_229:\n        /* \"contracts/MasterChef.sol\":4971:5011  (user.amount * accRewardPerShare) / 1e12 */\n      tag_230\n      swap2\n      swap1\n      tag_128\n      jump\t// in\n    tag_230:\n        /* \"contracts/MasterChef.sol\":4971:5029  (user.amount * accRewardPerShare) / 1e12 - user.rewardDebt */\n      tag_231\n      swap2\n      swap1\n      tag_130\n      jump\t// in\n    tag_231:\n        /* \"contracts/MasterChef.sol\":4964:5029  return (user.amount * accRewardPerShare) / 1e12 - user.rewardDebt */\n      swap5\n      pop\n      pop\n      pop\n      pop\n      pop\n        /* \"contracts/MasterChef.sol\":4221:5037  function pendingReward(... */\n      swap3\n      swap2\n      pop\n      pop\n      jump\t// out\n        /* \"contracts/MasterChef.sol\":5045:5876  function deposit(uint256 _pid, uint256 _amount) public {... */\n    tag_93:\n        /* \"contracts/MasterChef.sol\":5111:5132  PoolInfo storage pool */\n      0x00\n        /* \"contracts/MasterChef.sol\":5135:5143  poolInfo */\n      0x06\n        /* \"contracts/MasterChef.sol\":5144:5148  _pid */\n      dup4\n        /* \"contracts/MasterChef.sol\":5135:5149  poolInfo[_pid] */\n      dup2\n      sload\n      dup2\n      lt\n      tag_233\n      jumpi\n      tag_234\n      tag_119\n      jump\t// in\n    tag_234:\n    tag_233:\n      swap1\n      0x00\n      mstore\n      keccak256(0x00, 0x20)\n      swap1\n      0x04\n      mul\n      add\n        /* \"contracts/MasterChef.sol\":5111:5149  PoolInfo storage pool = poolInfo[_pid] */\n      swap1\n      pop\n        /* \"contracts/MasterChef.sol\":5160:5181  UserInfo storage user */\n      0x00\n        /* \"contracts/MasterChef.sol\":5184:5192  userInfo */\n      0x07\n        /* \"contracts/MasterChef.sol\":5184:5198  userInfo[_pid] */\n      0x00\n        /* \"contracts/MasterChef.sol\":5193:5197  _pid */\n      dup6\n        /* \"contracts/MasterChef.sol\":5184:5198  userInfo[_pid] */\n      dup2\n      mstore\n      0x20\n      add\n      swap1\n      dup2\n      mstore\n      0x20\n      add\n      0x00\n      keccak256\n        /* \"contracts/MasterChef.sol\":5184:5210  userInfo[_pid][msg.sender] */\n      0x00\n        /* \"contracts/MasterChef.sol\":5199:5209  msg.sender */\n      caller\n        /* \"contracts/MasterChef.sol\":5184:5210  userInfo[_pid][msg.sender] */\n      0xffffffffffffffffffffffffffffffffffffffff\n      and\n      0xffffffffffffffffffffffffffffffffffffffff\n      and\n      dup2\n      mstore\n      0x20\n      add\n      swap1\n      dup2\n      mstore\n      0x20\n      add\n      0x00\n      keccak256\n        /* \"contracts/MasterChef.sol\":5160:5210  UserInfo storage user = userInfo[_pid][msg.sender] */\n      swap1\n      pop\n        /* \"contracts/MasterChef.sol\":5221:5237  updatePool(_pid) */\n      tag_236\n        /* \"contracts/MasterChef.sol\":5232:5236  _pid */\n      dup5\n        /* \"contracts/MasterChef.sol\":5221:5231  updatePool */\n      tag_56\n        /* \"contracts/MasterChef.sol\":5221:5237  updatePool(_pid) */\n      jump\t// in\n    tag_236:\n        /* \"contracts/MasterChef.sol\":5266:5267  0 */\n      0x00\n        /* \"contracts/MasterChef.sol\":5252:5256  user */\n      dup2\n        /* \"contracts/MasterChef.sol\":5252:5263  user.amount */\n      0x00\n      add\n      sload\n        /* \"contracts/MasterChef.sol\":5252:5267  user.amount > 0 */\n      gt\n        /* \"contracts/MasterChef.sol\":5248:5497  if (user.amount > 0) {... */\n      iszero\n      tag_237\n      jumpi\n        /* \"contracts/MasterChef.sol\":5284:5299  uint256 pending */\n      0x00\n        /* \"contracts/MasterChef.sol\":5350:5354  user */\n      dup2\n        /* \"contracts/MasterChef.sol\":5350:5365  user.rewardDebt */\n      0x01\n      add\n      sload\n        /* \"contracts/MasterChef.sol\":5343:5347  1e12 */\n      0xe8d4a51000\n        /* \"contracts/MasterChef.sol\":5317:5321  pool */\n      dup5\n        /* \"contracts/MasterChef.sol\":5317:5339  pool.accRewardPerShare */\n      0x03\n      add\n      sload\n        /* \"contracts/MasterChef.sol\":5303:5307  user */\n      dup5\n        /* \"contracts/MasterChef.sol\":5303:5314  user.amount */\n      0x00\n      add\n      sload\n        /* \"contracts/MasterChef.sol\":5303:5339  user.amount * pool.accRewardPerShare */\n      tag_238\n      swap2\n      swap1\n      tag_126\n      jump\t// in\n    tag_238:\n        /* \"contracts/MasterChef.sol\":5302:5347  (user.amount * pool.accRewardPerShare) / 1e12 */\n      tag_239\n      swap2\n      swap1\n      tag_128\n      jump\t// in\n    tag_239:\n        /* \"contracts/MasterChef.sol\":5302:5365  (user.amount * pool.accRewardPerShare) / 1e12 - user.rewardDebt */\n      tag_240\n      swap2\n      swap1\n      tag_130\n      jump\t// in\n    tag_240:\n        /* \"contracts/MasterChef.sol\":5284:5365  uint256 pending = (user.amount * pool.accRewardPerShare) / 1e12 - user.rewardDebt */\n      swap1\n      pop\n        /* \"contracts/MasterChef.sol\":5394:5395  0 */\n      0x00\n        /* \"contracts/MasterChef.sol\":5384:5391  pending */\n      dup2\n        /* \"contracts/MasterChef.sol\":5384:5395  pending > 0 */\n      gt\n        /* \"contracts/MasterChef.sol\":5380:5486  if (pending > 0) {... */\n      iszero\n      tag_241\n      jumpi\n        /* \"contracts/MasterChef.sol\":5416:5470  rewardToken.safeTransfer(address(msg.sender), pending) */\n      tag_242\n        /* \"contracts/MasterChef.sol\":5449:5459  msg.sender */\n      caller\n        /* \"contracts/MasterChef.sol\":5462:5469  pending */\n      dup3\n        /* \"contracts/MasterChef.sol\":5416:5427  rewardToken */\n      0x01\n      0x00\n      swap1\n      sload\n      swap1\n      0x0100\n      exp\n      swap1\n      div\n      0xffffffffffffffffffffffffffffffffffffffff\n      and\n        /* \"contracts/MasterChef.sol\":5416:5440  rewardToken.safeTransfer */\n      0xffffffffffffffffffffffffffffffffffffffff\n      and\n      tag_133\n      swap1\n        /* \"contracts/MasterChef.sol\":5416:5470  rewardToken.safeTransfer(address(msg.sender), pending) */\n      swap3\n      swap2\n      swap1\n      0xffffffff\n      and\n      jump\t// in\n    tag_242:\n        /* \"contracts/MasterChef.sol\":5380:5486  if (pending > 0) {... */\n    tag_241:\n        /* \"contracts/MasterChef.sol\":5269:5497  {... */\n      pop\n        /* \"contracts/MasterChef.sol\":5248:5497  if (user.amount > 0) {... */\n    tag_237:\n        /* \"contracts/MasterChef.sol\":5521:5522  0 */\n      0x00\n        /* \"contracts/MasterChef.sol\":5511:5518  _amount */\n      dup4\n        /* \"contracts/MasterChef.sol\":5511:5522  _amount > 0 */\n      gt\n        /* \"contracts/MasterChef.sol\":5507:5745  if (_amount > 0) {... */\n      iszero\n      tag_243\n      jumpi\n        /* \"contracts/MasterChef.sol\":5546:5550  pool */\n      dup2\n        /* \"contracts/MasterChef.sol\":5546:5558  pool.lpToken */\n      0x00\n      add\n      0x00\n      swap1\n      sload\n      swap1\n      0x0100\n      exp\n      swap1\n      div\n      0xffffffffffffffffffffffffffffffffffffffff\n      and\n        /* \"contracts/MasterChef.sol\":5539:5572  IERC20(pool.lpToken).transferFrom */\n      0xffffffffffffffffffffffffffffffffffffffff\n      and\n      0x23b872dd\n        /* \"contracts/MasterChef.sol\":5599:5609  msg.sender */\n      caller\n        /* \"contracts/MasterChef.sol\":5637:5641  this */\n      address\n        /* \"contracts/MasterChef.sol\":5661:5668  _amount */\n      dup7\n        /* \"contracts/MasterChef.sol\":5539:5683  IERC20(pool.lpToken).transferFrom(... */\n      mload(0x40)\n      dup5\n      0xffffffff\n      and\n      0xe0\n      shl\n      dup2\n      mstore\n      0x04\n      add\n      tag_244\n      swap4\n      swap3\n      swap2\n      swap1\n      tag_245\n      jump\t// in\n    tag_244:\n      0x20\n      mload(0x40)\n      dup1\n      dup4\n      sub\n      dup2\n      0x00\n      dup8\n      gas\n      call\n      iszero\n      dup1\n      iszero\n      tag_247\n      jumpi\n      returndatasize\n      0x00\n      dup1\n      returndatacopy\n      revert(0x00, returndatasize)\n    tag_247:\n      pop\n      pop\n      pop\n      pop\n      mload(0x40)\n      returndatasize\n      not(0x1f)\n      0x1f\n      dup3\n      add\n      and\n      dup3\n      add\n      dup1\n      0x40\n      mstore\n      pop\n      dup2\n      add\n      swap1\n      tag_248\n      swap2\n      swap1\n      tag_141\n      jump\t// in\n    tag_248:\n      pop\n        /* \"contracts/MasterChef.sol\":5726:5733  _amount */\n      dup3\n        /* \"contracts/MasterChef.sol\":5712:5716  user */\n      dup2\n        /* \"contracts/MasterChef.sol\":5712:5723  user.amount */\n      0x00\n      add\n      sload\n        /* \"contracts/MasterChef.sol\":5712:5733  user.amount + _amount */\n      tag_249\n      swap2\n      swap1\n      tag_112\n      jump\t// in\n    tag_249:\n        /* \"contracts/MasterChef.sol\":5698:5702  user */\n      dup2\n        /* \"contracts/MasterChef.sol\":5698:5709  user.amount */\n      0x00\n      add\n        /* \"contracts/MasterChef.sol\":5698:5733  user.amount = user.amount + _amount */\n      dup2\n      swap1\n      sstore\n      pop\n        /* \"contracts/MasterChef.sol\":5507:5745  if (_amount > 0) {... */\n    tag_243:\n        /* \"contracts/MasterChef.sol\":5814:5818  1e12 */\n      0xe8d4a51000\n        /* \"contracts/MasterChef.sol\":5788:5792  pool */\n      dup3\n        /* \"contracts/MasterChef.sol\":5788:5810  pool.accRewardPerShare */\n      0x03\n      add\n      sload\n        /* \"contracts/MasterChef.sol\":5774:5778  user */\n      dup3\n        /* \"contracts/MasterChef.sol\":5774:5785  user.amount */\n      0x00\n      add\n      sload\n        /* \"contracts/MasterChef.sol\":5774:5810  user.amount * pool.accRewardPerShare */\n      tag_250\n      swap2\n      swap1\n      tag_126\n      jump\t// in\n    tag_250:\n        /* \"contracts/MasterChef.sol\":5773:5818  (user.amount * pool.accRewardPerShare) / 1e12 */\n      tag_251\n      swap2\n      swap1\n      tag_128\n      jump\t// in\n    tag_251:\n        /* \"contracts/MasterChef.sol\":5755:5759  user */\n      dup2\n        /* \"contracts/MasterChef.sol\":5755:5770  user.rewardDebt */\n      0x01\n      add\n        /* \"contracts/MasterChef.sol\":5755:5818  user.rewardDebt = (user.amount * pool.accRewardPerShare) / 1e12 */\n      dup2\n      swap1\n      sstore\n      pop\n        /* \"contracts/MasterChef.sol\":5854:5858  _pid */\n      dup4\n        /* \"contracts/MasterChef.sol\":5842:5852  msg.sender */\n      caller\n        /* \"contracts/MasterChef.sol\":5834:5868  Deposit(msg.sender, _pid, _amount) */\n      0xffffffffffffffffffffffffffffffffffffffff\n      and\n      0x90890809c654f11d6e72a28fa60149770a0d11ec6c92319d6ceb2bb0a4ea1a15\n        /* \"contracts/MasterChef.sol\":5860:5867  _amount */\n      dup6\n        /* \"contracts/MasterChef.sol\":5834:5868  Deposit(msg.sender, _pid, _amount) */\n      mload(0x40)\n      tag_252\n      swap2\n      swap1\n      tag_30\n      jump\t// in\n    tag_252:\n      mload(0x40)\n      dup1\n      swap2\n      sub\n      swap1\n      log3\n        /* \"contracts/MasterChef.sol\":5100:5876  {... */\n      pop\n      pop\n        /* \"contracts/MasterChef.sol\":5045:5876  function deposit(uint256 _pid, uint256 _amount) public {... */\n      pop\n      pop\n      jump\t// out\n        /* \"@openzeppelin/contracts/access/Ownable.sol\":2081:2279  function transferOwnership(address newOwner) public virtual onlyOwner {... */\n    tag_97:\n        /* \"@openzeppelin/contracts/access/Ownable.sol\":1094:1107  _checkOwner() */\n      tag_254\n        /* \"@openzeppelin/contracts/access/Ownable.sol\":1094:1105  _checkOwner */\n      tag_107\n        /* \"@openzeppelin/contracts/access/Ownable.sol\":1094:1107  _checkOwner() */\n      jump\t// in\n    tag_254:\n        /* \"@openzeppelin/contracts/access/Ownable.sol\":2189:2190  0 */\n      0x00\n        /* \"@openzeppelin/contracts/access/Ownable.sol\":2169:2191  newOwner != address(0) */\n      0xffffffffffffffffffffffffffffffffffffffff\n      and\n        /* \"@openzeppelin/contracts/access/Ownable.sol\":2169:2177  newOwner */\n      dup2\n        /* \"@openzeppelin/contracts/access/Ownable.sol\":2169:2191  newOwner != address(0) */\n      0xffffffffffffffffffffffffffffffffffffffff\n      and\n      sub\n        /* \"@openzeppelin/contracts/access/Ownable.sol\":2161:2234  require(newOwner != address(0), \"Ownable: new owner is the zero address\") */\n      tag_256\n      jumpi\n      mload(0x40)\n      0x08c379a000000000000000000000000000000000000000000000000000000000\n      dup2\n      mstore\n      0x04\n      add\n      tag_257\n      swap1\n      tag_258\n      jump\t// in\n    tag_257:\n      mload(0x40)\n      dup1\n      swap2\n      sub\n      swap1\n      revert\n    tag_256:\n        /* \"@openzeppelin/contracts/access/Ownable.sol\":2244:2272  _transferOwnership(newOwner) */\n      tag_259\n        /* \"@openzeppelin/contracts/access/Ownable.sol\":2263:2271  newOwner */\n      dup2\n        /* \"@openzeppelin/contracts/access/Ownable.sol\":2244:2262  _transferOwnership */\n      tag_199\n        /* \"@openzeppelin/contracts/access/Ownable.sol\":2244:2272  _transferOwnership(newOwner) */\n      jump\t// in\n    tag_259:\n        /* \"@openzeppelin/contracts/access/Ownable.sol\":2081:2279  function transferOwnership(address newOwner) public virtual onlyOwner {... */\n      pop\n      jump\t// out\n        /* \"contracts/MasterChef.sol\":822:847  IERC20 public rewardToken */\n    tag_99:\n      0x01\n      0x00\n      swap1\n      sload\n      swap1\n      0x0100\n      exp\n      swap1\n      div\n      0xffffffffffffffffffffffffffffffffffffffff\n      and\n      dup2\n      jump\t// out\n        /* \"@openzeppelin/contracts/access/Ownable.sol\":1359:1489  function _checkOwner() internal view virtual {... */\n    tag_107:\n        /* \"@openzeppelin/contracts/access/Ownable.sol\":1433:1445  _msgSender() */\n      tag_261\n        /* \"@openzeppelin/contracts/access/Ownable.sol\":1433:1443  _msgSender */\n      tag_262\n        /* \"@openzeppelin/contracts/access/Ownable.sol\":1433:1445  _msgSender() */\n      jump\t// in\n    tag_261:\n        /* \"@openzeppelin/contracts/access/Ownable.sol\":1422:1445  owner() == _msgSender() */\n      0xffffffffffffffffffffffffffffffffffffffff\n      and\n        /* \"@openzeppelin/contracts/access/Ownable.sol\":1422:1429  owner() */\n      tag_263\n        /* \"@openzeppelin/contracts/access/Ownable.sol\":1422:1427  owner */\n      tag_74\n        /* \"@openzeppelin/contracts/access/Ownable.sol\":1422:1429  owner() */\n      jump\t// in\n    tag_263:\n        /* \"@openzeppelin/contracts/access/Ownable.sol\":1422:1445  owner() == _msgSender() */\n      0xffffffffffffffffffffffffffffffffffffffff\n      and\n      eq\n        /* \"@openzeppelin/contracts/access/Ownable.sol\":1414:1482  require(owner() == _msgSender(), \"Ownable: caller is not the owner\") */\n      tag_264\n      jumpi\n      mload(0x40)\n      0x08c379a000000000000000000000000000000000000000000000000000000000\n      dup2\n      mstore\n      0x04\n      add\n      tag_265\n      swap1\n      tag_266\n      jump\t// in\n    tag_265:\n      mload(0x40)\n      dup1\n      swap2\n      sub\n      swap1\n      revert\n    tag_264:\n        /* \"@openzeppelin/contracts/access/Ownable.sol\":1359:1489  function _checkOwner() internal view virtual {... */\n      jump\t// out\n        /* \"@openzeppelin/contracts/token/ERC20/utils/SafeERC20.sol\":763:968  function safeTransfer(... */\n    tag_133:\n        /* \"@openzeppelin/contracts/token/ERC20/utils/SafeERC20.sol\":875:961  _callOptionalReturn(token, abi.encodeWithSelector(token.transfer.selector, to, value)) */\n      tag_268\n        /* \"@openzeppelin/contracts/token/ERC20/utils/SafeERC20.sol\":895:900  token */\n      dup4\n        /* \"@openzeppelin/contracts/token/ERC20/utils/SafeERC20.sol\":925:948  token.transfer.selector */\n      shl(0xe0, 0xa9059cbb)\n        /* \"@openzeppelin/contracts/token/ERC20/utils/SafeERC20.sol\":950:952  to */\n      dup5\n        /* \"@openzeppelin/contracts/token/ERC20/utils/SafeERC20.sol\":954:959  value */\n      dup5\n        /* \"@openzeppelin/contracts/token/ERC20/utils/SafeERC20.sol\":902:960  abi.encodeWithSelector(token.transfer.selector, to, value) */\n      add(0x24, mload(0x40))\n      tag_269\n      swap3\n      swap2\n      swap1\n      tag_137\n      jump\t// in\n    tag_269:\n      mload(0x40)\n      0x20\n      dup2\n      dup4\n      sub\n      sub\n      dup2\n      mstore\n      swap1\n      0x40\n      mstore\n      swap1\n      not(0xffffffffffffffffffffffffffffffffffffffffffffffffffffffff)\n      and\n      0x20\n      dup3\n      add\n      dup1\n      mload\n      0xffffffffffffffffffffffffffffffffffffffffffffffffffffffff\n      dup4\n      dup2\n      dup4\n      and\n      or\n      dup4\n      mstore\n      pop\n      pop\n      pop\n      pop\n        /* \"@openzeppelin/contracts/token/ERC20/utils/SafeERC20.sol\":875:894  _callOptionalReturn */\n      tag_270\n        /* \"@openzeppelin/contracts/token/ERC20/utils/SafeERC20.sol\":875:961  _callOptionalReturn(token, abi.encodeWithSelector(token.transfer.selector, to, value)) */\n      jump\t// in\n    tag_268:\n        /* \"@openzeppelin/contracts/token/ERC20/utils/SafeERC20.sol\":763:968  function safeTransfer(... */\n      pop\n      pop\n      pop\n      jump\t// out\n        /* \"@openzeppelin/contracts/utils/math/SafeMath.sol\":3465:3561  function mul(uint256 a, uint256 b) internal pure returns (uint256) {... */\n    tag_160:\n        /* \"@openzeppelin/contracts/utils/math/SafeMath.sol\":3523:3530  uint256 */\n      0x00\n        /* \"@openzeppelin/contracts/utils/math/SafeMath.sol\":3553:3554  b */\n      dup2\n        /* \"@openzeppelin/contracts/utils/math/SafeMath.sol\":3549:3550  a */\n      dup4\n        /* \"@openzeppelin/contracts/utils/math/SafeMath.sol\":3549:3554  a * b */\n      tag_272\n      swap2\n      swap1\n      tag_126\n      jump\t// in\n    tag_272:\n        /* \"@openzeppelin/contracts/utils/math/SafeMath.sol\":3542:3554  return a * b */\n      swap1\n      pop\n        /* \"@openzeppelin/contracts/utils/math/SafeMath.sol\":3465:3561  function mul(uint256 a, uint256 b) internal pure returns (uint256) {... */\n      swap3\n      swap2\n      pop\n      pop\n      jump\t// out\n        /* \"@openzeppelin/contracts/utils/math/SafeMath.sol\":3850:3946  function div(uint256 a, uint256 b) internal pure returns (uint256) {... */\n    tag_161:\n        /* \"@openzeppelin/contracts/utils/math/SafeMath.sol\":3908:3915  uint256 */\n      0x00\n        /* \"@openzeppelin/contracts/utils/math/SafeMath.sol\":3938:3939  b */\n      dup2\n        /* \"@openzeppelin/contracts/utils/math/SafeMath.sol\":3934:3935  a */\n      dup4\n        /* \"@openzeppelin/contracts/utils/math/SafeMath.sol\":3934:3939  a / b */\n      tag_274\n      swap2\n      swap1\n      tag_128\n      jump\t// in\n    tag_274:\n        /* \"@openzeppelin/contracts/utils/math/SafeMath.sol\":3927:3939  return a / b */\n      swap1\n      pop\n        /* \"@openzeppelin/contracts/utils/math/SafeMath.sol\":3850:3946  function div(uint256 a, uint256 b) internal pure returns (uint256) {... */\n      swap3\n      swap2\n      pop\n      pop\n      jump\t// out\n        /* \"@openzeppelin/contracts/utils/math/SafeMath.sol\":2755:2851  function add(uint256 a, uint256 b) internal pure returns (uint256) {... */\n    tag_165:\n        /* \"@openzeppelin/contracts/utils/math/SafeMath.sol\":2813:2820  uint256 */\n      0x00\n        /* \"@openzeppelin/contracts/utils/math/SafeMath.sol\":2843:2844  b */\n      dup2\n        /* \"@openzeppelin/contracts/utils/math/SafeMath.sol\":2839:2840  a */\n      dup4\n        /* \"@openzeppelin/contracts/utils/math/SafeMath.sol\":2839:2844  a + b */\n      tag_276\n      swap2\n      swap1\n      tag_112\n      jump\t// in\n    tag_276:\n        /* \"@openzeppelin/contracts/utils/math/SafeMath.sol\":2832:2844  return a + b */\n      swap1\n      pop\n        /* \"@openzeppelin/contracts/utils/math/SafeMath.sol\":2755:2851  function add(uint256 a, uint256 b) internal pure returns (uint256) {... */\n      swap3\n      swap2\n      pop\n      pop\n      jump\t// out\n        /* \"@openzeppelin/contracts/access/Ownable.sol\":2433:2620  function _transferOwnership(address newOwner) internal virtual {... */\n    tag_199:\n        /* \"@openzeppelin/contracts/access/Ownable.sol\":2506:2522  address oldOwner */\n      0x00\n        /* \"@openzeppelin/contracts/access/Ownable.sol\":2525:2531  _owner */\n      dup1\n      0x00\n      swap1\n      sload\n      swap1\n      0x0100\n      exp\n      swap1\n      div\n      0xffffffffffffffffffffffffffffffffffffffff\n      and\n        /* \"@openzeppelin/contracts/access/Ownable.sol\":2506:2531  address oldOwner = _owner */\n      swap1\n      pop\n        /* \"@openzeppelin/contracts/access/Ownable.sol\":2550:2558  newOwner */\n      dup2\n        /* \"@openzeppelin/contracts/access/Ownable.sol\":2541:2547  _owner */\n      0x00\n      dup1\n        /* \"@openzeppelin/contracts/access/Ownable.sol\":2541:2558  _owner = newOwner */\n      0x0100\n      exp\n      dup2\n      sload\n      dup2\n      0xffffffffffffffffffffffffffffffffffffffff\n      mul\n      not\n      and\n      swap1\n      dup4\n      0xffffffffffffffffffffffffffffffffffffffff\n      and\n      mul\n      or\n      swap1\n      sstore\n      pop\n        /* \"@openzeppelin/contracts/access/Ownable.sol\":2604:2612  newOwner */\n      dup2\n        /* \"@openzeppelin/contracts/access/Ownable.sol\":2573:2613  OwnershipTransferred(oldOwner, newOwner) */\n      0xffffffffffffffffffffffffffffffffffffffff\n      and\n        /* \"@openzeppelin/contracts/access/Ownable.sol\":2594:2602  oldOwner */\n      dup2\n        /* \"@openzeppelin/contracts/access/Ownable.sol\":2573:2613  OwnershipTransferred(oldOwner, newOwner) */\n      0xffffffffffffffffffffffffffffffffffffffff\n      and\n      0x8be0079c531659141344cd1fd0a4f28419497f9722a3daafe3b4186f6b6457e0\n      mload(0x40)\n      mload(0x40)\n      dup1\n      swap2\n      sub\n      swap1\n      log3\n        /* \"@openzeppelin/contracts/access/Ownable.sol\":2496:2620  {... */\n      pop\n        /* \"@openzeppelin/contracts/access/Ownable.sol\":2433:2620  function _transferOwnership(address newOwner) internal virtual {... */\n      pop\n      jump\t// out\n        /* \"@openzeppelin/contracts/utils/math/SafeMath.sol\":3122:3218  function sub(uint256 a, uint256 b) internal pure returns (uint256) {... */\n    tag_207:\n        /* \"@openzeppelin/contracts/utils/math/SafeMath.sol\":3180:3187  uint256 */\n      0x00\n        /* \"@openzeppelin/contracts/utils/math/SafeMath.sol\":3210:3211  b */\n      dup2\n        /* \"@openzeppelin/contracts/utils/math/SafeMath.sol\":3206:3207  a */\n      dup4\n        /* \"@openzeppelin/contracts/utils/math/SafeMath.sol\":3206:3211  a - b */\n      tag_279\n      swap2\n      swap1\n      tag_130\n      jump\t// in\n    tag_279:\n        /* \"@openzeppelin/contracts/utils/math/SafeMath.sol\":3199:3211  return a - b */\n      swap1\n      pop\n        /* \"@openzeppelin/contracts/utils/math/SafeMath.sol\":3122:3218  function sub(uint256 a, uint256 b) internal pure returns (uint256) {... */\n      swap3\n      swap2\n      pop\n      pop\n      jump\t// out\n        /* \"@openzeppelin/contracts/utils/Context.sol\":640:736  function _msgSender() internal view virtual returns (address) {... */\n    tag_262:\n        /* \"@openzeppelin/contracts/utils/Context.sol\":693:700  address */\n      0x00\n        /* \"@openzeppelin/contracts/utils/Context.sol\":719:729  msg.sender */\n      caller\n        /* \"@openzeppelin/contracts/utils/Context.sol\":712:729  return msg.sender */\n      swap1\n      pop\n        /* \"@openzeppelin/contracts/utils/Context.sol\":640:736  function _msgSender() internal view virtual returns (address) {... */\n      swap1\n      jump\t// out\n        /* \"@openzeppelin/contracts/token/ERC20/utils/SafeERC20.sol\":3747:4453  function _callOptionalReturn(IERC20 token, bytes memory data) private {... */\n    tag_270:\n        /* \"@openzeppelin/contracts/token/ERC20/utils/SafeERC20.sol\":4166:4189  bytes memory returndata */\n      0x00\n        /* \"@openzeppelin/contracts/token/ERC20/utils/SafeERC20.sol\":4192:4261  address(token).functionCall(data, \"SafeERC20: low-level call failed\") */\n      tag_282\n        /* \"@openzeppelin/contracts/token/ERC20/utils/SafeERC20.sol\":4220:4224  data */\n      dup3\n        /* \"@openzeppelin/contracts/token/ERC20/utils/SafeERC20.sol\":4192:4261  address(token).functionCall(data, \"SafeERC20: low-level call failed\") */\n      mload(0x40)\n      dup1\n      0x40\n      add\n      0x40\n      mstore\n      dup1\n      0x20\n      dup2\n      mstore\n      0x20\n      add\n      0x5361666545524332303a206c6f772d6c6576656c2063616c6c206661696c6564\n      dup2\n      mstore\n      pop\n        /* \"@openzeppelin/contracts/token/ERC20/utils/SafeERC20.sol\":4200:4205  token */\n      dup6\n        /* \"@openzeppelin/contracts/token/ERC20/utils/SafeERC20.sol\":4192:4219  address(token).functionCall */\n      0xffffffffffffffffffffffffffffffffffffffff\n      and\n      tag_283\n      swap1\n        /* \"@openzeppelin/contracts/token/ERC20/utils/SafeERC20.sol\":4192:4261  address(token).functionCall(data, \"SafeERC20: low-level call failed\") */\n      swap3\n      swap2\n      swap1\n      0xffffffff\n      and\n      jump\t// in\n    tag_282:\n        /* \"@openzeppelin/contracts/token/ERC20/utils/SafeERC20.sol\":4166:4261  bytes memory returndata = address(token).functionCall(data, \"SafeERC20: low-level call failed\") */\n      swap1\n      pop\n        /* \"@openzeppelin/contracts/token/ERC20/utils/SafeERC20.sol\":4295:4296  0 */\n      0x00\n        /* \"@openzeppelin/contracts/token/ERC20/utils/SafeERC20.sol\":4275:4285  returndata */\n      dup2\n        /* \"@openzeppelin/contracts/token/ERC20/utils/SafeERC20.sol\":4275:4292  returndata.length */\n      mload\n        /* \"@openzeppelin/contracts/token/ERC20/utils/SafeERC20.sol\":4275:4296  returndata.length > 0 */\n      gt\n        /* \"@openzeppelin/contracts/token/ERC20/utils/SafeERC20.sol\":4271:4447  if (returndata.length > 0) {... */\n      iszero\n      tag_284\n      jumpi\n        /* \"@openzeppelin/contracts/token/ERC20/utils/SafeERC20.sol\":4370:4380  returndata */\n      dup1\n        /* \"@openzeppelin/contracts/token/ERC20/utils/SafeERC20.sol\":4359:4389  abi.decode(returndata, (bool)) */\n      dup1\n      0x20\n      add\n      swap1\n      mload\n      dup2\n      add\n      swap1\n      tag_285\n      swap2\n      swap1\n      tag_141\n      jump\t// in\n    tag_285:\n        /* \"@openzeppelin/contracts/token/ERC20/utils/SafeERC20.sol\":4351:4436  require(abi.decode(returndata, (bool)), \"SafeERC20: ERC20 operation did not succeed\") */\n      tag_286\n      jumpi\n      mload(0x40)\n      0x08c379a000000000000000000000000000000000000000000000000000000000\n      dup2\n      mstore\n      0x04\n      add\n      tag_287\n      swap1\n      tag_288\n      jump\t// in\n    tag_287:\n      mload(0x40)\n      dup1\n      swap2\n      sub\n      swap1\n      revert\n    tag_286:\n        /* \"@openzeppelin/contracts/token/ERC20/utils/SafeERC20.sol\":4271:4447  if (returndata.length > 0) {... */\n    tag_284:\n        /* \"@openzeppelin/contracts/token/ERC20/utils/SafeERC20.sol\":3817:4453  {... */\n      pop\n        /* \"@openzeppelin/contracts/token/ERC20/utils/SafeERC20.sol\":3747:4453  function _callOptionalReturn(IERC20 token, bytes memory data) private {... */\n      pop\n      pop\n      jump\t// out\n        /* \"@openzeppelin/contracts/utils/Address.sol\":3873:4096  function functionCall(... */\n    tag_283:\n        /* \"@openzeppelin/contracts/utils/Address.sol\":4006:4018  bytes memory */\n      0x60\n        /* \"@openzeppelin/contracts/utils/Address.sol\":4037:4089  functionCallWithValue(target, data, 0, errorMessage) */\n      tag_290\n        /* \"@openzeppelin/contracts/utils/Address.sol\":4059:4065  target */\n      dup5\n        /* \"@openzeppelin/contracts/utils/Address.sol\":4067:4071  data */\n      dup5\n        /* \"@openzeppelin/contracts/utils/Address.sol\":4073:4074  0 */\n      0x00\n        /* \"@openzeppelin/contracts/utils/Address.sol\":4076:4088  errorMessage */\n      dup6\n        /* \"@openzeppelin/contracts/utils/Address.sol\":4037:4058  functionCallWithValue */\n      tag_291\n        /* \"@openzeppelin/contracts/utils/Address.sol\":4037:4089  functionCallWithValue(target, data, 0, errorMessage) */\n      jump\t// in\n    tag_290:\n        /* \"@openzeppelin/contracts/utils/Address.sol\":4030:4089  return functionCallWithValue(target, data, 0, errorMessage) */\n      swap1\n      pop\n        /* \"@openzeppelin/contracts/utils/Address.sol\":3873:4096  function functionCall(... */\n      swap4\n      swap3\n      pop\n      pop\n      pop\n      jump\t// out\n        /* \"@openzeppelin/contracts/utils/Address.sol\":4960:5406  function functionCallWithValue(... */\n    tag_291:\n        /* \"@openzeppelin/contracts/utils/Address.sol\":5125:5137  bytes memory */\n      0x60\n        /* \"@openzeppelin/contracts/utils/Address.sol\":5182:5187  value */\n      dup3\n        /* \"@openzeppelin/contracts/utils/Address.sol\":5157:5178  address(this).balance */\n      selfbalance\n        /* \"@openzeppelin/contracts/utils/Address.sol\":5157:5187  address(this).balance >= value */\n      lt\n      iszero\n        /* \"@openzeppelin/contracts/utils/Address.sol\":5149:5230  require(address(this).balance >= value, \"Address: insufficient balance for call\") */\n      tag_293\n      jumpi\n      mload(0x40)\n      0x08c379a000000000000000000000000000000000000000000000000000000000\n      dup2\n      mstore\n      0x04\n      add\n      tag_294\n      swap1\n      tag_295\n      jump\t// in\n    tag_294:\n      mload(0x40)\n      dup1\n      swap2\n      sub\n      swap1\n      revert\n    tag_293:\n        /* \"@openzeppelin/contracts/utils/Address.sol\":5241:5253  bool success */\n      0x00\n        /* \"@openzeppelin/contracts/utils/Address.sol\":5255:5278  bytes memory returndata */\n      dup1\n        /* \"@openzeppelin/contracts/utils/Address.sol\":5282:5288  target */\n      dup7\n        /* \"@openzeppelin/contracts/utils/Address.sol\":5282:5293  target.call */\n      0xffffffffffffffffffffffffffffffffffffffff\n      and\n        /* \"@openzeppelin/contracts/utils/Address.sol\":5301:5306  value */\n      dup6\n        /* \"@openzeppelin/contracts/utils/Address.sol\":5308:5312  data */\n      dup8\n        /* \"@openzeppelin/contracts/utils/Address.sol\":5282:5313  target.call{value: value}(data) */\n      mload(0x40)\n      tag_296\n      swap2\n      swap1\n      tag_297\n      jump\t// in\n    tag_296:\n      0x00\n      mload(0x40)\n      dup1\n      dup4\n      sub\n      dup2\n      dup6\n      dup8\n      gas\n      call\n      swap3\n      pop\n      pop\n      pop\n      returndatasize\n      dup1\n      0x00\n      dup2\n      eq\n      tag_300\n      jumpi\n      mload(0x40)\n      swap2\n      pop\n      and(add(returndatasize, 0x3f), not(0x1f))\n      dup3\n      add\n      0x40\n      mstore\n      returndatasize\n      dup3\n      mstore\n      returndatasize\n      0x00\n      0x20\n      dup5\n      add\n      returndatacopy\n      jump(tag_299)\n    tag_300:\n      0x60\n      swap2\n      pop\n    tag_299:\n      pop\n        /* \"@openzeppelin/contracts/utils/Address.sol\":5240:5313  (bool success, bytes memory returndata) = target.call{value: value}(data) */\n      swap2\n      pop\n      swap2\n      pop\n        /* \"@openzeppelin/contracts/utils/Address.sol\":5330:5399  verifyCallResultFromTarget(target, success, returndata, errorMessage) */\n      tag_301\n        /* \"@openzeppelin/contracts/utils/Address.sol\":5357:5363  target */\n      dup8\n        /* \"@openzeppelin/contracts/utils/Address.sol\":5365:5372  success */\n      dup4\n        /* \"@openzeppelin/contracts/utils/Address.sol\":5374:5384  returndata */\n      dup4\n        /* \"@openzeppelin/contracts/utils/Address.sol\":5386:5398  errorMessage */\n      dup8\n        /* \"@openzeppelin/contracts/utils/Address.sol\":5330:5356  verifyCallResultFromTarget */\n      tag_302\n        /* \"@openzeppelin/contracts/utils/Address.sol\":5330:5399  verifyCallResultFromTarget(target, success, returndata, errorMessage) */\n      jump\t// in\n    tag_301:\n        /* \"@openzeppelin/contracts/utils/Address.sol\":5323:5399  return verifyCallResultFromTarget(target, success, returndata, errorMessage) */\n      swap3\n      pop\n      pop\n      pop\n        /* \"@openzeppelin/contracts/utils/Address.sol\":4960:5406  function functionCallWithValue(... */\n      swap5\n      swap4\n      pop\n      pop\n      pop\n      pop\n      jump\t// out\n        /* \"@openzeppelin/contracts/utils/Address.sol\":7466:8094  function verifyCallResultFromTarget(... */\n    tag_302:\n        /* \"@openzeppelin/contracts/utils/Address.sol\":7646:7658  bytes memory */\n      0x60\n        /* \"@openzeppelin/contracts/utils/Address.sol\":7674:7681  success */\n      dup4\n        /* \"@openzeppelin/contracts/utils/Address.sol\":7670:8088  if (success) {... */\n      iszero\n      tag_304\n      jumpi\n        /* \"@openzeppelin/contracts/utils/Address.sol\":7722:7723  0 */\n      0x00\n        /* \"@openzeppelin/contracts/utils/Address.sol\":7701:7711  returndata */\n      dup4\n        /* \"@openzeppelin/contracts/utils/Address.sol\":7701:7718  returndata.length */\n      mload\n        /* \"@openzeppelin/contracts/utils/Address.sol\":7701:7723  returndata.length == 0 */\n      sub\n        /* \"@openzeppelin/contracts/utils/Address.sol\":7697:7983  if (returndata.length == 0) {... */\n      tag_305\n      jumpi\n        /* \"@openzeppelin/contracts/utils/Address.sol\":7916:7934  isContract(target) */\n      tag_306\n        /* \"@openzeppelin/contracts/utils/Address.sol\":7927:7933  target */\n      dup6\n        /* \"@openzeppelin/contracts/utils/Address.sol\":7916:7926  isContract */\n      tag_307\n        /* \"@openzeppelin/contracts/utils/Address.sol\":7916:7934  isContract(target) */\n      jump\t// in\n    tag_306:\n        /* \"@openzeppelin/contracts/utils/Address.sol\":7908:7968  require(isContract(target), \"Address: call to non-contract\") */\n      tag_308\n      jumpi\n      mload(0x40)\n      0x08c379a000000000000000000000000000000000000000000000000000000000\n      dup2\n      mstore\n      0x04\n      add\n      tag_309\n      swap1\n      tag_310\n      jump\t// in\n    tag_309:\n      mload(0x40)\n      dup1\n      swap2\n      sub\n      swap1\n      revert\n    tag_308:\n        /* \"@openzeppelin/contracts/utils/Address.sol\":7697:7983  if (returndata.length == 0) {... */\n    tag_305:\n        /* \"@openzeppelin/contracts/utils/Address.sol\":8003:8013  returndata */\n      dup3\n        /* \"@openzeppelin/contracts/utils/Address.sol\":7996:8013  return returndata */\n      swap1\n      pop\n      jump(tag_303)\n        /* \"@openzeppelin/contracts/utils/Address.sol\":7670:8088  if (success) {... */\n    tag_304:\n        /* \"@openzeppelin/contracts/utils/Address.sol\":8044:8077  _revert(returndata, errorMessage) */\n      tag_312\n        /* \"@openzeppelin/contracts/utils/Address.sol\":8052:8062  returndata */\n      dup4\n        /* \"@openzeppelin/contracts/utils/Address.sol\":8064:8076  errorMessage */\n      dup4\n        /* \"@openzeppelin/contracts/utils/Address.sol\":8044:8051  _revert */\n      tag_313\n        /* \"@openzeppelin/contracts/utils/Address.sol\":8044:8077  _revert(returndata, errorMessage) */\n      jump\t// in\n    tag_312:\n        /* \"@openzeppelin/contracts/utils/Address.sol\":7466:8094  function verifyCallResultFromTarget(... */\n    tag_303:\n      swap5\n      swap4\n      pop\n      pop\n      pop\n      pop\n      jump\t// out\n        /* \"@openzeppelin/contracts/utils/Address.sol\":1175:1495  function isContract(address account) internal view returns (bool) {... */\n    tag_307:\n        /* \"@openzeppelin/contracts/utils/Address.sol\":1235:1239  bool */\n      0x00\n        /* \"@openzeppelin/contracts/utils/Address.sol\":1487:1488  0 */\n      dup1\n        /* \"@openzeppelin/contracts/utils/Address.sol\":1465:1472  account */\n      dup3\n        /* \"@openzeppelin/contracts/utils/Address.sol\":1465:1484  account.code.length */\n      0xffffffffffffffffffffffffffffffffffffffff\n      and\n      extcodesize\n        /* \"@openzeppelin/contracts/utils/Address.sol\":1465:1488  account.code.length > 0 */\n      gt\n        /* \"@openzeppelin/contracts/utils/Address.sol\":1458:1488  return account.code.length > 0 */\n      swap1\n      pop\n        /* \"@openzeppelin/contracts/utils/Address.sol\":1175:1495  function isContract(address account) internal view returns (bool) {... */\n      swap2\n      swap1\n      pop\n      jump\t// out\n        /* \"@openzeppelin/contracts/utils/Address.sol\":8616:9156  function _revert(bytes memory returndata, string memory errorMessage) private pure {... */\n    tag_313:\n        /* \"@openzeppelin/contracts/utils/Address.sol\":8795:8796  0 */\n      0x00\n        /* \"@openzeppelin/contracts/utils/Address.sol\":8775:8785  returndata */\n      dup3\n        /* \"@openzeppelin/contracts/utils/Address.sol\":8775:8792  returndata.length */\n      mload\n        /* \"@openzeppelin/contracts/utils/Address.sol\":8775:8796  returndata.length > 0 */\n      gt\n        /* \"@openzeppelin/contracts/utils/Address.sol\":8771:9150  if (returndata.length > 0) {... */\n      iszero\n      tag_316\n      jumpi\n        /* \"@openzeppelin/contracts/utils/Address.sol\":9003:9013  returndata */\n      dup2\n        /* \"@openzeppelin/contracts/utils/Address.sol\":8997:9014  mload(returndata) */\n      mload\n        /* \"@openzeppelin/contracts/utils/Address.sol\":9059:9074  returndata_size */\n      dup1\n        /* \"@openzeppelin/contracts/utils/Address.sol\":9046:9056  returndata */\n      dup4\n        /* \"@openzeppelin/contracts/utils/Address.sol\":9042:9044  32 */\n      0x20\n        /* \"@openzeppelin/contracts/utils/Address.sol\":9038:9057  add(32, returndata) */\n      add\n        /* \"@openzeppelin/contracts/utils/Address.sol\":9031:9075  revert(add(32, returndata), returndata_size) */\n      revert\n        /* \"@openzeppelin/contracts/utils/Address.sol\":8771:9150  if (returndata.length > 0) {... */\n    tag_316:\n        /* \"@openzeppelin/contracts/utils/Address.sol\":9126:9138  errorMessage */\n      dup1\n        /* \"@openzeppelin/contracts/utils/Address.sol\":9119:9139  revert(errorMessage) */\n      mload(0x40)\n      0x08c379a000000000000000000000000000000000000000000000000000000000\n      dup2\n      mstore\n      0x04\n      add\n      tag_318\n      swap2\n      swap1\n      tag_319\n      jump\t// in\n    tag_318:\n      mload(0x40)\n      dup1\n      swap2\n      sub\n      swap1\n      revert\n        /* \"#utility.yul\":7:84   */\n    tag_320:\n        /* \"#utility.yul\":44:51   */\n      0x00\n        /* \"#utility.yul\":73:78   */\n      dup2\n        /* \"#utility.yul\":62:78   */\n      swap1\n      pop\n        /* \"#utility.yul\":7:84   */\n      swap2\n      swap1\n      pop\n      jump\t// out\n        /* \"#utility.yul\":90:208   */\n    tag_321:\n        /* \"#utility.yul\":177:201   */\n      tag_370\n        /* \"#utility.yul\":195:200   */\n      dup2\n        /* \"#utility.yul\":177:201   */\n      tag_320\n      jump\t// in\n    tag_370:\n        /* \"#utility.yul\":172:175   */\n      dup3\n        /* \"#utility.yul\":165:202   */\n      mstore\n        /* \"#utility.yul\":90:208   */\n      pop\n      pop\n      jump\t// out\n        /* \"#utility.yul\":214:436   */\n    tag_30:\n        /* \"#utility.yul\":307:311   */\n      0x00\n        /* \"#utility.yul\":345:347   */\n      0x20\n        /* \"#utility.yul\":334:343   */\n      dup3\n        /* \"#utility.yul\":330:348   */\n      add\n        /* \"#utility.yul\":322:348   */\n      swap1\n      pop\n        /* \"#utility.yul\":358:429   */\n      tag_372\n        /* \"#utility.yul\":426:427   */\n      0x00\n        /* \"#utility.yul\":415:424   */\n      dup4\n        /* \"#utility.yul\":411:428   */\n      add\n        /* \"#utility.yul\":402:408   */\n      dup5\n        /* \"#utility.yul\":358:429   */\n      tag_321\n      jump\t// in\n    tag_372:\n        /* \"#utility.yul\":214:436   */\n      swap3\n      swap2\n      pop\n      pop\n      jump\t// out\n        /* \"#utility.yul\":523:640   */\n    tag_323:\n        /* \"#utility.yul\":632:633   */\n      0x00\n        /* \"#utility.yul\":629:630   */\n      dup1\n        /* \"#utility.yul\":622:634   */\n      revert\n        /* \"#utility.yul\":769:891   */\n    tag_325:\n        /* \"#utility.yul\":842:866   */\n      tag_377\n        /* \"#utility.yul\":860:865   */\n      dup2\n        /* \"#utility.yul\":842:866   */\n      tag_320\n      jump\t// in\n    tag_377:\n        /* \"#utility.yul\":835:840   */\n      dup2\n        /* \"#utility.yul\":832:867   */\n      eq\n        /* \"#utility.yul\":822:885   */\n      tag_378\n      jumpi\n        /* \"#utility.yul\":881:882   */\n      0x00\n        /* \"#utility.yul\":878:879   */\n      dup1\n        /* \"#utility.yul\":871:883   */\n      revert\n        /* \"#utility.yul\":822:885   */\n    tag_378:\n        /* \"#utility.yul\":769:891   */\n      pop\n      jump\t// out\n        /* \"#utility.yul\":897:1036   */\n    tag_326:\n        /* \"#utility.yul\":943:948   */\n      0x00\n        /* \"#utility.yul\":981:987   */\n      dup2\n        /* \"#utility.yul\":968:988   */\n      calldataload\n        /* \"#utility.yul\":959:988   */\n      swap1\n      pop\n        /* \"#utility.yul\":997:1030   */\n      tag_380\n        /* \"#utility.yul\":1024:1029   */\n      dup2\n        /* \"#utility.yul\":997:1030   */\n      tag_325\n      jump\t// in\n    tag_380:\n        /* \"#utility.yul\":897:1036   */\n      swap3\n      swap2\n      pop\n      pop\n      jump\t// out\n        /* \"#utility.yul\":1042:1371   */\n    tag_33:\n        /* \"#utility.yul\":1101:1107   */\n      0x00\n        /* \"#utility.yul\":1150:1152   */\n      0x20\n        /* \"#utility.yul\":1138:1147   */\n      dup3\n        /* \"#utility.yul\":1129:1136   */\n      dup5\n        /* \"#utility.yul\":1125:1148   */\n      sub\n        /* \"#utility.yul\":1121:1153   */\n      slt\n        /* \"#utility.yul\":1118:1237   */\n      iszero\n      tag_382\n      jumpi\n        /* \"#utility.yul\":1156:1235   */\n      tag_383\n      tag_323\n      jump\t// in\n    tag_383:\n        /* \"#utility.yul\":1118:1237   */\n    tag_382:\n        /* \"#utility.yul\":1276:1277   */\n      0x00\n        /* \"#utility.yul\":1301:1354   */\n      tag_384\n        /* \"#utility.yul\":1346:1353   */\n      dup5\n        /* \"#utility.yul\":1337:1343   */\n      dup3\n        /* \"#utility.yul\":1326:1335   */\n      dup6\n        /* \"#utility.yul\":1322:1344   */\n      add\n        /* \"#utility.yul\":1301:1354   */\n      tag_326\n      jump\t// in\n    tag_384:\n        /* \"#utility.yul\":1291:1354   */\n      swap2\n      pop\n        /* \"#utility.yul\":1247:1364   */\n      pop\n        /* \"#utility.yul\":1042:1371   */\n      swap3\n      swap2\n      pop\n      pop\n      jump\t// out\n        /* \"#utility.yul\":1377:1503   */\n    tag_327:\n        /* \"#utility.yul\":1414:1421   */\n      0x00\n        /* \"#utility.yul\":1454:1496   */\n      0xffffffffffffffffffffffffffffffffffffffff\n        /* \"#utility.yul\":1447:1452   */\n      dup3\n        /* \"#utility.yul\":1443:1497   */\n      and\n        /* \"#utility.yul\":1432:1497   */\n      swap1\n      pop\n        /* \"#utility.yul\":1377:1503   */\n      swap2\n      swap1\n      pop\n      jump\t// out\n        /* \"#utility.yul\":1509:1569   */\n    tag_328:\n        /* \"#utility.yul\":1537:1540   */\n      0x00\n        /* \"#utility.yul\":1558:1563   */\n      dup2\n        /* \"#utility.yul\":1551:1563   */\n      swap1\n      pop\n        /* \"#utility.yul\":1509:1569   */\n      swap2\n      swap1\n      pop\n      jump\t// out\n        /* \"#utility.yul\":1575:1717   */\n    tag_329:\n        /* \"#utility.yul\":1625:1634   */\n      0x00\n        /* \"#utility.yul\":1658:1711   */\n      tag_388\n        /* \"#utility.yul\":1676:1710   */\n      tag_389\n        /* \"#utility.yul\":1685:1709   */\n      tag_390\n        /* \"#utility.yul\":1703:1708   */\n      dup5\n        /* \"#utility.yul\":1685:1709   */\n      tag_327\n      jump\t// in\n    tag_390:\n        /* \"#utility.yul\":1676:1710   */\n      tag_328\n      jump\t// in\n    tag_389:\n        /* \"#utility.yul\":1658:1711   */\n      tag_327\n      jump\t// in\n    tag_388:\n        /* \"#utility.yul\":1645:1711   */\n      swap1\n      pop\n        /* \"#utility.yul\":1575:1717   */\n      swap2\n      swap1\n      pop\n      jump\t// out\n        /* \"#utility.yul\":1723:1849   */\n    tag_330:\n        /* \"#utility.yul\":1773:1782   */\n      0x00\n        /* \"#utility.yul\":1806:1843   */\n      tag_392\n        /* \"#utility.yul\":1837:1842   */\n      dup3\n        /* \"#utility.yul\":1806:1843   */\n      tag_329\n      jump\t// in\n    tag_392:\n        /* \"#utility.yul\":1793:1843   */\n      swap1\n      pop\n        /* \"#utility.yul\":1723:1849   */\n      swap2\n      swap1\n      pop\n      jump\t// out\n        /* \"#utility.yul\":1855:1995   */\n    tag_331:\n        /* \"#utility.yul\":1919:1928   */\n      0x00\n        /* \"#utility.yul\":1952:1989   */\n      tag_394\n        /* \"#utility.yul\":1983:1988   */\n      dup3\n        /* \"#utility.yul\":1952:1989   */\n      tag_330\n      jump\t// in\n    tag_394:\n        /* \"#utility.yul\":1939:1989   */\n      swap1\n      pop\n        /* \"#utility.yul\":1855:1995   */\n      swap2\n      swap1\n      pop\n      jump\t// out\n        /* \"#utility.yul\":2001:2160   */\n    tag_332:\n        /* \"#utility.yul\":2102:2153   */\n      tag_396\n        /* \"#utility.yul\":2147:2152   */\n      dup2\n        /* \"#utility.yul\":2102:2153   */\n      tag_331\n      jump\t// in\n    tag_396:\n        /* \"#utility.yul\":2097:2100   */\n      dup3\n        /* \"#utility.yul\":2090:2154   */\n      mstore\n        /* \"#utility.yul\":2001:2160   */\n      pop\n      pop\n      jump\t// out\n        /* \"#utility.yul\":2166:2747   */\n    tag_36:\n        /* \"#utility.yul\":2357:2361   */\n      0x00\n        /* \"#utility.yul\":2395:2398   */\n      0x80\n        /* \"#utility.yul\":2384:2393   */\n      dup3\n        /* \"#utility.yul\":2380:2399   */\n      add\n        /* \"#utility.yul\":2372:2399   */\n      swap1\n      pop\n        /* \"#utility.yul\":2409:2494   */\n      tag_398\n        /* \"#utility.yul\":2491:2492   */\n      0x00\n        /* \"#utility.yul\":2480:2489   */\n      dup4\n        /* \"#utility.yul\":2476:2493   */\n      add\n        /* \"#utility.yul\":2467:2473   */\n      dup8\n        /* \"#utility.yul\":2409:2494   */\n      tag_332\n      jump\t// in\n    tag_398:\n        /* \"#utility.yul\":2504:2576   */\n      tag_399\n        /* \"#utility.yul\":2572:2574   */\n      0x20\n        /* \"#utility.yul\":2561:2570   */\n      dup4\n        /* \"#utility.yul\":2557:2575   */\n      add\n        /* \"#utility.yul\":2548:2554   */\n      dup7\n        /* \"#utility.yul\":2504:2576   */\n      tag_321\n      jump\t// in\n    tag_399:\n        /* \"#utility.yul\":2586:2658   */\n      tag_400\n        /* \"#utility.yul\":2654:2656   */\n      0x40\n        /* \"#utility.yul\":2643:2652   */\n      dup4\n        /* \"#utility.yul\":2639:2657   */\n      add\n        /* \"#utility.yul\":2630:2636   */\n      dup6\n        /* \"#utility.yul\":2586:2658   */\n      tag_321\n      jump\t// in\n    tag_400:\n        /* \"#utility.yul\":2668:2740   */\n      tag_401\n        /* \"#utility.yul\":2736:2738   */\n      0x60\n        /* \"#utility.yul\":2725:2734   */\n      dup4\n        /* \"#utility.yul\":2721:2739   */\n      add\n        /* \"#utility.yul\":2712:2718   */\n      dup5\n        /* \"#utility.yul\":2668:2740   */\n      tag_321\n      jump\t// in\n    tag_401:\n        /* \"#utility.yul\":2166:2747   */\n      swap6\n      swap5\n      pop\n      pop\n      pop\n      pop\n      pop\n      jump\t// out\n        /* \"#utility.yul\":2753:2849   */\n    tag_333:\n        /* \"#utility.yul\":2790:2797   */\n      0x00\n        /* \"#utility.yul\":2819:2843   */\n      tag_403\n        /* \"#utility.yul\":2837:2842   */\n      dup3\n        /* \"#utility.yul\":2819:2843   */\n      tag_327\n      jump\t// in\n    tag_403:\n        /* \"#utility.yul\":2808:2843   */\n      swap1\n      pop\n        /* \"#utility.yul\":2753:2849   */\n      swap2\n      swap1\n      pop\n      jump\t// out\n        /* \"#utility.yul\":2855:2965   */\n    tag_334:\n        /* \"#utility.yul\":2906:2913   */\n      0x00\n        /* \"#utility.yul\":2935:2959   */\n      tag_405\n        /* \"#utility.yul\":2953:2958   */\n      dup3\n        /* \"#utility.yul\":2935:2959   */\n      tag_333\n      jump\t// in\n    tag_405:\n        /* \"#utility.yul\":2924:2959   */\n      swap1\n      pop\n        /* \"#utility.yul\":2855:2965   */\n      swap2\n      swap1\n      pop\n      jump\t// out\n        /* \"#utility.yul\":2971:3121   */\n    tag_335:\n        /* \"#utility.yul\":3058:3096   */\n      tag_407\n        /* \"#utility.yul\":3090:3095   */\n      dup2\n        /* \"#utility.yul\":3058:3096   */\n      tag_334\n      jump\t// in\n    tag_407:\n        /* \"#utility.yul\":3051:3056   */\n      dup2\n        /* \"#utility.yul\":3048:3097   */\n      eq\n        /* \"#utility.yul\":3038:3115   */\n      tag_408\n      jumpi\n        /* \"#utility.yul\":3111:3112   */\n      0x00\n        /* \"#utility.yul\":3108:3109   */\n      dup1\n        /* \"#utility.yul\":3101:3113   */\n      revert\n        /* \"#utility.yul\":3038:3115   */\n    tag_408:\n        /* \"#utility.yul\":2971:3121   */\n      pop\n      jump\t// out\n        /* \"#utility.yul\":3127:3294   */\n    tag_336:\n        /* \"#utility.yul\":3187:3192   */\n      0x00\n        /* \"#utility.yul\":3225:3231   */\n      dup2\n        /* \"#utility.yul\":3212:3232   */\n      calldataload\n        /* \"#utility.yul\":3203:3232   */\n      swap1\n      pop\n        /* \"#utility.yul\":3241:3288   */\n      tag_410\n        /* \"#utility.yul\":3282:3287   */\n      dup2\n        /* \"#utility.yul\":3241:3288   */\n      tag_335\n      jump\t// in\n    tag_410:\n        /* \"#utility.yul\":3127:3294   */\n      swap3\n      swap2\n      pop\n      pop\n      jump\t// out\n        /* \"#utility.yul\":3300:3390   */\n    tag_337:\n        /* \"#utility.yul\":3334:3341   */\n      0x00\n        /* \"#utility.yul\":3377:3382   */\n      dup2\n        /* \"#utility.yul\":3370:3383   */\n      iszero\n        /* \"#utility.yul\":3363:3384   */\n      iszero\n        /* \"#utility.yul\":3352:3384   */\n      swap1\n      pop\n        /* \"#utility.yul\":3300:3390   */\n      swap2\n      swap1\n      pop\n      jump\t// out\n        /* \"#utility.yul\":3396:3512   */\n    tag_338:\n        /* \"#utility.yul\":3466:3487   */\n      tag_413\n        /* \"#utility.yul\":3481:3486   */\n      dup2\n        /* \"#utility.yul\":3466:3487   */\n      tag_337\n      jump\t// in\n    tag_413:\n        /* \"#utility.yul\":3459:3464   */\n      dup2\n        /* \"#utility.yul\":3456:3488   */\n      eq\n        /* \"#utility.yul\":3446:3506   */\n      tag_414\n      jumpi\n        /* \"#utility.yul\":3502:3503   */\n      0x00\n        /* \"#utility.yul\":3499:3500   */\n      dup1\n        /* \"#utility.yul\":3492:3504   */\n      revert\n        /* \"#utility.yul\":3446:3506   */\n    tag_414:\n        /* \"#utility.yul\":3396:3512   */\n      pop\n      jump\t// out\n        /* \"#utility.yul\":3518:3651   */\n    tag_339:\n        /* \"#utility.yul\":3561:3566   */\n      0x00\n        /* \"#utility.yul\":3599:3605   */\n      dup2\n        /* \"#utility.yul\":3586:3606   */\n      calldataload\n        /* \"#utility.yul\":3577:3606   */\n      swap1\n      pop\n        /* \"#utility.yul\":3615:3645   */\n      tag_416\n        /* \"#utility.yul\":3639:3644   */\n      dup2\n        /* \"#utility.yul\":3615:3645   */\n      tag_338\n      jump\t// in\n    tag_416:\n        /* \"#utility.yul\":3518:3651   */\n      swap3\n      swap2\n      pop\n      pop\n      jump\t// out\n        /* \"#utility.yul\":3657:4298   */\n    tag_45:\n        /* \"#utility.yul\":3745:3751   */\n      0x00\n        /* \"#utility.yul\":3753:3759   */\n      dup1\n        /* \"#utility.yul\":3761:3767   */\n      0x00\n        /* \"#utility.yul\":3810:3812   */\n      0x60\n        /* \"#utility.yul\":3798:3807   */\n      dup5\n        /* \"#utility.yul\":3789:3796   */\n      dup7\n        /* \"#utility.yul\":3785:3808   */\n      sub\n        /* \"#utility.yul\":3781:3813   */\n      slt\n        /* \"#utility.yul\":3778:3897   */\n      iszero\n      tag_418\n      jumpi\n        /* \"#utility.yul\":3816:3895   */\n      tag_419\n      tag_323\n      jump\t// in\n    tag_419:\n        /* \"#utility.yul\":3778:3897   */\n    tag_418:\n        /* \"#utility.yul\":3936:3937   */\n      0x00\n        /* \"#utility.yul\":3961:4014   */\n      tag_420\n        /* \"#utility.yul\":4006:4013   */\n      dup7\n        /* \"#utility.yul\":3997:4003   */\n      dup3\n        /* \"#utility.yul\":3986:3995   */\n      dup8\n        /* \"#utility.yul\":3982:4004   */\n      add\n        /* \"#utility.yul\":3961:4014   */\n      tag_326\n      jump\t// in\n    tag_420:\n        /* \"#utility.yul\":3951:4014   */\n      swap4\n      pop\n        /* \"#utility.yul\":3907:4024   */\n      pop\n        /* \"#utility.yul\":4063:4065   */\n      0x20\n        /* \"#utility.yul\":4089:4156   */\n      tag_421\n        /* \"#utility.yul\":4148:4155   */\n      dup7\n        /* \"#utility.yul\":4139:4145   */\n      dup3\n        /* \"#utility.yul\":4128:4137   */\n      dup8\n        /* \"#utility.yul\":4124:4146   */\n      add\n        /* \"#utility.yul\":4089:4156   */\n      tag_336\n      jump\t// in\n    tag_421:\n        /* \"#utility.yul\":4079:4156   */\n      swap3\n      pop\n        /* \"#utility.yul\":4034:4166   */\n      pop\n        /* \"#utility.yul\":4205:4207   */\n      0x40\n        /* \"#utility.yul\":4231:4281   */\n      tag_422\n        /* \"#utility.yul\":4273:4280   */\n      dup7\n        /* \"#utility.yul\":4264:4270   */\n      dup3\n        /* \"#utility.yul\":4253:4262   */\n      dup8\n        /* \"#utility.yul\":4249:4271   */\n      add\n        /* \"#utility.yul\":4231:4281   */\n      tag_339\n      jump\t// in\n    tag_422:\n        /* \"#utility.yul\":4221:4281   */\n      swap2\n      pop\n        /* \"#utility.yul\":4176:4291   */\n      pop\n        /* \"#utility.yul\":3657:4298   */\n      swap3\n      pop\n      swap3\n      pop\n      swap3\n      jump\t// out\n        /* \"#utility.yul\":4304:4778   */\n    tag_49:\n        /* \"#utility.yul\":4372:4378   */\n      0x00\n        /* \"#utility.yul\":4380:4386   */\n      dup1\n        /* \"#utility.yul\":4429:4431   */\n      0x40\n        /* \"#utility.yul\":4417:4426   */\n      dup4\n        /* \"#utility.yul\":4408:4415   */\n      dup6\n        /* \"#utility.yul\":4404:4427   */\n      sub\n        /* \"#utility.yul\":4400:4432   */\n      slt\n        /* \"#utility.yul\":4397:4516   */\n      iszero\n      tag_424\n      jumpi\n        /* \"#utility.yul\":4435:4514   */\n      tag_425\n      tag_323\n      jump\t// in\n    tag_425:\n        /* \"#utility.yul\":4397:4516   */\n    tag_424:\n        /* \"#utility.yul\":4555:4556   */\n      0x00\n        /* \"#utility.yul\":4580:4633   */\n      tag_426\n        /* \"#utility.yul\":4625:4632   */\n      dup6\n        /* \"#utility.yul\":4616:4622   */\n      dup3\n        /* \"#utility.yul\":4605:4614   */\n      dup7\n        /* \"#utility.yul\":4601:4623   */\n      add\n        /* \"#utility.yul\":4580:4633   */\n      tag_326\n      jump\t// in\n    tag_426:\n        /* \"#utility.yul\":4570:4633   */\n      swap3\n      pop\n        /* \"#utility.yul\":4526:4643   */\n      pop\n        /* \"#utility.yul\":4682:4684   */\n      0x20\n        /* \"#utility.yul\":4708:4761   */\n      tag_427\n        /* \"#utility.yul\":4753:4760   */\n      dup6\n        /* \"#utility.yul\":4744:4750   */\n      dup3\n        /* \"#utility.yul\":4733:4742   */\n      dup7\n        /* \"#utility.yul\":4729:4751   */\n      add\n        /* \"#utility.yul\":4708:4761   */\n      tag_326\n      jump\t// in\n    tag_427:\n        /* \"#utility.yul\":4698:4761   */\n      swap2\n      pop\n        /* \"#utility.yul\":4653:4771   */\n      pop\n        /* \"#utility.yul\":4304:4778   */\n      swap3\n      pop\n      swap3\n      swap1\n      pop\n      jump\t// out\n        /* \"#utility.yul\":4784:5397   */\n    tag_64:\n        /* \"#utility.yul\":4858:4864   */\n      0x00\n        /* \"#utility.yul\":4866:4872   */\n      dup1\n        /* \"#utility.yul\":4874:4880   */\n      0x00\n        /* \"#utility.yul\":4923:4925   */\n      0x60\n        /* \"#utility.yul\":4911:4920   */\n      dup5\n        /* \"#utility.yul\":4902:4909   */\n      dup7\n        /* \"#utility.yul\":4898:4921   */\n      sub\n        /* \"#utility.yul\":4894:4926   */\n      slt\n        /* \"#utility.yul\":4891:5010   */\n      iszero\n      tag_429\n      jumpi\n        /* \"#utility.yul\":4929:5008   */\n      tag_430\n      tag_323\n      jump\t// in\n    tag_430:\n        /* \"#utility.yul\":4891:5010   */\n    tag_429:\n        /* \"#utility.yul\":5049:5050   */\n      0x00\n        /* \"#utility.yul\":5074:5127   */\n      tag_431\n        /* \"#utility.yul\":5119:5126   */\n      dup7\n        /* \"#utility.yul\":5110:5116   */\n      dup3\n        /* \"#utility.yul\":5099:5108   */\n      dup8\n        /* \"#utility.yul\":5095:5117   */\n      add\n        /* \"#utility.yul\":5074:5127   */\n      tag_326\n      jump\t// in\n    tag_431:\n        /* \"#utility.yul\":5064:5127   */\n      swap4\n      pop\n        /* \"#utility.yul\":5020:5137   */\n      pop\n        /* \"#utility.yul\":5176:5178   */\n      0x20\n        /* \"#utility.yul\":5202:5255   */\n      tag_432\n        /* \"#utility.yul\":5247:5254   */\n      dup7\n        /* \"#utility.yul\":5238:5244   */\n      dup3\n        /* \"#utility.yul\":5227:5236   */\n      dup8\n        /* \"#utility.yul\":5223:5245   */\n      add\n        /* \"#utility.yul\":5202:5255   */\n      tag_326\n      jump\t// in\n    tag_432:\n        /* \"#utility.yul\":5192:5255   */\n      swap3\n      pop\n        /* \"#utility.yul\":5147:5265   */\n      pop\n        /* \"#utility.yul\":5304:5306   */\n      0x40\n        /* \"#utility.yul\":5330:5380   */\n      tag_433\n        /* \"#utility.yul\":5372:5379   */\n      dup7\n        /* \"#utility.yul\":5363:5369   */\n      dup3\n        /* \"#utility.yul\":5352:5361   */\n      dup8\n        /* \"#utility.yul\":5348:5370   */\n      add\n        /* \"#utility.yul\":5330:5380   */\n      tag_339\n      jump\t// in\n    tag_433:\n        /* \"#utility.yul\":5320:5380   */\n      swap2\n      pop\n        /* \"#utility.yul\":5275:5390   */\n      pop\n        /* \"#utility.yul\":4784:5397   */\n      swap3\n      pop\n      swap3\n      pop\n      swap3\n      jump\t// out\n        /* \"#utility.yul\":5403:5521   */\n    tag_340:\n        /* \"#utility.yul\":5490:5514   */\n      tag_435\n        /* \"#utility.yul\":5508:5513   */\n      dup2\n        /* \"#utility.yul\":5490:5514   */\n      tag_333\n      jump\t// in\n    tag_435:\n        /* \"#utility.yul\":5485:5488   */\n      dup3\n        /* \"#utility.yul\":5478:5515   */\n      mstore\n        /* \"#utility.yul\":5403:5521   */\n      pop\n      pop\n      jump\t// out\n        /* \"#utility.yul\":5527:5749   */\n    tag_76:\n        /* \"#utility.yul\":5620:5624   */\n      0x00\n        /* \"#utility.yul\":5658:5660   */\n      0x20\n        /* \"#utility.yul\":5647:5656   */\n      dup3\n        /* \"#utility.yul\":5643:5661   */\n      add\n        /* \"#utility.yul\":5635:5661   */\n      swap1\n      pop\n        /* \"#utility.yul\":5671:5742   */\n      tag_437\n        /* \"#utility.yul\":5739:5740   */\n      0x00\n        /* \"#utility.yul\":5728:5737   */\n      dup4\n        /* \"#utility.yul\":5724:5741   */\n      add\n        /* \"#utility.yul\":5715:5721   */\n      dup5\n        /* \"#utility.yul\":5671:5742   */\n      tag_340\n      jump\t// in\n    tag_437:\n        /* \"#utility.yul\":5527:5749   */\n      swap3\n      swap2\n      pop\n      pop\n      jump\t// out\n        /* \"#utility.yul\":5755:5877   */\n    tag_341:\n        /* \"#utility.yul\":5828:5852   */\n      tag_439\n        /* \"#utility.yul\":5846:5851   */\n      dup2\n        /* \"#utility.yul\":5828:5852   */\n      tag_333\n      jump\t// in\n    tag_439:\n        /* \"#utility.yul\":5821:5826   */\n      dup2\n        /* \"#utility.yul\":5818:5853   */\n      eq\n        /* \"#utility.yul\":5808:5871   */\n      tag_440\n      jumpi\n        /* \"#utility.yul\":5867:5868   */\n      0x00\n        /* \"#utility.yul\":5864:5865   */\n      dup1\n        /* \"#utility.yul\":5857:5869   */\n      revert\n        /* \"#utility.yul\":5808:5871   */\n    tag_440:\n        /* \"#utility.yul\":5755:5877   */\n      pop\n      jump\t// out\n        /* \"#utility.yul\":5883:6022   */\n    tag_342:\n        /* \"#utility.yul\":5929:5934   */\n      0x00\n        /* \"#utility.yul\":5967:5973   */\n      dup2\n        /* \"#utility.yul\":5954:5974   */\n      calldataload\n        /* \"#utility.yul\":5945:5974   */\n      swap1\n      pop\n        /* \"#utility.yul\":5983:6016   */\n      tag_442\n        /* \"#utility.yul\":6010:6015   */\n      dup2\n        /* \"#utility.yul\":5983:6016   */\n      tag_341\n      jump\t// in\n    tag_442:\n        /* \"#utility.yul\":5883:6022   */\n      swap3\n      swap2\n      pop\n      pop\n      jump\t// out\n        /* \"#utility.yul\":6028:6502   */\n    tag_83:\n        /* \"#utility.yul\":6096:6102   */\n      0x00\n        /* \"#utility.yul\":6104:6110   */\n      dup1\n        /* \"#utility.yul\":6153:6155   */\n      0x40\n        /* \"#utility.yul\":6141:6150   */\n      dup4\n        /* \"#utility.yul\":6132:6139   */\n      dup6\n        /* \"#utility.yul\":6128:6151   */\n      sub\n        /* \"#utility.yul\":6124:6156   */\n      slt\n        /* \"#utility.yul\":6121:6240   */\n      iszero\n      tag_444\n      jumpi\n        /* \"#utility.yul\":6159:6238   */\n      tag_445\n      tag_323\n      jump\t// in\n    tag_445:\n        /* \"#utility.yul\":6121:6240   */\n    tag_444:\n        /* \"#utility.yul\":6279:6280   */\n      0x00\n        /* \"#utility.yul\":6304:6357   */\n      tag_446\n        /* \"#utility.yul\":6349:6356   */\n      dup6\n        /* \"#utility.yul\":6340:6346   */\n      dup3\n        /* \"#utility.yul\":6329:6338   */\n      dup7\n        /* \"#utility.yul\":6325:6347   */\n      add\n        /* \"#utility.yul\":6304:6357   */\n      tag_326\n      jump\t// in\n    tag_446:\n        /* \"#utility.yul\":6294:6357   */\n      swap3\n      pop\n        /* \"#utility.yul\":6250:6367   */\n      pop\n        /* \"#utility.yul\":6406:6408   */\n      0x20\n        /* \"#utility.yul\":6432:6485   */\n      tag_447\n        /* \"#utility.yul\":6477:6484   */\n      dup6\n        /* \"#utility.yul\":6468:6474   */\n      dup3\n        /* \"#utility.yul\":6457:6466   */\n      dup7\n        /* \"#utility.yul\":6453:6475   */\n      add\n        /* \"#utility.yul\":6432:6485   */\n      tag_342\n      jump\t// in\n    tag_447:\n        /* \"#utility.yul\":6422:6485   */\n      swap2\n      pop\n        /* \"#utility.yul\":6377:6495   */\n      pop\n        /* \"#utility.yul\":6028:6502   */\n      swap3\n      pop\n      swap3\n      swap1\n      pop\n      jump\t// out\n        /* \"#utility.yul\":6508:6840   */\n    tag_86:\n        /* \"#utility.yul\":6629:6633   */\n      0x00\n        /* \"#utility.yul\":6667:6669   */\n      0x40\n        /* \"#utility.yul\":6656:6665   */\n      dup3\n        /* \"#utility.yul\":6652:6670   */\n      add\n        /* \"#utility.yul\":6644:6670   */\n      swap1\n      pop\n        /* \"#utility.yul\":6680:6751   */\n      tag_449\n        /* \"#utility.yul\":6748:6749   */\n      0x00\n        /* \"#utility.yul\":6737:6746   */\n      dup4\n        /* \"#utility.yul\":6733:6750   */\n      add\n        /* \"#utility.yul\":6724:6730   */\n      dup6\n        /* \"#utility.yul\":6680:6751   */\n      tag_321\n      jump\t// in\n    tag_449:\n        /* \"#utility.yul\":6761:6833   */\n      tag_450\n        /* \"#utility.yul\":6829:6831   */\n      0x20\n        /* \"#utility.yul\":6818:6827   */\n      dup4\n        /* \"#utility.yul\":6814:6832   */\n      add\n        /* \"#utility.yul\":6805:6811   */\n      dup5\n        /* \"#utility.yul\":6761:6833   */\n      tag_321\n      jump\t// in\n    tag_450:\n        /* \"#utility.yul\":6508:6840   */\n      swap4\n      swap3\n      pop\n      pop\n      pop\n      jump\t// out\n        /* \"#utility.yul\":6846:7175   */\n    tag_96:\n        /* \"#utility.yul\":6905:6911   */\n      0x00\n        /* \"#utility.yul\":6954:6956   */\n      0x20\n        /* \"#utility.yul\":6942:6951   */\n      dup3\n        /* \"#utility.yul\":6933:6940   */\n      dup5\n        /* \"#utility.yul\":6929:6952   */\n      sub\n        /* \"#utility.yul\":6925:6957   */\n      slt\n        /* \"#utility.yul\":6922:7041   */\n      iszero\n      tag_452\n      jumpi\n        /* \"#utility.yul\":6960:7039   */\n      tag_453\n      tag_323\n      jump\t// in\n    tag_453:\n        /* \"#utility.yul\":6922:7041   */\n    tag_452:\n        /* \"#utility.yul\":7080:7081   */\n      0x00\n        /* \"#utility.yul\":7105:7158   */\n      tag_454\n        /* \"#utility.yul\":7150:7157   */\n      dup5\n        /* \"#utility.yul\":7141:7147   */\n      dup3\n        /* \"#utility.yul\":7130:7139   */\n      dup6\n        /* \"#utility.yul\":7126:7148   */\n      add\n        /* \"#utility.yul\":7105:7158   */\n      tag_342\n      jump\t// in\n    tag_454:\n        /* \"#utility.yul\":7095:7158   */\n      swap2\n      pop\n        /* \"#utility.yul\":7051:7168   */\n      pop\n        /* \"#utility.yul\":6846:7175   */\n      swap3\n      swap2\n      pop\n      pop\n      jump\t// out\n        /* \"#utility.yul\":7181:7431   */\n    tag_101:\n        /* \"#utility.yul\":7288:7292   */\n      0x00\n        /* \"#utility.yul\":7326:7328   */\n      0x20\n        /* \"#utility.yul\":7315:7324   */\n      dup3\n        /* \"#utility.yul\":7311:7329   */\n      add\n        /* \"#utility.yul\":7303:7329   */\n      swap1\n      pop\n        /* \"#utility.yul\":7339:7424   */\n      tag_456\n        /* \"#utility.yul\":7421:7422   */\n      0x00\n        /* \"#utility.yul\":7410:7419   */\n      dup4\n        /* \"#utility.yul\":7406:7423   */\n      add\n        /* \"#utility.yul\":7397:7403   */\n      dup5\n        /* \"#utility.yul\":7339:7424   */\n      tag_332\n      jump\t// in\n    tag_456:\n        /* \"#utility.yul\":7181:7431   */\n      swap3\n      swap2\n      pop\n      pop\n      jump\t// out\n        /* \"#utility.yul\":7437:7617   */\n    tag_343:\n        /* \"#utility.yul\":7485:7562   */\n      0x4e487b7100000000000000000000000000000000000000000000000000000000\n        /* \"#utility.yul\":7482:7483   */\n      0x00\n        /* \"#utility.yul\":7475:7563   */\n      mstore\n        /* \"#utility.yul\":7582:7586   */\n      0x11\n        /* \"#utility.yul\":7579:7580   */\n      0x04\n        /* \"#utility.yul\":7572:7587   */\n      mstore\n        /* \"#utility.yul\":7606:7610   */\n      0x24\n        /* \"#utility.yul\":7603:7604   */\n      0x00\n        /* \"#utility.yul\":7596:7611   */\n      revert\n        /* \"#utility.yul\":7623:7814   */\n    tag_112:\n        /* \"#utility.yul\":7663:7666   */\n      0x00\n        /* \"#utility.yul\":7682:7702   */\n      tag_459\n        /* \"#utility.yul\":7700:7701   */\n      dup3\n        /* \"#utility.yul\":7682:7702   */\n      tag_320\n      jump\t// in\n    tag_459:\n        /* \"#utility.yul\":7677:7702   */\n      swap2\n      pop\n        /* \"#utility.yul\":7716:7736   */\n      tag_460\n        /* \"#utility.yul\":7734:7735   */\n      dup4\n        /* \"#utility.yul\":7716:7736   */\n      tag_320\n      jump\t// in\n    tag_460:\n        /* \"#utility.yul\":7711:7736   */\n      swap3\n      pop\n        /* \"#utility.yul\":7759:7760   */\n      dup3\n        /* \"#utility.yul\":7756:7757   */\n      dup3\n        /* \"#utility.yul\":7752:7761   */\n      add\n        /* \"#utility.yul\":7745:7761   */\n      swap1\n      pop\n        /* \"#utility.yul\":7780:7783   */\n      dup1\n        /* \"#utility.yul\":7777:7778   */\n      dup3\n        /* \"#utility.yul\":7774:7784   */\n      gt\n        /* \"#utility.yul\":7771:7807   */\n      iszero\n      tag_461\n      jumpi\n        /* \"#utility.yul\":7787:7805   */\n      tag_462\n      tag_343\n      jump\t// in\n    tag_462:\n        /* \"#utility.yul\":7771:7807   */\n    tag_461:\n        /* \"#utility.yul\":7623:7814   */\n      swap3\n      swap2\n      pop\n      pop\n      jump\t// out\n        /* \"#utility.yul\":7820:8000   */\n    tag_119:\n        /* \"#utility.yul\":7868:7945   */\n      0x4e487b7100000000000000000000000000000000000000000000000000000000\n        /* \"#utility.yul\":7865:7866   */\n      0x00\n        /* \"#utility.yul\":7858:7946   */\n      mstore\n        /* \"#utility.yul\":7965:7969   */\n      0x32\n        /* \"#utility.yul\":7962:7963   */\n      0x04\n        /* \"#utility.yul\":7955:7970   */\n      mstore\n        /* \"#utility.yul\":7989:7993   */\n      0x24\n        /* \"#utility.yul\":7986:7987   */\n      0x00\n        /* \"#utility.yul\":7979:7994   */\n      revert\n        /* \"#utility.yul\":8006:8175   */\n    tag_344:\n        /* \"#utility.yul\":8090:8101   */\n      0x00\n        /* \"#utility.yul\":8124:8130   */\n      dup3\n        /* \"#utility.yul\":8119:8122   */\n      dup3\n        /* \"#utility.yul\":8112:8131   */\n      mstore\n        /* \"#utility.yul\":8164:8168   */\n      0x20\n        /* \"#utility.yul\":8159:8162   */\n      dup3\n        /* \"#utility.yul\":8155:8169   */\n      add\n        /* \"#utility.yul\":8140:8169   */\n      swap1\n      pop\n        /* \"#utility.yul\":8006:8175   */\n      swap3\n      swap2\n      pop\n      pop\n      jump\t// out\n        /* \"#utility.yul\":8181:8351   */\n    tag_345:\n        /* \"#utility.yul\":8321:8343   */\n      0x77697468647261773a206e6f7420656e6f756768000000000000000000000000\n        /* \"#utility.yul\":8317:8318   */\n      0x00\n        /* \"#utility.yul\":8309:8315   */\n      dup3\n        /* \"#utility.yul\":8305:8319   */\n      add\n        /* \"#utility.yul\":8298:8344   */\n      mstore\n        /* \"#utility.yul\":8181:8351   */\n      pop\n      jump\t// out\n        /* \"#utility.yul\":8357:8723   */\n    tag_346:\n        /* \"#utility.yul\":8499:8502   */\n      0x00\n        /* \"#utility.yul\":8520:8587   */\n      tag_467\n        /* \"#utility.yul\":8584:8586   */\n      0x14\n        /* \"#utility.yul\":8579:8582   */\n      dup4\n        /* \"#utility.yul\":8520:8587   */\n      tag_344\n      jump\t// in\n    tag_467:\n        /* \"#utility.yul\":8513:8587   */\n      swap2\n      pop\n        /* \"#utility.yul\":8596:8689   */\n      tag_468\n        /* \"#utility.yul\":8685:8688   */\n      dup3\n        /* \"#utility.yul\":8596:8689   */\n      tag_345\n      jump\t// in\n    tag_468:\n        /* \"#utility.yul\":8714:8716   */\n      0x20\n        /* \"#utility.yul\":8709:8712   */\n      dup3\n        /* \"#utility.yul\":8705:8717   */\n      add\n        /* \"#utility.yul\":8698:8717   */\n      swap1\n      pop\n        /* \"#utility.yul\":8357:8723   */\n      swap2\n      swap1\n      pop\n      jump\t// out\n        /* \"#utility.yul\":8729:9148   */\n    tag_123:\n        /* \"#utility.yul\":8895:8899   */\n      0x00\n        /* \"#utility.yul\":8933:8935   */\n      0x20\n        /* \"#utility.yul\":8922:8931   */\n      dup3\n        /* \"#utility.yul\":8918:8936   */\n      add\n        /* \"#utility.yul\":8910:8936   */\n      swap1\n      pop\n        /* \"#utility.yul\":8982:8991   */\n      dup2\n        /* \"#utility.yul\":8976:8980   */\n      dup2\n        /* \"#utility.yul\":8972:8992   */\n      sub\n        /* \"#utility.yul\":8968:8969   */\n      0x00\n        /* \"#utility.yul\":8957:8966   */\n      dup4\n        /* \"#utility.yul\":8953:8970   */\n      add\n        /* \"#utility.yul\":8946:8993   */\n      mstore\n        /* \"#utility.yul\":9010:9141   */\n      tag_470\n        /* \"#utility.yul\":9136:9140   */\n      dup2\n        /* \"#utility.yul\":9010:9141   */\n      tag_346\n      jump\t// in\n    tag_470:\n        /* \"#utility.yul\":9002:9141   */\n      swap1\n      pop\n        /* \"#utility.yul\":8729:9148   */\n      swap2\n      swap1\n      pop\n      jump\t// out\n        /* \"#utility.yul\":9154:9564   */\n    tag_126:\n        /* \"#utility.yul\":9194:9201   */\n      0x00\n        /* \"#utility.yul\":9217:9237   */\n      tag_472\n        /* \"#utility.yul\":9235:9236   */\n      dup3\n        /* \"#utility.yul\":9217:9237   */\n      tag_320\n      jump\t// in\n    tag_472:\n        /* \"#utility.yul\":9212:9237   */\n      swap2\n      pop\n        /* \"#utility.yul\":9251:9271   */\n      tag_473\n        /* \"#utility.yul\":9269:9270   */\n      dup4\n        /* \"#utility.yul\":9251:9271   */\n      tag_320\n      jump\t// in\n    tag_473:\n        /* \"#utility.yul\":9246:9271   */\n      swap3\n      pop\n        /* \"#utility.yul\":9306:9307   */\n      dup3\n        /* \"#utility.yul\":9303:9304   */\n      dup3\n        /* \"#utility.yul\":9299:9308   */\n      mul\n        /* \"#utility.yul\":9328:9358   */\n      tag_474\n        /* \"#utility.yul\":9346:9357   */\n      dup2\n        /* \"#utility.yul\":9328:9358   */\n      tag_320\n      jump\t// in\n    tag_474:\n        /* \"#utility.yul\":9317:9358   */\n      swap2\n      pop\n        /* \"#utility.yul\":9507:9508   */\n      dup3\n        /* \"#utility.yul\":9498:9505   */\n      dup3\n        /* \"#utility.yul\":9494:9509   */\n      div\n        /* \"#utility.yul\":9491:9492   */\n      dup5\n        /* \"#utility.yul\":9488:9510   */\n      eq\n        /* \"#utility.yul\":9468:9469   */\n      dup4\n        /* \"#utility.yul\":9461:9470   */\n      iszero\n        /* \"#utility.yul\":9441:9524   */\n      or\n        /* \"#utility.yul\":9418:9557   */\n      tag_475\n      jumpi\n        /* \"#utility.yul\":9537:9555   */\n      tag_476\n      tag_343\n      jump\t// in\n    tag_476:\n        /* \"#utility.yul\":9418:9557   */\n    tag_475:\n        /* \"#utility.yul\":9202:9564   */\n      pop\n        /* \"#utility.yul\":9154:9564   */\n      swap3\n      swap2\n      pop\n      pop\n      jump\t// out\n        /* \"#utility.yul\":9570:9750   */\n    tag_347:\n        /* \"#utility.yul\":9618:9695   */\n      0x4e487b7100000000000000000000000000000000000000000000000000000000\n        /* \"#utility.yul\":9615:9616   */\n      0x00\n        /* \"#utility.yul\":9608:9696   */\n      mstore\n        /* \"#utility.yul\":9715:9719   */\n      0x12\n        /* \"#utility.yul\":9712:9713   */\n      0x04\n        /* \"#utility.yul\":9705:9720   */\n      mstore\n        /* \"#utility.yul\":9739:9743   */\n      0x24\n        /* \"#utility.yul\":9736:9737   */\n      0x00\n        /* \"#utility.yul\":9729:9744   */\n      revert\n        /* \"#utility.yul\":9756:9941   */\n    tag_128:\n        /* \"#utility.yul\":9796:9797   */\n      0x00\n        /* \"#utility.yul\":9813:9833   */\n      tag_479\n        /* \"#utility.yul\":9831:9832   */\n      dup3\n        /* \"#utility.yul\":9813:9833   */\n      tag_320\n      jump\t// in\n    tag_479:\n        /* \"#utility.yul\":9808:9833   */\n      swap2\n      pop\n        /* \"#utility.yul\":9847:9867   */\n      tag_480\n        /* \"#utility.yul\":9865:9866   */\n      dup4\n        /* \"#utility.yul\":9847:9867   */\n      tag_320\n      jump\t// in\n    tag_480:\n        /* \"#utility.yul\":9842:9867   */\n      swap3\n      pop\n        /* \"#utility.yul\":9886:9887   */\n      dup3\n        /* \"#utility.yul\":9876:9911   */\n      tag_481\n      jumpi\n        /* \"#utility.yul\":9891:9909   */\n      tag_482\n      tag_347\n      jump\t// in\n    tag_482:\n        /* \"#utility.yul\":9876:9911   */\n    tag_481:\n        /* \"#utility.yul\":9933:9934   */\n      dup3\n        /* \"#utility.yul\":9930:9931   */\n      dup3\n        /* \"#utility.yul\":9926:9935   */\n      div\n        /* \"#utility.yul\":9921:9935   */\n      swap1\n      pop\n        /* \"#utility.yul\":9756:9941   */\n      swap3\n      swap2\n      pop\n      pop\n      jump\t// out\n        /* \"#utility.yul\":9947:10141   */\n    tag_130:\n        /* \"#utility.yul\":9987:9991   */\n      0x00\n        /* \"#utility.yul\":10007:10027   */\n      tag_484\n        /* \"#utility.yul\":10025:10026   */\n      dup3\n        /* \"#utility.yul\":10007:10027   */\n      tag_320\n      jump\t// in\n    tag_484:\n        /* \"#utility.yul\":10002:10027   */\n      swap2\n      pop\n        /* \"#utility.yul\":10041:10061   */\n      tag_485\n        /* \"#utility.yul\":10059:10060   */\n      dup4\n        /* \"#utility.yul\":10041:10061   */\n      tag_320\n      jump\t// in\n    tag_485:\n        /* \"#utility.yul\":10036:10061   */\n      swap3\n      pop\n        /* \"#utility.yul\":10085:10086   */\n      dup3\n        /* \"#utility.yul\":10082:10083   */\n      dup3\n        /* \"#utility.yul\":10078:10087   */\n      sub\n        /* \"#utility.yul\":10070:10087   */\n      swap1\n      pop\n        /* \"#utility.yul\":10109:10110   */\n      dup2\n        /* \"#utility.yul\":10103:10107   */\n      dup2\n        /* \"#utility.yul\":10100:10111   */\n      gt\n        /* \"#utility.yul\":10097:10134   */\n      iszero\n      tag_486\n      jumpi\n        /* \"#utility.yul\":10114:10132   */\n      tag_487\n      tag_343\n      jump\t// in\n    tag_487:\n        /* \"#utility.yul\":10097:10134   */\n    tag_486:\n        /* \"#utility.yul\":9947:10141   */\n      swap3\n      swap2\n      pop\n      pop\n      jump\t// out\n        /* \"#utility.yul\":10147:10479   */\n    tag_137:\n        /* \"#utility.yul\":10268:10272   */\n      0x00\n        /* \"#utility.yul\":10306:10308   */\n      0x40\n        /* \"#utility.yul\":10295:10304   */\n      dup3\n        /* \"#utility.yul\":10291:10309   */\n      add\n        /* \"#utility.yul\":10283:10309   */\n      swap1\n      pop\n        /* \"#utility.yul\":10319:10390   */\n      tag_489\n        /* \"#utility.yul\":10387:10388   */\n      0x00\n        /* \"#utility.yul\":10376:10385   */\n      dup4\n        /* \"#utility.yul\":10372:10389   */\n      add\n        /* \"#utility.yul\":10363:10369   */\n      dup6\n        /* \"#utility.yul\":10319:10390   */\n      tag_340\n      jump\t// in\n    tag_489:\n        /* \"#utility.yul\":10400:10472   */\n      tag_490\n        /* \"#utility.yul\":10468:10470   */\n      0x20\n        /* \"#utility.yul\":10457:10466   */\n      dup4\n        /* \"#utility.yul\":10453:10471   */\n      add\n        /* \"#utility.yul\":10444:10450   */\n      dup5\n        /* \"#utility.yul\":10400:10472   */\n      tag_321\n      jump\t// in\n    tag_490:\n        /* \"#utility.yul\":10147:10479   */\n      swap4\n      swap3\n      pop\n      pop\n      pop\n      jump\t// out\n        /* \"#utility.yul\":10485:10622   */\n    tag_348:\n        /* \"#utility.yul\":10539:10544   */\n      0x00\n        /* \"#utility.yul\":10570:10576   */\n      dup2\n        /* \"#utility.yul\":10564:10577   */\n      mload\n        /* \"#utility.yul\":10555:10577   */\n      swap1\n      pop\n        /* \"#utility.yul\":10586:10616   */\n      tag_492\n        /* \"#utility.yul\":10610:10615   */\n      dup2\n        /* \"#utility.yul\":10586:10616   */\n      tag_338\n      jump\t// in\n    tag_492:\n        /* \"#utility.yul\":10485:10622   */\n      swap3\n      swap2\n      pop\n      pop\n      jump\t// out\n        /* \"#utility.yul\":10628:10973   */\n    tag_141:\n        /* \"#utility.yul\":10695:10701   */\n      0x00\n        /* \"#utility.yul\":10744:10746   */\n      0x20\n        /* \"#utility.yul\":10732:10741   */\n      dup3\n        /* \"#utility.yul\":10723:10730   */\n      dup5\n        /* \"#utility.yul\":10719:10742   */\n      sub\n        /* \"#utility.yul\":10715:10747   */\n      slt\n        /* \"#utility.yul\":10712:10831   */\n      iszero\n      tag_494\n      jumpi\n        /* \"#utility.yul\":10750:10829   */\n      tag_495\n      tag_323\n      jump\t// in\n    tag_495:\n        /* \"#utility.yul\":10712:10831   */\n    tag_494:\n        /* \"#utility.yul\":10870:10871   */\n      0x00\n        /* \"#utility.yul\":10895:10956   */\n      tag_496\n        /* \"#utility.yul\":10948:10955   */\n      dup5\n        /* \"#utility.yul\":10939:10945   */\n      dup3\n        /* \"#utility.yul\":10928:10937   */\n      dup6\n        /* \"#utility.yul\":10924:10946   */\n      add\n        /* \"#utility.yul\":10895:10956   */\n      tag_348\n      jump\t// in\n    tag_496:\n        /* \"#utility.yul\":10885:10956   */\n      swap2\n      pop\n        /* \"#utility.yul\":10841:10966   */\n      pop\n        /* \"#utility.yul\":10628:10973   */\n      swap3\n      swap2\n      pop\n      pop\n      jump\t// out\n        /* \"#utility.yul\":10979:11122   */\n    tag_349:\n        /* \"#utility.yul\":11036:11041   */\n      0x00\n        /* \"#utility.yul\":11067:11073   */\n      dup2\n        /* \"#utility.yul\":11061:11074   */\n      mload\n        /* \"#utility.yul\":11052:11074   */\n      swap1\n      pop\n        /* \"#utility.yul\":11083:11116   */\n      tag_498\n        /* \"#utility.yul\":11110:11115   */\n      dup2\n        /* \"#utility.yul\":11083:11116   */\n      tag_325\n      jump\t// in\n    tag_498:\n        /* \"#utility.yul\":10979:11122   */\n      swap3\n      swap2\n      pop\n      pop\n      jump\t// out\n        /* \"#utility.yul\":11128:11479   */\n    tag_154:\n        /* \"#utility.yul\":11198:11204   */\n      0x00\n        /* \"#utility.yul\":11247:11249   */\n      0x20\n        /* \"#utility.yul\":11235:11244   */\n      dup3\n        /* \"#utility.yul\":11226:11233   */\n      dup5\n        /* \"#utility.yul\":11222:11245   */\n      sub\n        /* \"#utility.yul\":11218:11250   */\n      slt\n        /* \"#utility.yul\":11215:11334   */\n      iszero\n      tag_500\n      jumpi\n        /* \"#utility.yul\":11253:11332   */\n      tag_501\n      tag_323\n      jump\t// in\n    tag_501:\n        /* \"#utility.yul\":11215:11334   */\n    tag_500:\n        /* \"#utility.yul\":11373:11374   */\n      0x00\n        /* \"#utility.yul\":11398:11462   */\n      tag_502\n        /* \"#utility.yul\":11454:11461   */\n      dup5\n        /* \"#utility.yul\":11445:11451   */\n      dup3\n        /* \"#utility.yul\":11434:11443   */\n      dup6\n        /* \"#utility.yul\":11430:11452   */\n      add\n        /* \"#utility.yul\":11398:11462   */\n      tag_349\n      jump\t// in\n    tag_502:\n        /* \"#utility.yul\":11388:11462   */\n      swap2\n      pop\n        /* \"#utility.yul\":11344:11472   */\n      pop\n        /* \"#utility.yul\":11128:11479   */\n      swap3\n      swap2\n      pop\n      pop\n      jump\t// out\n        /* \"#utility.yul\":11485:11718   */\n    tag_181:\n        /* \"#utility.yul\":11524:11527   */\n      0x00\n        /* \"#utility.yul\":11547:11571   */\n      tag_504\n        /* \"#utility.yul\":11565:11570   */\n      dup3\n        /* \"#utility.yul\":11547:11571   */\n      tag_320\n      jump\t// in\n    tag_504:\n        /* \"#utility.yul\":11538:11571   */\n      swap2\n      pop\n        /* \"#utility.yul\":11593:11659   */\n      0xffffffffffffffffffffffffffffffffffffffffffffffffffffffffffffffff\n        /* \"#utility.yul\":11586:11591   */\n      dup3\n        /* \"#utility.yul\":11583:11660   */\n      sub\n        /* \"#utility.yul\":11580:11683   */\n      tag_505\n      jumpi\n        /* \"#utility.yul\":11663:11681   */\n      tag_506\n      tag_343\n      jump\t// in\n    tag_506:\n        /* \"#utility.yul\":11580:11683   */\n    tag_505:\n        /* \"#utility.yul\":11710:11711   */\n      0x01\n        /* \"#utility.yul\":11703:11708   */\n      dup3\n        /* \"#utility.yul\":11699:11712   */\n      add\n        /* \"#utility.yul\":11692:11712   */\n      swap1\n      pop\n        /* \"#utility.yul\":11485:11718   */\n      swap2\n      swap1\n      pop\n      jump\t// out\n        /* \"#utility.yul\":11724:12166   */\n    tag_245:\n        /* \"#utility.yul\":11873:11877   */\n      0x00\n        /* \"#utility.yul\":11911:11913   */\n      0x60\n        /* \"#utility.yul\":11900:11909   */\n      dup3\n        /* \"#utility.yul\":11896:11914   */\n      add\n        /* \"#utility.yul\":11888:11914   */\n      swap1\n      pop\n        /* \"#utility.yul\":11924:11995   */\n      tag_508\n        /* \"#utility.yul\":11992:11993   */\n      0x00\n        /* \"#utility.yul\":11981:11990   */\n      dup4\n        /* \"#utility.yul\":11977:11994   */\n      add\n        /* \"#utility.yul\":11968:11974   */\n      dup7\n        /* \"#utility.yul\":11924:11995   */\n      tag_340\n      jump\t// in\n    tag_508:\n        /* \"#utility.yul\":12005:12077   */\n      tag_509\n        /* \"#utility.yul\":12073:12075   */\n      0x20\n        /* \"#utility.yul\":12062:12071   */\n      dup4\n        /* \"#utility.yul\":12058:12076   */\n      add\n        /* \"#utility.yul\":12049:12055   */\n      dup6\n        /* \"#utility.yul\":12005:12077   */\n      tag_340\n      jump\t// in\n    tag_509:\n        /* \"#utility.yul\":12087:12159   */\n      tag_510\n        /* \"#utility.yul\":12155:12157   */\n      0x40\n        /* \"#utility.yul\":12144:12153   */\n      dup4\n        /* \"#utility.yul\":12140:12158   */\n      add\n        /* \"#utility.yul\":12131:12137   */\n      dup5\n        /* \"#utility.yul\":12087:12159   */\n      tag_321\n      jump\t// in\n    tag_510:\n        /* \"#utility.yul\":11724:12166   */\n      swap5\n      swap4\n      pop\n      pop\n      pop\n      pop\n      jump\t// out\n        /* \"#utility.yul\":12172:12397   */\n    tag_350:\n        /* \"#utility.yul\":12312:12346   */\n      0x4f776e61626c653a206e6577206f776e657220697320746865207a65726f2061\n        /* \"#utility.yul\":12308:12309   */\n      0x00\n        /* \"#utility.yul\":12300:12306   */\n      dup3\n        /* \"#utility.yul\":12296:12310   */\n      add\n        /* \"#utility.yul\":12289:12347   */\n      mstore\n        /* \"#utility.yul\":12381:12389   */\n      0x6464726573730000000000000000000000000000000000000000000000000000\n        /* \"#utility.yul\":12376:12378   */\n      0x20\n        /* \"#utility.yul\":12368:12374   */\n      dup3\n        /* \"#utility.yul\":12364:12379   */\n      add\n        /* \"#utility.yul\":12357:12390   */\n      mstore\n        /* \"#utility.yul\":12172:12397   */\n      pop\n      jump\t// out\n        /* \"#utility.yul\":12403:12769   */\n    tag_351:\n        /* \"#utility.yul\":12545:12548   */\n      0x00\n        /* \"#utility.yul\":12566:12633   */\n      tag_513\n        /* \"#utility.yul\":12630:12632   */\n      0x26\n        /* \"#utility.yul\":12625:12628   */\n      dup4\n        /* \"#utility.yul\":12566:12633   */\n      tag_344\n      jump\t// in\n    tag_513:\n        /* \"#utility.yul\":12559:12633   */\n      swap2\n      pop\n        /* \"#utility.yul\":12642:12735   */\n      tag_514\n        /* \"#utility.yul\":12731:12734   */\n      dup3\n        /* \"#utility.yul\":12642:12735   */\n      tag_350\n      jump\t// in\n    tag_514:\n        /* \"#utility.yul\":12760:12762   */\n      0x40\n        /* \"#utility.yul\":12755:12758   */\n      dup3\n        /* \"#utility.yul\":12751:12763   */\n      add\n        /* \"#utility.yul\":12744:12763   */\n      swap1\n      pop\n        /* \"#utility.yul\":12403:12769   */\n      swap2\n      swap1\n      pop\n      jump\t// out\n        /* \"#utility.yul\":12775:13194   */\n    tag_258:\n        /* \"#utility.yul\":12941:12945   */\n      0x00\n        /* \"#utility.yul\":12979:12981   */\n      0x20\n        /* \"#utility.yul\":12968:12977   */\n      dup3\n        /* \"#utility.yul\":12964:12982   */\n      add\n        /* \"#utility.yul\":12956:12982   */\n      swap1\n      pop\n        /* \"#utility.yul\":13028:13037   */\n      dup2\n        /* \"#utility.yul\":13022:13026   */\n      dup2\n        /* \"#utility.yul\":13018:13038   */\n      sub\n        /* \"#utility.yul\":13014:13015   */\n      0x00\n        /* \"#utility.yul\":13003:13012   */\n      dup4\n        /* \"#utility.yul\":12999:13016   */\n      add\n        /* \"#utility.yul\":12992:13039   */\n      mstore\n        /* \"#utility.yul\":13056:13187   */\n      tag_516\n        /* \"#utility.yul\":13182:13186   */\n      dup2\n        /* \"#utility.yul\":13056:13187   */\n      tag_351\n      jump\t// in\n    tag_516:\n        /* \"#utility.yul\":13048:13187   */\n      swap1\n      pop\n        /* \"#utility.yul\":12775:13194   */\n      swap2\n      swap1\n      pop\n      jump\t// out\n        /* \"#utility.yul\":13200:13382   */\n    tag_352:\n        /* \"#utility.yul\":13340:13374   */\n      0x4f776e61626c653a2063616c6c6572206973206e6f7420746865206f776e6572\n        /* \"#utility.yul\":13336:13337   */\n      0x00\n        /* \"#utility.yul\":13328:13334   */\n      dup3\n        /* \"#utility.yul\":13324:13338   */\n      add\n        /* \"#utility.yul\":13317:13375   */\n      mstore\n        /* \"#utility.yul\":13200:13382   */\n      pop\n      jump\t// out\n        /* \"#utility.yul\":13388:13754   */\n    tag_353:\n        /* \"#utility.yul\":13530:13533   */\n      0x00\n        /* \"#utility.yul\":13551:13618   */\n      tag_519\n        /* \"#utility.yul\":13615:13617   */\n      0x20\n        /* \"#utility.yul\":13610:13613   */\n      dup4\n        /* \"#utility.yul\":13551:13618   */\n      tag_344\n      jump\t// in\n    tag_519:\n        /* \"#utility.yul\":13544:13618   */\n      swap2\n      pop\n        /* \"#utility.yul\":13627:13720   */\n      tag_520\n        /* \"#utility.yul\":13716:13719   */\n      dup3\n        /* \"#utility.yul\":13627:13720   */\n      tag_352\n      jump\t// in\n    tag_520:\n        /* \"#utility.yul\":13745:13747   */\n      0x20\n        /* \"#utility.yul\":13740:13743   */\n      dup3\n        /* \"#utility.yul\":13736:13748   */\n      add\n        /* \"#utility.yul\":13729:13748   */\n      swap1\n      pop\n        /* \"#utility.yul\":13388:13754   */\n      swap2\n      swap1\n      pop\n      jump\t// out\n        /* \"#utility.yul\":13760:14179   */\n    tag_266:\n        /* \"#utility.yul\":13926:13930   */\n      0x00\n        /* \"#utility.yul\":13964:13966   */\n      0x20\n        /* \"#utility.yul\":13953:13962   */\n      dup3\n        /* \"#utility.yul\":13949:13967   */\n      add\n        /* \"#utility.yul\":13941:13967   */\n      swap1\n      pop\n        /* \"#utility.yul\":14013:14022   */\n      dup2\n        /* \"#utility.yul\":14007:14011   */\n      dup2\n        /* \"#utility.yul\":14003:14023   */\n      sub\n        /* \"#utility.yul\":13999:14000   */\n      0x00\n        /* \"#utility.yul\":13988:13997   */\n      dup4\n        /* \"#utility.yul\":13984:14001   */\n      add\n        /* \"#utility.yul\":13977:14024   */\n      mstore\n        /* \"#utility.yul\":14041:14172   */\n      tag_522\n        /* \"#utility.yul\":14167:14171   */\n      dup2\n        /* \"#utility.yul\":14041:14172   */\n      tag_353\n      jump\t// in\n    tag_522:\n        /* \"#utility.yul\":14033:14172   */\n      swap1\n      pop\n        /* \"#utility.yul\":13760:14179   */\n      swap2\n      swap1\n      pop\n      jump\t// out\n        /* \"#utility.yul\":14185:14414   */\n    tag_354:\n        /* \"#utility.yul\":14325:14359   */\n      0x5361666545524332303a204552433230206f7065726174696f6e20646964206e\n        /* \"#utility.yul\":14321:14322   */\n      0x00\n        /* \"#utility.yul\":14313:14319   */\n      dup3\n        /* \"#utility.yul\":14309:14323   */\n      add\n        /* \"#utility.yul\":14302:14360   */\n      mstore\n        /* \"#utility.yul\":14394:14406   */\n      0x6f74207375636365656400000000000000000000000000000000000000000000\n        /* \"#utility.yul\":14389:14391   */\n      0x20\n        /* \"#utility.yul\":14381:14387   */\n      dup3\n        /* \"#utility.yul\":14377:14392   */\n      add\n        /* \"#utility.yul\":14370:14407   */\n      mstore\n        /* \"#utility.yul\":14185:14414   */\n      pop\n      jump\t// out\n        /* \"#utility.yul\":14420:14786   */\n    tag_355:\n        /* \"#utility.yul\":14562:14565   */\n      0x00\n        /* \"#utility.yul\":14583:14650   */\n      tag_525\n        /* \"#utility.yul\":14647:14649   */\n      0x2a\n        /* \"#utility.yul\":14642:14645   */\n      dup4\n        /* \"#utility.yul\":14583:14650   */\n      tag_344\n      jump\t// in\n    tag_525:\n        /* \"#utility.yul\":14576:14650   */\n      swap2\n      pop\n        /* \"#utility.yul\":14659:14752   */\n      tag_526\n        /* \"#utility.yul\":14748:14751   */\n      dup3\n        /* \"#utility.yul\":14659:14752   */\n      tag_354\n      jump\t// in\n    tag_526:\n        /* \"#utility.yul\":14777:14779   */\n      0x40\n        /* \"#utility.yul\":14772:14775   */\n      dup3\n        /* \"#utility.yul\":14768:14780   */\n      add\n        /* \"#utility.yul\":14761:14780   */\n      swap1\n      pop\n        /* \"#utility.yul\":14420:14786   */\n      swap2\n      swap1\n      pop\n      jump\t// out\n        /* \"#utility.yul\":14792:15211   */\n    tag_288:\n        /* \"#utility.yul\":14958:14962   */\n      0x00\n        /* \"#utility.yul\":14996:14998   */\n      0x20\n        /* \"#utility.yul\":14985:14994   */\n      dup3\n        /* \"#utility.yul\":14981:14999   */\n      add\n        /* \"#utility.yul\":14973:14999   */\n      swap1\n      pop\n        /* \"#utility.yul\":15045:15054   */\n      dup2\n        /* \"#utility.yul\":15039:15043   */\n      dup2\n        /* \"#utility.yul\":15035:15055   */\n      sub\n        /* \"#utility.yul\":15031:15032   */\n      0x00\n        /* \"#utility.yul\":15020:15029   */\n      dup4\n        /* \"#utility.yul\":15016:15033   */\n      add\n        /* \"#utility.yul\":15009:15056   */\n      mstore\n        /* \"#utility.yul\":15073:15204   */\n      tag_528\n        /* \"#utility.yul\":15199:15203   */\n      dup2\n        /* \"#utility.yul\":15073:15204   */\n      tag_355\n      jump\t// in\n    tag_528:\n        /* \"#utility.yul\":15065:15204   */\n      swap1\n      pop\n        /* \"#utility.yul\":14792:15211   */\n      swap2\n      swap1\n      pop\n      jump\t// out\n        /* \"#utility.yul\":15217:15442   */\n    tag_356:\n        /* \"#utility.yul\":15357:15391   */\n      0x416464726573733a20696e73756666696369656e742062616c616e636520666f\n        /* \"#utility.yul\":15353:15354   */\n      0x00\n        /* \"#utility.yul\":15345:15351   */\n      dup3\n        /* \"#utility.yul\":15341:15355   */\n      add\n        /* \"#utility.yul\":15334:15392   */\n      mstore\n        /* \"#utility.yul\":15426:15434   */\n      0x722063616c6c0000000000000000000000000000000000000000000000000000\n        /* \"#utility.yul\":15421:15423   */\n      0x20\n        /* \"#utility.yul\":15413:15419   */\n      dup3\n        /* \"#utility.yul\":15409:15424   */\n      add\n        /* \"#utility.yul\":15402:15435   */\n      mstore\n        /* \"#utility.yul\":15217:15442   */\n      pop\n      jump\t// out\n        /* \"#utility.yul\":15448:15814   */\n    tag_357:\n        /* \"#utility.yul\":15590:15593   */\n      0x00\n        /* \"#utility.yul\":15611:15678   */\n      tag_531\n        /* \"#utility.yul\":15675:15677   */\n      0x26\n        /* \"#utility.yul\":15670:15673   */\n      dup4\n        /* \"#utility.yul\":15611:15678   */\n      tag_344\n      jump\t// in\n    tag_531:\n        /* \"#utility.yul\":15604:15678   */\n      swap2\n      pop\n        /* \"#utility.yul\":15687:15780   */\n      tag_532\n        /* \"#utility.yul\":15776:15779   */\n      dup3\n        /* \"#utility.yul\":15687:15780   */\n      tag_356\n      jump\t// in\n    tag_532:\n        /* \"#utility.yul\":15805:15807   */\n      0x40\n        /* \"#utility.yul\":15800:15803   */\n      dup3\n        /* \"#utility.yul\":15796:15808   */\n      add\n        /* \"#utility.yul\":15789:15808   */\n      swap1\n      pop\n        /* \"#utility.yul\":15448:15814   */\n      swap2\n      swap1\n      pop\n      jump\t// out\n        /* \"#utility.yul\":15820:16239   */\n    tag_295:\n        /* \"#utility.yul\":15986:15990   */\n      0x00\n        /* \"#utility.yul\":16024:16026   */\n      0x20\n        /* \"#utility.yul\":16013:16022   */\n      dup3\n        /* \"#utility.yul\":16009:16027   */\n      add\n        /* \"#utility.yul\":16001:16027   */\n      swap1\n      pop\n        /* \"#utility.yul\":16073:16082   */\n      dup2\n        /* \"#utility.yul\":16067:16071   */\n      dup2\n        /* \"#utility.yul\":16063:16083   */\n      sub\n        /* \"#utility.yul\":16059:16060   */\n      0x00\n        /* \"#utility.yul\":16048:16057   */\n      dup4\n        /* \"#utility.yul\":16044:16061   */\n      add\n        /* \"#utility.yul\":16037:16084   */\n      mstore\n        /* \"#utility.yul\":16101:16232   */\n      tag_534\n        /* \"#utility.yul\":16227:16231   */\n      dup2\n        /* \"#utility.yul\":16101:16232   */\n      tag_357\n      jump\t// in\n    tag_534:\n        /* \"#utility.yul\":16093:16232   */\n      swap1\n      pop\n        /* \"#utility.yul\":15820:16239   */\n      swap2\n      swap1\n      pop\n      jump\t// out\n        /* \"#utility.yul\":16245:16343   */\n    tag_358:\n        /* \"#utility.yul\":16296:16302   */\n      0x00\n        /* \"#utility.yul\":16330:16335   */\n      dup2\n        /* \"#utility.yul\":16324:16336   */\n      mload\n        /* \"#utility.yul\":16314:16336   */\n      swap1\n      pop\n        /* \"#utility.yul\":16245:16343   */\n      swap2\n      swap1\n      pop\n      jump\t// out\n        /* \"#utility.yul\":16349:16496   */\n    tag_359:\n        /* \"#utility.yul\":16450:16461   */\n      0x00\n        /* \"#utility.yul\":16487:16490   */\n      dup2\n        /* \"#utility.yul\":16472:16490   */\n      swap1\n      pop\n        /* \"#utility.yul\":16349:16496   */\n      swap3\n      swap2\n      pop\n      pop\n      jump\t// out\n        /* \"#utility.yul\":16502:16748   */\n    tag_360:\n        /* \"#utility.yul\":16583:16584   */\n      0x00\n        /* \"#utility.yul\":16593:16706   */\n    tag_538:\n        /* \"#utility.yul\":16607:16613   */\n      dup4\n        /* \"#utility.yul\":16604:16605   */\n      dup2\n        /* \"#utility.yul\":16601:16614   */\n      lt\n        /* \"#utility.yul\":16593:16706   */\n      iszero\n      tag_540\n      jumpi\n        /* \"#utility.yul\":16692:16693   */\n      dup1\n        /* \"#utility.yul\":16687:16690   */\n      dup3\n        /* \"#utility.yul\":16683:16694   */\n      add\n        /* \"#utility.yul\":16677:16695   */\n      mload\n        /* \"#utility.yul\":16673:16674   */\n      dup2\n        /* \"#utility.yul\":16668:16671   */\n      dup5\n        /* \"#utility.yul\":16664:16675   */\n      add\n        /* \"#utility.yul\":16657:16696   */\n      mstore\n        /* \"#utility.yul\":16629:16631   */\n      0x20\n        /* \"#utility.yul\":16626:16627   */\n      dup2\n        /* \"#utility.yul\":16622:16632   */\n      add\n        /* \"#utility.yul\":16617:16632   */\n      swap1\n      pop\n        /* \"#utility.yul\":16593:16706   */\n      jump(tag_538)\n    tag_540:\n        /* \"#utility.yul\":16740:16741   */\n      0x00\n        /* \"#utility.yul\":16731:16737   */\n      dup5\n        /* \"#utility.yul\":16726:16729   */\n      dup5\n        /* \"#utility.yul\":16722:16738   */\n      add\n        /* \"#utility.yul\":16715:16742   */\n      mstore\n        /* \"#utility.yul\":16564:16748   */\n      pop\n        /* \"#utility.yul\":16502:16748   */\n      pop\n      pop\n      pop\n      jump\t// out\n        /* \"#utility.yul\":16754:17140   */\n    tag_361:\n        /* \"#utility.yul\":16858:16861   */\n      0x00\n        /* \"#utility.yul\":16886:16924   */\n      tag_542\n        /* \"#utility.yul\":16918:16923   */\n      dup3\n        /* \"#utility.yul\":16886:16924   */\n      tag_358\n      jump\t// in\n    tag_542:\n        /* \"#utility.yul\":16940:17028   */\n      tag_543\n        /* \"#utility.yul\":17021:17027   */\n      dup2\n        /* \"#utility.yul\":17016:17019   */\n      dup6\n        /* \"#utility.yul\":16940:17028   */\n      tag_359\n      jump\t// in\n    tag_543:\n        /* \"#utility.yul\":16933:17028   */\n      swap4\n      pop\n        /* \"#utility.yul\":17037:17102   */\n      tag_544\n        /* \"#utility.yul\":17095:17101   */\n      dup2\n        /* \"#utility.yul\":17090:17093   */\n      dup6\n        /* \"#utility.yul\":17083:17087   */\n      0x20\n        /* \"#utility.yul\":17076:17081   */\n      dup7\n        /* \"#utility.yul\":17072:17088   */\n      add\n        /* \"#utility.yul\":17037:17102   */\n      tag_360\n      jump\t// in\n    tag_544:\n        /* \"#utility.yul\":17127:17133   */\n      dup1\n        /* \"#utility.yul\":17122:17125   */\n      dup5\n        /* \"#utility.yul\":17118:17134   */\n      add\n        /* \"#utility.yul\":17111:17134   */\n      swap2\n      pop\n        /* \"#utility.yul\":16862:17140   */\n      pop\n        /* \"#utility.yul\":16754:17140   */\n      swap3\n      swap2\n      pop\n      pop\n      jump\t// out\n        /* \"#utility.yul\":17146:17417   */\n    tag_297:\n        /* \"#utility.yul\":17276:17279   */\n      0x00\n        /* \"#utility.yul\":17298:17391   */\n      tag_546\n        /* \"#utility.yul\":17387:17390   */\n      dup3\n        /* \"#utility.yul\":17378:17384   */\n      dup5\n        /* \"#utility.yul\":17298:17391   */\n      tag_361\n      jump\t// in\n    tag_546:\n        /* \"#utility.yul\":17291:17391   */\n      swap2\n      pop\n        /* \"#utility.yul\":17408:17411   */\n      dup2\n        /* \"#utility.yul\":17401:17411   */\n      swap1\n      pop\n        /* \"#utility.yul\":17146:17417   */\n      swap3\n      swap2\n      pop\n      pop\n      jump\t// out\n        /* \"#utility.yul\":17423:17602   */\n    tag_362:\n        /* \"#utility.yul\":17563:17594   */\n      0x416464726573733a2063616c6c20746f206e6f6e2d636f6e7472616374000000\n        /* \"#utility.yul\":17559:17560   */\n      0x00\n        /* \"#utility.yul\":17551:17557   */\n      dup3\n        /* \"#utility.yul\":17547:17561   */\n      add\n        /* \"#utility.yul\":17540:17595   */\n      mstore\n        /* \"#utility.yul\":17423:17602   */\n      pop\n      jump\t// out\n        /* \"#utility.yul\":17608:17974   */\n    tag_363:\n        /* \"#utility.yul\":17750:17753   */\n      0x00\n        /* \"#utility.yul\":17771:17838   */\n      tag_549\n        /* \"#utility.yul\":17835:17837   */\n      0x1d\n        /* \"#utility.yul\":17830:17833   */\n      dup4\n        /* \"#utility.yul\":17771:17838   */\n      tag_344\n      jump\t// in\n    tag_549:\n        /* \"#utility.yul\":17764:17838   */\n      swap2\n      pop\n        /* \"#utility.yul\":17847:17940   */\n      tag_550\n        /* \"#utility.yul\":17936:17939   */\n      dup3\n        /* \"#utility.yul\":17847:17940   */\n      tag_362\n      jump\t// in\n    tag_550:\n        /* \"#utility.yul\":17965:17967   */\n      0x20\n        /* \"#utility.yul\":17960:17963   */\n      dup3\n        /* \"#utility.yul\":17956:17968   */\n      add\n        /* \"#utility.yul\":17949:17968   */\n      swap1\n      pop\n        /* \"#utility.yul\":17608:17974   */\n      swap2\n      swap1\n      pop\n      jump\t// out\n        /* \"#utility.yul\":17980:18399   */\n    tag_310:\n        /* \"#utility.yul\":18146:18150   */\n      0x00\n        /* \"#utility.yul\":18184:18186   */\n      0x20\n        /* \"#utility.yul\":18173:18182   */\n      dup3\n        /* \"#utility.yul\":18169:18187   */\n      add\n        /* \"#utility.yul\":18161:18187   */\n      swap1\n      pop\n        /* \"#utility.yul\":18233:18242   */\n      dup2\n        /* \"#utility.yul\":18227:18231   */\n      dup2\n        /* \"#utility.yul\":18223:18243   */\n      sub\n        /* \"#utility.yul\":18219:18220   */\n      0x00\n        /* \"#utility.yul\":18208:18217   */\n      dup4\n        /* \"#utility.yul\":18204:18221   */\n      add\n        /* \"#utility.yul\":18197:18244   */\n      mstore\n        /* \"#utility.yul\":18261:18392   */\n      tag_552\n        /* \"#utility.yul\":18387:18391   */\n      dup2\n        /* \"#utility.yul\":18261:18392   */\n      tag_363\n      jump\t// in\n    tag_552:\n        /* \"#utility.yul\":18253:18392   */\n      swap1\n      pop\n        /* \"#utility.yul\":17980:18399   */\n      swap2\n      swap1\n      pop\n      jump\t// out\n        /* \"#utility.yul\":18405:18504   */\n    tag_364:\n        /* \"#utility.yul\":18457:18463   */\n      0x00\n        /* \"#utility.yul\":18491:18496   */\n      dup2\n        /* \"#utility.yul\":18485:18497   */\n      mload\n        /* \"#utility.yul\":18475:18497   */\n      swap1\n      pop\n        /* \"#utility.yul\":18405:18504   */\n      swap2\n      swap1\n      pop\n      jump\t// out\n        /* \"#utility.yul\":18510:18612   */\n    tag_365:\n        /* \"#utility.yul\":18551:18557   */\n      0x00\n        /* \"#utility.yul\":18602:18604   */\n      0x1f\n        /* \"#utility.yul\":18598:18605   */\n      not\n        /* \"#utility.yul\":18593:18595   */\n      0x1f\n        /* \"#utility.yul\":18586:18591   */\n      dup4\n        /* \"#utility.yul\":18582:18596   */\n      add\n        /* \"#utility.yul\":18578:18606   */\n      and\n        /* \"#utility.yul\":18568:18606   */\n      swap1\n      pop\n        /* \"#utility.yul\":18510:18612   */\n      swap2\n      swap1\n      pop\n      jump\t// out\n        /* \"#utility.yul\":18618:18995   */\n    tag_366:\n        /* \"#utility.yul\":18706:18709   */\n      0x00\n        /* \"#utility.yul\":18734:18773   */\n      tag_556\n        /* \"#utility.yul\":18767:18772   */\n      dup3\n        /* \"#utility.yul\":18734:18773   */\n      tag_364\n      jump\t// in\n    tag_556:\n        /* \"#utility.yul\":18789:18860   */\n      tag_557\n        /* \"#utility.yul\":18853:18859   */\n      dup2\n        /* \"#utility.yul\":18848:18851   */\n      dup6\n        /* \"#utility.yul\":18789:18860   */\n      tag_344\n      jump\t// in\n    tag_557:\n        /* \"#utility.yul\":18782:18860   */\n      swap4\n      pop\n        /* \"#utility.yul\":18869:18934   */\n      tag_558\n        /* \"#utility.yul\":18927:18933   */\n      dup2\n        /* \"#utility.yul\":18922:18925   */\n      dup6\n        /* \"#utility.yul\":18915:18919   */\n      0x20\n        /* \"#utility.yul\":18908:18913   */\n      dup7\n        /* \"#utility.yul\":18904:18920   */\n      add\n        /* \"#utility.yul\":18869:18934   */\n      tag_360\n      jump\t// in\n    tag_558:\n        /* \"#utility.yul\":18959:18988   */\n      tag_559\n        /* \"#utility.yul\":18981:18987   */\n      dup2\n        /* \"#utility.yul\":18959:18988   */\n      tag_365\n      jump\t// in\n    tag_559:\n        /* \"#utility.yul\":18954:18957   */\n      dup5\n        /* \"#utility.yul\":18950:18989   */\n      add\n        /* \"#utility.yul\":18943:18989   */\n      swap2\n      pop\n        /* \"#utility.yul\":18710:18995   */\n      pop\n        /* \"#utility.yul\":18618:18995   */\n      swap3\n      swap2\n      pop\n      pop\n      jump\t// out\n        /* \"#utility.yul\":19001:19314   */\n    tag_319:\n        /* \"#utility.yul\":19114:19118   */\n      0x00\n        /* \"#utility.yul\":19152:19154   */\n      0x20\n        /* \"#utility.yul\":19141:19150   */\n      dup3\n        /* \"#utility.yul\":19137:19155   */\n      add\n        /* \"#utility.yul\":19129:19155   */\n      swap1\n      pop\n        /* \"#utility.yul\":19201:19210   */\n      dup2\n        /* \"#utility.yul\":19195:19199   */\n      dup2\n        /* \"#utility.yul\":19191:19211   */\n      sub\n        /* \"#utility.yul\":19187:19188   */\n      0x00\n        /* \"#utility.yul\":19176:19185   */\n      dup4\n        /* \"#utility.yul\":19172:19189   */\n      add\n        /* \"#utility.yul\":19165:19212   */\n      mstore\n        /* \"#utility.yul\":19229:19307   */\n      tag_561\n        /* \"#utility.yul\":19302:19306   */\n      dup2\n        /* \"#utility.yul\":19293:19299   */\n      dup5\n        /* \"#utility.yul\":19229:19307   */\n      tag_366\n      jump\t// in\n    tag_561:\n        /* \"#utility.yul\":19221:19307   */\n      swap1\n      pop\n        /* \"#utility.yul\":19001:19314   */\n      swap3\n      swap2\n      pop\n      pop\n      jump\t// out\n\n    auxdata: 0xa264697066735822122010533f6195a6e83492bd308fdd6653a0071d527761f56c03ee3b8ff7641f940e64736f6c63430008130033\n}\n",
				"bytecode": {
					"linkReferences": {},
					"object": "608060405260006003553480156200001657600080fd5b50604051620023b0380380620023b083398181016040528101906200003c919062000241565b6200005c62000050620000bc60201b60201c565b620000c460201b60201c565b83600160006101000a81548173ffffffffffffffffffffffffffffffffffffffff021916908373ffffffffffffffffffffffffffffffffffffffff16021790555082600281905550816004819055508060058190555050505050620002b3565b600033905090565b60008060009054906101000a900473ffffffffffffffffffffffffffffffffffffffff169050816000806101000a81548173ffffffffffffffffffffffffffffffffffffffff021916908373ffffffffffffffffffffffffffffffffffffffff1602179055508173ffffffffffffffffffffffffffffffffffffffff168173ffffffffffffffffffffffffffffffffffffffff167f8be0079c531659141344cd1fd0a4f28419497f9722a3daafe3b4186f6b6457e060405160405180910390a35050565b600080fd5b600073ffffffffffffffffffffffffffffffffffffffff82169050919050565b6000620001ba826200018d565b9050919050565b6000620001ce82620001ad565b9050919050565b620001e081620001c1565b8114620001ec57600080fd5b50565b6000815190506200020081620001d5565b92915050565b6000819050919050565b6200021b8162000206565b81146200022757600080fd5b50565b6000815190506200023b8162000210565b92915050565b600080600080608085870312156200025e576200025d62000188565b5b60006200026e87828801620001ef565b945050602062000281878288016200022a565b935050604062000294878288016200022a565b9250506060620002a7878288016200022a565b91505092959194509250565b6120ed80620002c36000396000f3fe608060405234801561001057600080fd5b50600436106101375760003560e01c806364482f79116100b85780638dbb1e3a1161007c5780638dbb1e3a146102cd57806393f1a40b146102fd57806398969e821461032e578063e2bbb1581461035e578063f2fde38b1461037a578063f7c618c11461039657610137565b806364482f7914610261578063715018a61461027d57806380dc0672146102875780638ae39cac146102915780638da5cb5b146102af57610137565b8063441a3e70116100ff578063441a3e70146101e557806348cd4cb11461020157806351eb05a61461021f5780635312ea8e1461023b578063630b5ba11461025757610137565b8063081e3eda1461013c5780631526fe271461015a57806317caf6f11461018d5780631aed6553146101ab5780631eaaa045146101c9575b600080fd5b6101446103b4565b6040516101519190611667565b60405180910390f35b610174600480360381019061016f91906116b3565b6103c1565b604051610184949392919061175f565b60405180910390f35b610195610421565b6040516101a29190611667565b60405180910390f35b6101b3610427565b6040516101c09190611667565b60405180910390f35b6101e360048036038101906101de919061182c565b61042d565b005b6101ff60048036038101906101fa919061187f565b610539565b005b6102096107d8565b6040516102169190611667565b60405180910390f35b610239600480360381019061023491906116b3565b6107de565b005b610255600480360381019061025091906116b3565b61097d565b005b61025f610b04565b005b61027b600480360381019061027691906118bf565b610b37565b005b610285610bc1565b005b61028f610bd5565b005b610299610be6565b6040516102a69190611667565b60405180910390f35b6102b7610bec565b6040516102c49190611921565b60405180910390f35b6102e760048036038101906102e2919061187f565b610c15565b6040516102f49190611667565b60405180910390f35b61031760048036038101906103129190611968565b610c6a565b6040516103259291906119a8565b60405180910390f35b61034860048036038101906103439190611968565b610c9b565b6040516103559190611667565b60405180910390f35b6103786004803603810190610373919061187f565b610e81565b005b610394600480360381019061038f91906119d1565b6110e9565b005b61039e61116c565b6040516103ab91906119fe565b60405180910390f35b6000600680549050905090565b600681815481106103d157600080fd5b90600052602060002090600402016000915090508060000160009054906101000a900473ffffffffffffffffffffffffffffffffffffffff16908060010154908060020154908060030154905084565b60035481565b60055481565b610435611192565b801561044457610443610b04565b5b826003546104529190611a48565b600381905550600660405180608001604052808473ffffffffffffffffffffffffffffffffffffffff16815260200185815260200160045443116104985760045461049a565b435b81526020016000815250908060018154018082558091505060019003906000526020600020906004020160009091909190915060008201518160000160006101000a81548173ffffffffffffffffffffffffffffffffffffffff021916908373ffffffffffffffffffffffffffffffffffffffff1602179055506020820151816001015560408201518160020155606082015181600301555050505050565b60006006838154811061054f5761054e611a7c565b5b9060005260206000209060040201905060006007600085815260200190815260200160002060003373ffffffffffffffffffffffffffffffffffffffff1673ffffffffffffffffffffffffffffffffffffffff168152602001908152602001600020905082816000015410156105fa576040517f08c379a00000000000000000000000000000000000000000000000000000000081526004016105f190611b08565b60405180910390fd5b610603846107de565b6000816001015464e8d4a51000846003015484600001546106249190611b28565b61062e9190611b99565b6106389190611bca565b90506000811115610691576106903382600160009054906101000a900473ffffffffffffffffffffffffffffffffffffffff1673ffffffffffffffffffffffffffffffffffffffff166112109092919063ffffffff16565b5b6000841115610756578382600001546106aa9190611bca565b82600001819055508260000160009054906101000a900473ffffffffffffffffffffffffffffffffffffffff1673ffffffffffffffffffffffffffffffffffffffff1663a9059cbb33866040518363ffffffff1660e01b8152600401610711929190611bfe565b6020604051808303816000875af1158015610730573d6000803e3d6000fd5b505050506040513d601f19601f820116820180604052508101906107549190611c3c565b505b64e8d4a51000836003015483600001546107709190611b28565b61077a9190611b99565b8260010181905550843373ffffffffffffffffffffffffffffffffffffffff167ff279e6a1f5e320cca91135676d9cb6e44ca8a08c0b88342bcdb1144f6511b568866040516107c99190611667565b60405180910390a35050505050565b60045481565b6000600682815481106107f4576107f3611a7c565b5b9060005260206000209060040201905080600201544311610815575061097a565b60008160000160009054906101000a900473ffffffffffffffffffffffffffffffffffffffff1673ffffffffffffffffffffffffffffffffffffffff166370a08231306040518263ffffffff1660e01b81526004016108749190611921565b602060405180830381865afa158015610891573d6000803e3d6000fd5b505050506040513d601f19601f820116820180604052508101906108b59190611c7e565b9050600081036108cf57438260020181905550505061097a565b60006108df836002015443610c15565b9050600061092260035461091486600101546109066002548761129690919063ffffffff16565b61129690919063ffffffff16565b6112ac90919063ffffffff16565b90506109646109518461094364e8d4a510008561129690919063ffffffff16565b6112ac90919063ffffffff16565b85600301546112c290919063ffffffff16565b8460030181905550438460020181905550505050505b50565b60006007600083815260200190815260200160002060003373ffffffffffffffffffffffffffffffffffffffff1673ffffffffffffffffffffffffffffffffffffffff1681526020019081526020016000209050600682815481106109e5576109e4611a7c565b5b906000526020600020906004020160000160009054906101000a900473ffffffffffffffffffffffffffffffffffffffff1673ffffffffffffffffffffffffffffffffffffffff1663a9059cbb3383600001546040518363ffffffff1660e01b8152600401610a55929190611bfe565b6020604051808303816000875af1158015610a74573d6000803e3d6000fd5b505050506040513d601f19601f82011682018060405250810190610a989190611c3c565b50813373ffffffffffffffffffffffffffffffffffffffff167fbb757047c2b5f3974fe26b7c10f732e7bce710b0952a71082702781e62ae05958360000154604051610ae49190611667565b60405180910390a360008160000181905550600081600101819055505050565b6000600680549050905060005b81811015610b3357610b22816107de565b80610b2c90611cab565b9050610b11565b5050565b610b3f611192565b8015610b4e57610b4d610b04565b5b8160068481548110610b6357610b62611a7c565b5b906000526020600020906004020160010154600354610b829190611bca565b610b8c9190611a48565b6003819055508160068481548110610ba757610ba6611a7c565b5b906000526020600020906004020160010181905550505050565b610bc9611192565b610bd360006112d8565b565b610bdd611192565b43600581905550565b60025481565b60008060009054906101000a900473ffffffffffffffffffffffffffffffffffffffff16905090565b60006005548211610c3a57610c33838361139c90919063ffffffff16565b9050610c64565b6005548310610c4c5760009050610c64565b610c618360055461139c90919063ffffffff16565b90505b92915050565b6007602052816000526040600020602052806000526040600020600091509150508060000154908060010154905082565b60008060068481548110610cb257610cb1611a7c565b5b9060005260206000209060040201905060006007600086815260200190815260200160002060008573ffffffffffffffffffffffffffffffffffffffff1673ffffffffffffffffffffffffffffffffffffffff168152602001908152602001600020905060008260030154905060008360000160009054906101000a900473ffffffffffffffffffffffffffffffffffffffff1673ffffffffffffffffffffffffffffffffffffffff166370a08231306040518263ffffffff1660e01b8152600401610d7e9190611921565b602060405180830381865afa158015610d9b573d6000803e3d6000fd5b505050506040513d601f19601f82011682018060405250810190610dbf9190611c7e565b9050836002015443118015610dd5575060008114155b15610e46576000610dea856002015443610c15565b90506000600354866001015460025484610e049190611b28565b610e0e9190611b28565b610e189190611b99565b90508264e8d4a5100082610e2c9190611b28565b610e369190611b99565b84610e419190611a48565b935050505b826001015464e8d4a51000838560000154610e619190611b28565b610e6b9190611b99565b610e759190611bca565b94505050505092915050565b600060068381548110610e9757610e96611a7c565b5b9060005260206000209060040201905060006007600085815260200190815260200160002060003373ffffffffffffffffffffffffffffffffffffffff1673ffffffffffffffffffffffffffffffffffffffff1681526020019081526020016000209050610f04846107de565b600081600001541115610fa1576000816001015464e8d4a5100084600301548460000154610f329190611b28565b610f3c9190611b99565b610f469190611bca565b90506000811115610f9f57610f9e3382600160009054906101000a900473ffffffffffffffffffffffffffffffffffffffff1673ffffffffffffffffffffffffffffffffffffffff166112109092919063ffffffff16565b5b505b6000831115611068578160000160009054906101000a900473ffffffffffffffffffffffffffffffffffffffff1673ffffffffffffffffffffffffffffffffffffffff166323b872dd3330866040518463ffffffff1660e01b815260040161100b93929190611cf3565b6020604051808303816000875af115801561102a573d6000803e3d6000fd5b505050506040513d601f19601f8201168201806040525081019061104e9190611c3c565b5082816000015461105f9190611a48565b81600001819055505b64e8d4a51000826003015482600001546110829190611b28565b61108c9190611b99565b8160010181905550833373ffffffffffffffffffffffffffffffffffffffff167f90890809c654f11d6e72a28fa60149770a0d11ec6c92319d6ceb2bb0a4ea1a15856040516110db9190611667565b60405180910390a350505050565b6110f1611192565b600073ffffffffffffffffffffffffffffffffffffffff168173ffffffffffffffffffffffffffffffffffffffff1603611160576040517f08c379a000000000000000000000000000000000000000000000000000000000815260040161115790611d9c565b60405180910390fd5b611169816112d8565b50565b600160009054906101000a900473ffffffffffffffffffffffffffffffffffffffff1681565b61119a6113b2565b73ffffffffffffffffffffffffffffffffffffffff166111b8610bec565b73ffffffffffffffffffffffffffffffffffffffff161461120e576040517f08c379a000000000000000000000000000000000000000000000000000000000815260040161120590611e08565b60405180910390fd5b565b6112918363a9059cbb60e01b848460405160240161122f929190611bfe565b604051602081830303815290604052907bffffffffffffffffffffffffffffffffffffffffffffffffffffffff19166020820180517bffffffffffffffffffffffffffffffffffffffffffffffffffffffff83818316178352505050506113ba565b505050565b600081836112a49190611b28565b905092915050565b600081836112ba9190611b99565b905092915050565b600081836112d09190611a48565b905092915050565b60008060009054906101000a900473ffffffffffffffffffffffffffffffffffffffff169050816000806101000a81548173ffffffffffffffffffffffffffffffffffffffff021916908373ffffffffffffffffffffffffffffffffffffffff1602179055508173ffffffffffffffffffffffffffffffffffffffff168173ffffffffffffffffffffffffffffffffffffffff167f8be0079c531659141344cd1fd0a4f28419497f9722a3daafe3b4186f6b6457e060405160405180910390a35050565b600081836113aa9190611bca565b905092915050565b600033905090565b600061141c826040518060400160405280602081526020017f5361666545524332303a206c6f772d6c6576656c2063616c6c206661696c65648152508573ffffffffffffffffffffffffffffffffffffffff166114819092919063ffffffff16565b905060008151111561147c578080602001905181019061143c9190611c3c565b61147b576040517f08c379a000000000000000000000000000000000000000000000000000000000815260040161147290611e9a565b60405180910390fd5b5b505050565b60606114908484600085611499565b90509392505050565b6060824710156114de576040517f08c379a00000000000000000000000000000000000000000000000000000000081526004016114d590611f2c565b60405180910390fd5b6000808673ffffffffffffffffffffffffffffffffffffffff1685876040516115079190611fbd565b60006040518083038185875af1925050503d8060008114611544576040519150601f19603f3d011682016040523d82523d6000602084013e611549565b606091505b509150915061155a87838387611566565b92505050949350505050565b606083156115c85760008351036115c057611580856115db565b6115bf576040517f08c379a00000000000000000000000000000000000000000000000000000000081526004016115b690612020565b60405180910390fd5b5b8290506115d3565b6115d283836115fe565b5b949350505050565b6000808273ffffffffffffffffffffffffffffffffffffffff163b119050919050565b6000825111156116115781518083602001fd5b806040517f08c379a00000000000000000000000000000000000000000000000000000000081526004016116459190612095565b60405180910390fd5b6000819050919050565b6116618161164e565b82525050565b600060208201905061167c6000830184611658565b92915050565b600080fd5b6116908161164e565b811461169b57600080fd5b50565b6000813590506116ad81611687565b92915050565b6000602082840312156116c9576116c8611682565b5b60006116d78482850161169e565b91505092915050565b600073ffffffffffffffffffffffffffffffffffffffff82169050919050565b6000819050919050565b600061172561172061171b846116e0565b611700565b6116e0565b9050919050565b60006117378261170a565b9050919050565b60006117498261172c565b9050919050565b6117598161173e565b82525050565b60006080820190506117746000830187611750565b6117816020830186611658565b61178e6040830185611658565b61179b6060830184611658565b95945050505050565b60006117af826116e0565b9050919050565b60006117c1826117a4565b9050919050565b6117d1816117b6565b81146117dc57600080fd5b50565b6000813590506117ee816117c8565b92915050565b60008115159050919050565b611809816117f4565b811461181457600080fd5b50565b60008135905061182681611800565b92915050565b60008060006060848603121561184557611844611682565b5b60006118538682870161169e565b9350506020611864868287016117df565b925050604061187586828701611817565b9150509250925092565b6000806040838503121561189657611895611682565b5b60006118a48582860161169e565b92505060206118b58582860161169e565b9150509250929050565b6000806000606084860312156118d8576118d7611682565b5b60006118e68682870161169e565b93505060206118f78682870161169e565b925050604061190886828701611817565b9150509250925092565b61191b816117a4565b82525050565b60006020820190506119366000830184611912565b92915050565b611945816117a4565b811461195057600080fd5b50565b6000813590506119628161193c565b92915050565b6000806040838503121561197f5761197e611682565b5b600061198d8582860161169e565b925050602061199e85828601611953565b9150509250929050565b60006040820190506119bd6000830185611658565b6119ca6020830184611658565b9392505050565b6000602082840312156119e7576119e6611682565b5b60006119f584828501611953565b91505092915050565b6000602082019050611a136000830184611750565b92915050565b7f4e487b7100000000000000000000000000000000000000000000000000000000600052601160045260246000fd5b6000611a538261164e565b9150611a5e8361164e565b9250828201905080821115611a7657611a75611a19565b5b92915050565b7f4e487b7100000000000000000000000000000000000000000000000000000000600052603260045260246000fd5b600082825260208201905092915050565b7f77697468647261773a206e6f7420656e6f756768000000000000000000000000600082015250565b6000611af2601483611aab565b9150611afd82611abc565b602082019050919050565b60006020820190508181036000830152611b2181611ae5565b9050919050565b6000611b338261164e565b9150611b3e8361164e565b9250828202611b4c8161164e565b91508282048414831517611b6357611b62611a19565b5b5092915050565b7f4e487b7100000000000000000000000000000000000000000000000000000000600052601260045260246000fd5b6000611ba48261164e565b9150611baf8361164e565b925082611bbf57611bbe611b6a565b5b828204905092915050565b6000611bd58261164e565b9150611be08361164e565b9250828203905081811115611bf857611bf7611a19565b5b92915050565b6000604082019050611c136000830185611912565b611c206020830184611658565b9392505050565b600081519050611c3681611800565b92915050565b600060208284031215611c5257611c51611682565b5b6000611c6084828501611c27565b91505092915050565b600081519050611c7881611687565b92915050565b600060208284031215611c9457611c93611682565b5b6000611ca284828501611c69565b91505092915050565b6000611cb68261164e565b91507fffffffffffffffffffffffffffffffffffffffffffffffffffffffffffffffff8203611ce857611ce7611a19565b5b600182019050919050565b6000606082019050611d086000830186611912565b611d156020830185611912565b611d226040830184611658565b949350505050565b7f4f776e61626c653a206e6577206f776e657220697320746865207a65726f206160008201527f6464726573730000000000000000000000000000000000000000000000000000602082015250565b6000611d86602683611aab565b9150611d9182611d2a565b604082019050919050565b60006020820190508181036000830152611db581611d79565b9050919050565b7f4f776e61626c653a2063616c6c6572206973206e6f7420746865206f776e6572600082015250565b6000611df2602083611aab565b9150611dfd82611dbc565b602082019050919050565b60006020820190508181036000830152611e2181611de5565b9050919050565b7f5361666545524332303a204552433230206f7065726174696f6e20646964206e60008201527f6f74207375636365656400000000000000000000000000000000000000000000602082015250565b6000611e84602a83611aab565b9150611e8f82611e28565b604082019050919050565b60006020820190508181036000830152611eb381611e77565b9050919050565b7f416464726573733a20696e73756666696369656e742062616c616e636520666f60008201527f722063616c6c0000000000000000000000000000000000000000000000000000602082015250565b6000611f16602683611aab565b9150611f2182611eba565b604082019050919050565b60006020820190508181036000830152611f4581611f09565b9050919050565b600081519050919050565b600081905092915050565b60005b83811015611f80578082015181840152602081019050611f65565b60008484015250505050565b6000611f9782611f4c565b611fa18185611f57565b9350611fb1818560208601611f62565b80840191505092915050565b6000611fc98284611f8c565b915081905092915050565b7f416464726573733a2063616c6c20746f206e6f6e2d636f6e7472616374000000600082015250565b600061200a601d83611aab565b915061201582611fd4565b602082019050919050565b6000602082019050818103600083015261203981611ffd565b9050919050565b600081519050919050565b6000601f19601f8301169050919050565b600061206782612040565b6120718185611aab565b9350612081818560208601611f62565b61208a8161204b565b840191505092915050565b600060208201905081810360008301526120af818461205c565b90509291505056fea264697066735822122010533f6195a6e83492bd308fdd6653a0071d527761f56c03ee3b8ff7641f940e64736f6c63430008130033",
					"opcodes": "PUSH1 0x80 PUSH1 0x40 MSTORE PUSH1 0x0 PUSH1 0x3 SSTORE CALLVALUE DUP1 ISZERO PUSH3 0x16 JUMPI PUSH1 0x0 DUP1 REVERT JUMPDEST POP PUSH1 0x40 MLOAD PUSH3 0x23B0 CODESIZE SUB DUP1 PUSH3 0x23B0 DUP4 CODECOPY DUP2 DUP2 ADD PUSH1 0x40 MSTORE DUP2 ADD SWAP1 PUSH3 0x3C SWAP2 SWAP1 PUSH3 0x241 JUMP JUMPDEST PUSH3 0x5C PUSH3 0x50 PUSH3 0xBC PUSH1 0x20 SHL PUSH1 0x20 SHR JUMP JUMPDEST PUSH3 0xC4 PUSH1 0x20 SHL PUSH1 0x20 SHR JUMP JUMPDEST DUP4 PUSH1 0x1 PUSH1 0x0 PUSH2 0x100 EXP DUP2 SLOAD DUP2 PUSH20 0xFFFFFFFFFFFFFFFFFFFFFFFFFFFFFFFFFFFFFFFF MUL NOT AND SWAP1 DUP4 PUSH20 0xFFFFFFFFFFFFFFFFFFFFFFFFFFFFFFFFFFFFFFFF AND MUL OR SWAP1 SSTORE POP DUP3 PUSH1 0x2 DUP2 SWAP1 SSTORE POP DUP2 PUSH1 0x4 DUP2 SWAP1 SSTORE POP DUP1 PUSH1 0x5 DUP2 SWAP1 SSTORE POP POP POP POP POP PUSH3 0x2B3 JUMP JUMPDEST PUSH1 0x0 CALLER SWAP1 POP SWAP1 JUMP JUMPDEST PUSH1 0x0 DUP1 PUSH1 0x0 SWAP1 SLOAD SWAP1 PUSH2 0x100 EXP SWAP1 DIV PUSH20 0xFFFFFFFFFFFFFFFFFFFFFFFFFFFFFFFFFFFFFFFF AND SWAP1 POP DUP2 PUSH1 0x0 DUP1 PUSH2 0x100 EXP DUP2 SLOAD DUP2 PUSH20 0xFFFFFFFFFFFFFFFFFFFFFFFFFFFFFFFFFFFFFFFF MUL NOT AND SWAP1 DUP4 PUSH20 0xFFFFFFFFFFFFFFFFFFFFFFFFFFFFFFFFFFFFFFFF AND MUL OR SWAP1 SSTORE POP DUP2 PUSH20 0xFFFFFFFFFFFFFFFFFFFFFFFFFFFFFFFFFFFFFFFF AND DUP2 PUSH20 0xFFFFFFFFFFFFFFFFFFFFFFFFFFFFFFFFFFFFFFFF AND PUSH32 0x8BE0079C531659141344CD1FD0A4F28419497F9722A3DAAFE3B4186F6B6457E0 PUSH1 0x40 MLOAD PUSH1 0x40 MLOAD DUP1 SWAP2 SUB SWAP1 LOG3 POP POP JUMP JUMPDEST PUSH1 0x0 DUP1 REVERT JUMPDEST PUSH1 0x0 PUSH20 0xFFFFFFFFFFFFFFFFFFFFFFFFFFFFFFFFFFFFFFFF DUP3 AND SWAP1 POP SWAP2 SWAP1 POP JUMP JUMPDEST PUSH1 0x0 PUSH3 0x1BA DUP3 PUSH3 0x18D JUMP JUMPDEST SWAP1 POP SWAP2 SWAP1 POP JUMP JUMPDEST PUSH1 0x0 PUSH3 0x1CE DUP3 PUSH3 0x1AD JUMP JUMPDEST SWAP1 POP SWAP2 SWAP1 POP JUMP JUMPDEST PUSH3 0x1E0 DUP2 PUSH3 0x1C1 JUMP JUMPDEST DUP2 EQ PUSH3 0x1EC JUMPI PUSH1 0x0 DUP1 REVERT JUMPDEST POP JUMP JUMPDEST PUSH1 0x0 DUP2 MLOAD SWAP1 POP PUSH3 0x200 DUP2 PUSH3 0x1D5 JUMP JUMPDEST SWAP3 SWAP2 POP POP JUMP JUMPDEST PUSH1 0x0 DUP2 SWAP1 POP SWAP2 SWAP1 POP JUMP JUMPDEST PUSH3 0x21B DUP2 PUSH3 0x206 JUMP JUMPDEST DUP2 EQ PUSH3 0x227 JUMPI PUSH1 0x0 DUP1 REVERT JUMPDEST POP JUMP JUMPDEST PUSH1 0x0 DUP2 MLOAD SWAP1 POP PUSH3 0x23B DUP2 PUSH3 0x210 JUMP JUMPDEST SWAP3 SWAP2 POP POP JUMP JUMPDEST PUSH1 0x0 DUP1 PUSH1 0x0 DUP1 PUSH1 0x80 DUP6 DUP8 SUB SLT ISZERO PUSH3 0x25E JUMPI PUSH3 0x25D PUSH3 0x188 JUMP JUMPDEST JUMPDEST PUSH1 0x0 PUSH3 0x26E DUP8 DUP3 DUP9 ADD PUSH3 0x1EF JUMP JUMPDEST SWAP5 POP POP PUSH1 0x20 PUSH3 0x281 DUP8 DUP3 DUP9 ADD PUSH3 0x22A JUMP JUMPDEST SWAP4 POP POP PUSH1 0x40 PUSH3 0x294 DUP8 DUP3 DUP9 ADD PUSH3 0x22A JUMP JUMPDEST SWAP3 POP POP PUSH1 0x60 PUSH3 0x2A7 DUP8 DUP3 DUP9 ADD PUSH3 0x22A JUMP JUMPDEST SWAP2 POP POP SWAP3 SWAP6 SWAP2 SWAP5 POP SWAP3 POP JUMP JUMPDEST PUSH2 0x20ED DUP1 PUSH3 0x2C3 PUSH1 0x0 CODECOPY PUSH1 0x0 RETURN INVALID PUSH1 0x80 PUSH1 0x40 MSTORE CALLVALUE DUP1 ISZERO PUSH2 0x10 JUMPI PUSH1 0x0 DUP1 REVERT JUMPDEST POP PUSH1 0x4 CALLDATASIZE LT PUSH2 0x137 JUMPI PUSH1 0x0 CALLDATALOAD PUSH1 0xE0 SHR DUP1 PUSH4 0x64482F79 GT PUSH2 0xB8 JUMPI DUP1 PUSH4 0x8DBB1E3A GT PUSH2 0x7C JUMPI DUP1 PUSH4 0x8DBB1E3A EQ PUSH2 0x2CD JUMPI DUP1 PUSH4 0x93F1A40B EQ PUSH2 0x2FD JUMPI DUP1 PUSH4 0x98969E82 EQ PUSH2 0x32E JUMPI DUP1 PUSH4 0xE2BBB158 EQ PUSH2 0x35E JUMPI DUP1 PUSH4 0xF2FDE38B EQ PUSH2 0x37A JUMPI DUP1 PUSH4 0xF7C618C1 EQ PUSH2 0x396 JUMPI PUSH2 0x137 JUMP JUMPDEST DUP1 PUSH4 0x64482F79 EQ PUSH2 0x261 JUMPI DUP1 PUSH4 0x715018A6 EQ PUSH2 0x27D JUMPI DUP1 PUSH4 0x80DC0672 EQ PUSH2 0x287 JUMPI DUP1 PUSH4 0x8AE39CAC EQ PUSH2 0x291 JUMPI DUP1 PUSH4 0x8DA5CB5B EQ PUSH2 0x2AF JUMPI PUSH2 0x137 JUMP JUMPDEST DUP1 PUSH4 0x441A3E70 GT PUSH2 0xFF JUMPI DUP1 PUSH4 0x441A3E70 EQ PUSH2 0x1E5 JUMPI DUP1 PUSH4 0x48CD4CB1 EQ PUSH2 0x201 JUMPI DUP1 PUSH4 0x51EB05A6 EQ PUSH2 0x21F JUMPI DUP1 PUSH4 0x5312EA8E EQ PUSH2 0x23B JUMPI DUP1 PUSH4 0x630B5BA1 EQ PUSH2 0x257 JUMPI PUSH2 0x137 JUMP JUMPDEST DUP1 PUSH4 0x81E3EDA EQ PUSH2 0x13C JUMPI DUP1 PUSH4 0x1526FE27 EQ PUSH2 0x15A JUMPI DUP1 PUSH4 0x17CAF6F1 EQ PUSH2 0x18D JUMPI DUP1 PUSH4 0x1AED6553 EQ PUSH2 0x1AB JUMPI DUP1 PUSH4 0x1EAAA045 EQ PUSH2 0x1C9 JUMPI JUMPDEST PUSH1 0x0 DUP1 REVERT JUMPDEST PUSH2 0x144 PUSH2 0x3B4 JUMP JUMPDEST PUSH1 0x40 MLOAD PUSH2 0x151 SWAP2 SWAP1 PUSH2 0x1667 JUMP JUMPDEST PUSH1 0x40 MLOAD DUP1 SWAP2 SUB SWAP1 RETURN JUMPDEST PUSH2 0x174 PUSH1 0x4 DUP1 CALLDATASIZE SUB DUP2 ADD SWAP1 PUSH2 0x16F SWAP2 SWAP1 PUSH2 0x16B3 JUMP JUMPDEST PUSH2 0x3C1 JUMP JUMPDEST PUSH1 0x40 MLOAD PUSH2 0x184 SWAP5 SWAP4 SWAP3 SWAP2 SWAP1 PUSH2 0x175F JUMP JUMPDEST PUSH1 0x40 MLOAD DUP1 SWAP2 SUB SWAP1 RETURN JUMPDEST PUSH2 0x195 PUSH2 0x421 JUMP JUMPDEST PUSH1 0x40 MLOAD PUSH2 0x1A2 SWAP2 SWAP1 PUSH2 0x1667 JUMP JUMPDEST PUSH1 0x40 MLOAD DUP1 SWAP2 SUB SWAP1 RETURN JUMPDEST PUSH2 0x1B3 PUSH2 0x427 JUMP JUMPDEST PUSH1 0x40 MLOAD PUSH2 0x1C0 SWAP2 SWAP1 PUSH2 0x1667 JUMP JUMPDEST PUSH1 0x40 MLOAD DUP1 SWAP2 SUB SWAP1 RETURN JUMPDEST PUSH2 0x1E3 PUSH1 0x4 DUP1 CALLDATASIZE SUB DUP2 ADD SWAP1 PUSH2 0x1DE SWAP2 SWAP1 PUSH2 0x182C JUMP JUMPDEST PUSH2 0x42D JUMP JUMPDEST STOP JUMPDEST PUSH2 0x1FF PUSH1 0x4 DUP1 CALLDATASIZE SUB DUP2 ADD SWAP1 PUSH2 0x1FA SWAP2 SWAP1 PUSH2 0x187F JUMP JUMPDEST PUSH2 0x539 JUMP JUMPDEST STOP JUMPDEST PUSH2 0x209 PUSH2 0x7D8 JUMP JUMPDEST PUSH1 0x40 MLOAD PUSH2 0x216 SWAP2 SWAP1 PUSH2 0x1667 JUMP JUMPDEST PUSH1 0x40 MLOAD DUP1 SWAP2 SUB SWAP1 RETURN JUMPDEST PUSH2 0x239 PUSH1 0x4 DUP1 CALLDATASIZE SUB DUP2 ADD SWAP1 PUSH2 0x234 SWAP2 SWAP1 PUSH2 0x16B3 JUMP JUMPDEST PUSH2 0x7DE JUMP JUMPDEST STOP JUMPDEST PUSH2 0x255 PUSH1 0x4 DUP1 CALLDATASIZE SUB DUP2 ADD SWAP1 PUSH2 0x250 SWAP2 SWAP1 PUSH2 0x16B3 JUMP JUMPDEST PUSH2 0x97D JUMP JUMPDEST STOP JUMPDEST PUSH2 0x25F PUSH2 0xB04 JUMP JUMPDEST STOP JUMPDEST PUSH2 0x27B PUSH1 0x4 DUP1 CALLDATASIZE SUB DUP2 ADD SWAP1 PUSH2 0x276 SWAP2 SWAP1 PUSH2 0x18BF JUMP JUMPDEST PUSH2 0xB37 JUMP JUMPDEST STOP JUMPDEST PUSH2 0x285 PUSH2 0xBC1 JUMP JUMPDEST STOP JUMPDEST PUSH2 0x28F PUSH2 0xBD5 JUMP JUMPDEST STOP JUMPDEST PUSH2 0x299 PUSH2 0xBE6 JUMP JUMPDEST PUSH1 0x40 MLOAD PUSH2 0x2A6 SWAP2 SWAP1 PUSH2 0x1667 JUMP JUMPDEST PUSH1 0x40 MLOAD DUP1 SWAP2 SUB SWAP1 RETURN JUMPDEST PUSH2 0x2B7 PUSH2 0xBEC JUMP JUMPDEST PUSH1 0x40 MLOAD PUSH2 0x2C4 SWAP2 SWAP1 PUSH2 0x1921 JUMP JUMPDEST PUSH1 0x40 MLOAD DUP1 SWAP2 SUB SWAP1 RETURN JUMPDEST PUSH2 0x2E7 PUSH1 0x4 DUP1 CALLDATASIZE SUB DUP2 ADD SWAP1 PUSH2 0x2E2 SWAP2 SWAP1 PUSH2 0x187F JUMP JUMPDEST PUSH2 0xC15 JUMP JUMPDEST PUSH1 0x40 MLOAD PUSH2 0x2F4 SWAP2 SWAP1 PUSH2 0x1667 JUMP JUMPDEST PUSH1 0x40 MLOAD DUP1 SWAP2 SUB SWAP1 RETURN JUMPDEST PUSH2 0x317 PUSH1 0x4 DUP1 CALLDATASIZE SUB DUP2 ADD SWAP1 PUSH2 0x312 SWAP2 SWAP1 PUSH2 0x1968 JUMP JUMPDEST PUSH2 0xC6A JUMP JUMPDEST PUSH1 0x40 MLOAD PUSH2 0x325 SWAP3 SWAP2 SWAP1 PUSH2 0x19A8 JUMP JUMPDEST PUSH1 0x40 MLOAD DUP1 SWAP2 SUB SWAP1 RETURN JUMPDEST PUSH2 0x348 PUSH1 0x4 DUP1 CALLDATASIZE SUB DUP2 ADD SWAP1 PUSH2 0x343 SWAP2 SWAP1 PUSH2 0x1968 JUMP JUMPDEST PUSH2 0xC9B JUMP JUMPDEST PUSH1 0x40 MLOAD PUSH2 0x355 SWAP2 SWAP1 PUSH2 0x1667 JUMP JUMPDEST PUSH1 0x40 MLOAD DUP1 SWAP2 SUB SWAP1 RETURN JUMPDEST PUSH2 0x378 PUSH1 0x4 DUP1 CALLDATASIZE SUB DUP2 ADD SWAP1 PUSH2 0x373 SWAP2 SWAP1 PUSH2 0x187F JUMP JUMPDEST PUSH2 0xE81 JUMP JUMPDEST STOP JUMPDEST PUSH2 0x394 PUSH1 0x4 DUP1 CALLDATASIZE SUB DUP2 ADD SWAP1 PUSH2 0x38F SWAP2 SWAP1 PUSH2 0x19D1 JUMP JUMPDEST PUSH2 0x10E9 JUMP JUMPDEST STOP JUMPDEST PUSH2 0x39E PUSH2 0x116C JUMP JUMPDEST PUSH1 0x40 MLOAD PUSH2 0x3AB SWAP2 SWAP1 PUSH2 0x19FE JUMP JUMPDEST PUSH1 0x40 MLOAD DUP1 SWAP2 SUB SWAP1 RETURN JUMPDEST PUSH1 0x0 PUSH1 0x6 DUP1 SLOAD SWAP1 POP SWAP1 POP SWAP1 JUMP JUMPDEST PUSH1 0x6 DUP2 DUP2 SLOAD DUP2 LT PUSH2 0x3D1 JUMPI PUSH1 0x0 DUP1 REVERT JUMPDEST SWAP1 PUSH1 0x0 MSTORE PUSH1 0x20 PUSH1 0x0 KECCAK256 SWAP1 PUSH1 0x4 MUL ADD PUSH1 0x0 SWAP2 POP SWAP1 POP DUP1 PUSH1 0x0 ADD PUSH1 0x0 SWAP1 SLOAD SWAP1 PUSH2 0x100 EXP SWAP1 DIV PUSH20 0xFFFFFFFFFFFFFFFFFFFFFFFFFFFFFFFFFFFFFFFF AND SWAP1 DUP1 PUSH1 0x1 ADD SLOAD SWAP1 DUP1 PUSH1 0x2 ADD SLOAD SWAP1 DUP1 PUSH1 0x3 ADD SLOAD SWAP1 POP DUP5 JUMP JUMPDEST PUSH1 0x3 SLOAD DUP2 JUMP JUMPDEST PUSH1 0x5 SLOAD DUP2 JUMP JUMPDEST PUSH2 0x435 PUSH2 0x1192 JUMP JUMPDEST DUP1 ISZERO PUSH2 0x444 JUMPI PUSH2 0x443 PUSH2 0xB04 JUMP JUMPDEST JUMPDEST DUP3 PUSH1 0x3 SLOAD PUSH2 0x452 SWAP2 SWAP1 PUSH2 0x1A48 JUMP JUMPDEST PUSH1 0x3 DUP2 SWAP1 SSTORE POP PUSH1 0x6 PUSH1 0x40 MLOAD DUP1 PUSH1 0x80 ADD PUSH1 0x40 MSTORE DUP1 DUP5 PUSH20 0xFFFFFFFFFFFFFFFFFFFFFFFFFFFFFFFFFFFFFFFF AND DUP2 MSTORE PUSH1 0x20 ADD DUP6 DUP2 MSTORE PUSH1 0x20 ADD PUSH1 0x4 SLOAD NUMBER GT PUSH2 0x498 JUMPI PUSH1 0x4 SLOAD PUSH2 0x49A JUMP JUMPDEST NUMBER JUMPDEST DUP2 MSTORE PUSH1 0x20 ADD PUSH1 0x0 DUP2 MSTORE POP SWAP1 DUP1 PUSH1 0x1 DUP2 SLOAD ADD DUP1 DUP3 SSTORE DUP1 SWAP2 POP POP PUSH1 0x1 SWAP1 SUB SWAP1 PUSH1 0x0 MSTORE PUSH1 0x20 PUSH1 0x0 KECCAK256 SWAP1 PUSH1 0x4 MUL ADD PUSH1 0x0 SWAP1 SWAP2 SWAP1 SWAP2 SWAP1 SWAP2 POP PUSH1 0x0 DUP3 ADD MLOAD DUP2 PUSH1 0x0 ADD PUSH1 0x0 PUSH2 0x100 EXP DUP2 SLOAD DUP2 PUSH20 0xFFFFFFFFFFFFFFFFFFFFFFFFFFFFFFFFFFFFFFFF MUL NOT AND SWAP1 DUP4 PUSH20 0xFFFFFFFFFFFFFFFFFFFFFFFFFFFFFFFFFFFFFFFF AND MUL OR SWAP1 SSTORE POP PUSH1 0x20 DUP3 ADD MLOAD DUP2 PUSH1 0x1 ADD SSTORE PUSH1 0x40 DUP3 ADD MLOAD DUP2 PUSH1 0x2 ADD SSTORE PUSH1 0x60 DUP3 ADD MLOAD DUP2 PUSH1 0x3 ADD SSTORE POP POP POP POP POP JUMP JUMPDEST PUSH1 0x0 PUSH1 0x6 DUP4 DUP2 SLOAD DUP2 LT PUSH2 0x54F JUMPI PUSH2 0x54E PUSH2 0x1A7C JUMP JUMPDEST JUMPDEST SWAP1 PUSH1 0x0 MSTORE PUSH1 0x20 PUSH1 0x0 KECCAK256 SWAP1 PUSH1 0x4 MUL ADD SWAP1 POP PUSH1 0x0 PUSH1 0x7 PUSH1 0x0 DUP6 DUP2 MSTORE PUSH1 0x20 ADD SWAP1 DUP2 MSTORE PUSH1 0x20 ADD PUSH1 0x0 KECCAK256 PUSH1 0x0 CALLER PUSH20 0xFFFFFFFFFFFFFFFFFFFFFFFFFFFFFFFFFFFFFFFF AND PUSH20 0xFFFFFFFFFFFFFFFFFFFFFFFFFFFFFFFFFFFFFFFF AND DUP2 MSTORE PUSH1 0x20 ADD SWAP1 DUP2 MSTORE PUSH1 0x20 ADD PUSH1 0x0 KECCAK256 SWAP1 POP DUP3 DUP2 PUSH1 0x0 ADD SLOAD LT ISZERO PUSH2 0x5FA JUMPI PUSH1 0x40 MLOAD PUSH32 0x8C379A000000000000000000000000000000000000000000000000000000000 DUP2 MSTORE PUSH1 0x4 ADD PUSH2 0x5F1 SWAP1 PUSH2 0x1B08 JUMP JUMPDEST PUSH1 0x40 MLOAD DUP1 SWAP2 SUB SWAP1 REVERT JUMPDEST PUSH2 0x603 DUP5 PUSH2 0x7DE JUMP JUMPDEST PUSH1 0x0 DUP2 PUSH1 0x1 ADD SLOAD PUSH5 0xE8D4A51000 DUP5 PUSH1 0x3 ADD SLOAD DUP5 PUSH1 0x0 ADD SLOAD PUSH2 0x624 SWAP2 SWAP1 PUSH2 0x1B28 JUMP JUMPDEST PUSH2 0x62E SWAP2 SWAP1 PUSH2 0x1B99 JUMP JUMPDEST PUSH2 0x638 SWAP2 SWAP1 PUSH2 0x1BCA JUMP JUMPDEST SWAP1 POP PUSH1 0x0 DUP2 GT ISZERO PUSH2 0x691 JUMPI PUSH2 0x690 CALLER DUP3 PUSH1 0x1 PUSH1 0x0 SWAP1 SLOAD SWAP1 PUSH2 0x100 EXP SWAP1 DIV PUSH20 0xFFFFFFFFFFFFFFFFFFFFFFFFFFFFFFFFFFFFFFFF AND PUSH20 0xFFFFFFFFFFFFFFFFFFFFFFFFFFFFFFFFFFFFFFFF AND PUSH2 0x1210 SWAP1 SWAP3 SWAP2 SWAP1 PUSH4 0xFFFFFFFF AND JUMP JUMPDEST JUMPDEST PUSH1 0x0 DUP5 GT ISZERO PUSH2 0x756 JUMPI DUP4 DUP3 PUSH1 0x0 ADD SLOAD PUSH2 0x6AA SWAP2 SWAP1 PUSH2 0x1BCA JUMP JUMPDEST DUP3 PUSH1 0x0 ADD DUP2 SWAP1 SSTORE POP DUP3 PUSH1 0x0 ADD PUSH1 0x0 SWAP1 SLOAD SWAP1 PUSH2 0x100 EXP SWAP1 DIV PUSH20 0xFFFFFFFFFFFFFFFFFFFFFFFFFFFFFFFFFFFFFFFF AND PUSH20 0xFFFFFFFFFFFFFFFFFFFFFFFFFFFFFFFFFFFFFFFF AND PUSH4 0xA9059CBB CALLER DUP7 PUSH1 0x40 MLOAD DUP4 PUSH4 0xFFFFFFFF AND PUSH1 0xE0 SHL DUP2 MSTORE PUSH1 0x4 ADD PUSH2 0x711 SWAP3 SWAP2 SWAP1 PUSH2 0x1BFE JUMP JUMPDEST PUSH1 0x20 PUSH1 0x40 MLOAD DUP1 DUP4 SUB DUP2 PUSH1 0x0 DUP8 GAS CALL ISZERO DUP1 ISZERO PUSH2 0x730 JUMPI RETURNDATASIZE PUSH1 0x0 DUP1 RETURNDATACOPY RETURNDATASIZE PUSH1 0x0 REVERT JUMPDEST POP POP POP POP PUSH1 0x40 MLOAD RETURNDATASIZE PUSH1 0x1F NOT PUSH1 0x1F DUP3 ADD AND DUP3 ADD DUP1 PUSH1 0x40 MSTORE POP DUP2 ADD SWAP1 PUSH2 0x754 SWAP2 SWAP1 PUSH2 0x1C3C JUMP JUMPDEST POP JUMPDEST PUSH5 0xE8D4A51000 DUP4 PUSH1 0x3 ADD SLOAD DUP4 PUSH1 0x0 ADD SLOAD PUSH2 0x770 SWAP2 SWAP1 PUSH2 0x1B28 JUMP JUMPDEST PUSH2 0x77A SWAP2 SWAP1 PUSH2 0x1B99 JUMP JUMPDEST DUP3 PUSH1 0x1 ADD DUP2 SWAP1 SSTORE POP DUP5 CALLER PUSH20 0xFFFFFFFFFFFFFFFFFFFFFFFFFFFFFFFFFFFFFFFF AND PUSH32 0xF279E6A1F5E320CCA91135676D9CB6E44CA8A08C0B88342BCDB1144F6511B568 DUP7 PUSH1 0x40 MLOAD PUSH2 0x7C9 SWAP2 SWAP1 PUSH2 0x1667 JUMP JUMPDEST PUSH1 0x40 MLOAD DUP1 SWAP2 SUB SWAP1 LOG3 POP POP POP POP POP JUMP JUMPDEST PUSH1 0x4 SLOAD DUP2 JUMP JUMPDEST PUSH1 0x0 PUSH1 0x6 DUP3 DUP2 SLOAD DUP2 LT PUSH2 0x7F4 JUMPI PUSH2 0x7F3 PUSH2 0x1A7C JUMP JUMPDEST JUMPDEST SWAP1 PUSH1 0x0 MSTORE PUSH1 0x20 PUSH1 0x0 KECCAK256 SWAP1 PUSH1 0x4 MUL ADD SWAP1 POP DUP1 PUSH1 0x2 ADD SLOAD NUMBER GT PUSH2 0x815 JUMPI POP PUSH2 0x97A JUMP JUMPDEST PUSH1 0x0 DUP2 PUSH1 0x0 ADD PUSH1 0x0 SWAP1 SLOAD SWAP1 PUSH2 0x100 EXP SWAP1 DIV PUSH20 0xFFFFFFFFFFFFFFFFFFFFFFFFFFFFFFFFFFFFFFFF AND PUSH20 0xFFFFFFFFFFFFFFFFFFFFFFFFFFFFFFFFFFFFFFFF AND PUSH4 0x70A08231 ADDRESS PUSH1 0x40 MLOAD DUP3 PUSH4 0xFFFFFFFF AND PUSH1 0xE0 SHL DUP2 MSTORE PUSH1 0x4 ADD PUSH2 0x874 SWAP2 SWAP1 PUSH2 0x1921 JUMP JUMPDEST PUSH1 0x20 PUSH1 0x40 MLOAD DUP1 DUP4 SUB DUP2 DUP7 GAS STATICCALL ISZERO DUP1 ISZERO PUSH2 0x891 JUMPI RETURNDATASIZE PUSH1 0x0 DUP1 RETURNDATACOPY RETURNDATASIZE PUSH1 0x0 REVERT JUMPDEST POP POP POP POP PUSH1 0x40 MLOAD RETURNDATASIZE PUSH1 0x1F NOT PUSH1 0x1F DUP3 ADD AND DUP3 ADD DUP1 PUSH1 0x40 MSTORE POP DUP2 ADD SWAP1 PUSH2 0x8B5 SWAP2 SWAP1 PUSH2 0x1C7E JUMP JUMPDEST SWAP1 POP PUSH1 0x0 DUP2 SUB PUSH2 0x8CF JUMPI NUMBER DUP3 PUSH1 0x2 ADD DUP2 SWAP1 SSTORE POP POP POP PUSH2 0x97A JUMP JUMPDEST PUSH1 0x0 PUSH2 0x8DF DUP4 PUSH1 0x2 ADD SLOAD NUMBER PUSH2 0xC15 JUMP JUMPDEST SWAP1 POP PUSH1 0x0 PUSH2 0x922 PUSH1 0x3 SLOAD PUSH2 0x914 DUP7 PUSH1 0x1 ADD SLOAD PUSH2 0x906 PUSH1 0x2 SLOAD DUP8 PUSH2 0x1296 SWAP1 SWAP2 SWAP1 PUSH4 0xFFFFFFFF AND JUMP JUMPDEST PUSH2 0x1296 SWAP1 SWAP2 SWAP1 PUSH4 0xFFFFFFFF AND JUMP JUMPDEST PUSH2 0x12AC SWAP1 SWAP2 SWAP1 PUSH4 0xFFFFFFFF AND JUMP JUMPDEST SWAP1 POP PUSH2 0x964 PUSH2 0x951 DUP5 PUSH2 0x943 PUSH5 0xE8D4A51000 DUP6 PUSH2 0x1296 SWAP1 SWAP2 SWAP1 PUSH4 0xFFFFFFFF AND JUMP JUMPDEST PUSH2 0x12AC SWAP1 SWAP2 SWAP1 PUSH4 0xFFFFFFFF AND JUMP JUMPDEST DUP6 PUSH1 0x3 ADD SLOAD PUSH2 0x12C2 SWAP1 SWAP2 SWAP1 PUSH4 0xFFFFFFFF AND JUMP JUMPDEST DUP5 PUSH1 0x3 ADD DUP2 SWAP1 SSTORE POP NUMBER DUP5 PUSH1 0x2 ADD DUP2 SWAP1 SSTORE POP POP POP POP POP JUMPDEST POP JUMP JUMPDEST PUSH1 0x0 PUSH1 0x7 PUSH1 0x0 DUP4 DUP2 MSTORE PUSH1 0x20 ADD SWAP1 DUP2 MSTORE PUSH1 0x20 ADD PUSH1 0x0 KECCAK256 PUSH1 0x0 CALLER PUSH20 0xFFFFFFFFFFFFFFFFFFFFFFFFFFFFFFFFFFFFFFFF AND PUSH20 0xFFFFFFFFFFFFFFFFFFFFFFFFFFFFFFFFFFFFFFFF AND DUP2 MSTORE PUSH1 0x20 ADD SWAP1 DUP2 MSTORE PUSH1 0x20 ADD PUSH1 0x0 KECCAK256 SWAP1 POP PUSH1 0x6 DUP3 DUP2 SLOAD DUP2 LT PUSH2 0x9E5 JUMPI PUSH2 0x9E4 PUSH2 0x1A7C JUMP JUMPDEST JUMPDEST SWAP1 PUSH1 0x0 MSTORE PUSH1 0x20 PUSH1 0x0 KECCAK256 SWAP1 PUSH1 0x4 MUL ADD PUSH1 0x0 ADD PUSH1 0x0 SWAP1 SLOAD SWAP1 PUSH2 0x100 EXP SWAP1 DIV PUSH20 0xFFFFFFFFFFFFFFFFFFFFFFFFFFFFFFFFFFFFFFFF AND PUSH20 0xFFFFFFFFFFFFFFFFFFFFFFFFFFFFFFFFFFFFFFFF AND PUSH4 0xA9059CBB CALLER DUP4 PUSH1 0x0 ADD SLOAD PUSH1 0x40 MLOAD DUP4 PUSH4 0xFFFFFFFF AND PUSH1 0xE0 SHL DUP2 MSTORE PUSH1 0x4 ADD PUSH2 0xA55 SWAP3 SWAP2 SWAP1 PUSH2 0x1BFE JUMP JUMPDEST PUSH1 0x20 PUSH1 0x40 MLOAD DUP1 DUP4 SUB DUP2 PUSH1 0x0 DUP8 GAS CALL ISZERO DUP1 ISZERO PUSH2 0xA74 JUMPI RETURNDATASIZE PUSH1 0x0 DUP1 RETURNDATACOPY RETURNDATASIZE PUSH1 0x0 REVERT JUMPDEST POP POP POP POP PUSH1 0x40 MLOAD RETURNDATASIZE PUSH1 0x1F NOT PUSH1 0x1F DUP3 ADD AND DUP3 ADD DUP1 PUSH1 0x40 MSTORE POP DUP2 ADD SWAP1 PUSH2 0xA98 SWAP2 SWAP1 PUSH2 0x1C3C JUMP JUMPDEST POP DUP2 CALLER PUSH20 0xFFFFFFFFFFFFFFFFFFFFFFFFFFFFFFFFFFFFFFFF AND PUSH32 0xBB757047C2B5F3974FE26B7C10F732E7BCE710B0952A71082702781E62AE0595 DUP4 PUSH1 0x0 ADD SLOAD PUSH1 0x40 MLOAD PUSH2 0xAE4 SWAP2 SWAP1 PUSH2 0x1667 JUMP JUMPDEST PUSH1 0x40 MLOAD DUP1 SWAP2 SUB SWAP1 LOG3 PUSH1 0x0 DUP2 PUSH1 0x0 ADD DUP2 SWAP1 SSTORE POP PUSH1 0x0 DUP2 PUSH1 0x1 ADD DUP2 SWAP1 SSTORE POP POP POP JUMP JUMPDEST PUSH1 0x0 PUSH1 0x6 DUP1 SLOAD SWAP1 POP SWAP1 POP PUSH1 0x0 JUMPDEST DUP2 DUP2 LT ISZERO PUSH2 0xB33 JUMPI PUSH2 0xB22 DUP2 PUSH2 0x7DE JUMP JUMPDEST DUP1 PUSH2 0xB2C SWAP1 PUSH2 0x1CAB JUMP JUMPDEST SWAP1 POP PUSH2 0xB11 JUMP JUMPDEST POP POP JUMP JUMPDEST PUSH2 0xB3F PUSH2 0x1192 JUMP JUMPDEST DUP1 ISZERO PUSH2 0xB4E JUMPI PUSH2 0xB4D PUSH2 0xB04 JUMP JUMPDEST JUMPDEST DUP2 PUSH1 0x6 DUP5 DUP2 SLOAD DUP2 LT PUSH2 0xB63 JUMPI PUSH2 0xB62 PUSH2 0x1A7C JUMP JUMPDEST JUMPDEST SWAP1 PUSH1 0x0 MSTORE PUSH1 0x20 PUSH1 0x0 KECCAK256 SWAP1 PUSH1 0x4 MUL ADD PUSH1 0x1 ADD SLOAD PUSH1 0x3 SLOAD PUSH2 0xB82 SWAP2 SWAP1 PUSH2 0x1BCA JUMP JUMPDEST PUSH2 0xB8C SWAP2 SWAP1 PUSH2 0x1A48 JUMP JUMPDEST PUSH1 0x3 DUP2 SWAP1 SSTORE POP DUP2 PUSH1 0x6 DUP5 DUP2 SLOAD DUP2 LT PUSH2 0xBA7 JUMPI PUSH2 0xBA6 PUSH2 0x1A7C JUMP JUMPDEST JUMPDEST SWAP1 PUSH1 0x0 MSTORE PUSH1 0x20 PUSH1 0x0 KECCAK256 SWAP1 PUSH1 0x4 MUL ADD PUSH1 0x1 ADD DUP2 SWAP1 SSTORE POP POP POP POP JUMP JUMPDEST PUSH2 0xBC9 PUSH2 0x1192 JUMP JUMPDEST PUSH2 0xBD3 PUSH1 0x0 PUSH2 0x12D8 JUMP JUMPDEST JUMP JUMPDEST PUSH2 0xBDD PUSH2 0x1192 JUMP JUMPDEST NUMBER PUSH1 0x5 DUP2 SWAP1 SSTORE POP JUMP JUMPDEST PUSH1 0x2 SLOAD DUP2 JUMP JUMPDEST PUSH1 0x0 DUP1 PUSH1 0x0 SWAP1 SLOAD SWAP1 PUSH2 0x100 EXP SWAP1 DIV PUSH20 0xFFFFFFFFFFFFFFFFFFFFFFFFFFFFFFFFFFFFFFFF AND SWAP1 POP SWAP1 JUMP JUMPDEST PUSH1 0x0 PUSH1 0x5 SLOAD DUP3 GT PUSH2 0xC3A JUMPI PUSH2 0xC33 DUP4 DUP4 PUSH2 0x139C SWAP1 SWAP2 SWAP1 PUSH4 0xFFFFFFFF AND JUMP JUMPDEST SWAP1 POP PUSH2 0xC64 JUMP JUMPDEST PUSH1 0x5 SLOAD DUP4 LT PUSH2 0xC4C JUMPI PUSH1 0x0 SWAP1 POP PUSH2 0xC64 JUMP JUMPDEST PUSH2 0xC61 DUP4 PUSH1 0x5 SLOAD PUSH2 0x139C SWAP1 SWAP2 SWAP1 PUSH4 0xFFFFFFFF AND JUMP JUMPDEST SWAP1 POP JUMPDEST SWAP3 SWAP2 POP POP JUMP JUMPDEST PUSH1 0x7 PUSH1 0x20 MSTORE DUP2 PUSH1 0x0 MSTORE PUSH1 0x40 PUSH1 0x0 KECCAK256 PUSH1 0x20 MSTORE DUP1 PUSH1 0x0 MSTORE PUSH1 0x40 PUSH1 0x0 KECCAK256 PUSH1 0x0 SWAP2 POP SWAP2 POP POP DUP1 PUSH1 0x0 ADD SLOAD SWAP1 DUP1 PUSH1 0x1 ADD SLOAD SWAP1 POP DUP3 JUMP JUMPDEST PUSH1 0x0 DUP1 PUSH1 0x6 DUP5 DUP2 SLOAD DUP2 LT PUSH2 0xCB2 JUMPI PUSH2 0xCB1 PUSH2 0x1A7C JUMP JUMPDEST JUMPDEST SWAP1 PUSH1 0x0 MSTORE PUSH1 0x20 PUSH1 0x0 KECCAK256 SWAP1 PUSH1 0x4 MUL ADD SWAP1 POP PUSH1 0x0 PUSH1 0x7 PUSH1 0x0 DUP7 DUP2 MSTORE PUSH1 0x20 ADD SWAP1 DUP2 MSTORE PUSH1 0x20 ADD PUSH1 0x0 KECCAK256 PUSH1 0x0 DUP6 PUSH20 0xFFFFFFFFFFFFFFFFFFFFFFFFFFFFFFFFFFFFFFFF AND PUSH20 0xFFFFFFFFFFFFFFFFFFFFFFFFFFFFFFFFFFFFFFFF AND DUP2 MSTORE PUSH1 0x20 ADD SWAP1 DUP2 MSTORE PUSH1 0x20 ADD PUSH1 0x0 KECCAK256 SWAP1 POP PUSH1 0x0 DUP3 PUSH1 0x3 ADD SLOAD SWAP1 POP PUSH1 0x0 DUP4 PUSH1 0x0 ADD PUSH1 0x0 SWAP1 SLOAD SWAP1 PUSH2 0x100 EXP SWAP1 DIV PUSH20 0xFFFFFFFFFFFFFFFFFFFFFFFFFFFFFFFFFFFFFFFF AND PUSH20 0xFFFFFFFFFFFFFFFFFFFFFFFFFFFFFFFFFFFFFFFF AND PUSH4 0x70A08231 ADDRESS PUSH1 0x40 MLOAD DUP3 PUSH4 0xFFFFFFFF AND PUSH1 0xE0 SHL DUP2 MSTORE PUSH1 0x4 ADD PUSH2 0xD7E SWAP2 SWAP1 PUSH2 0x1921 JUMP JUMPDEST PUSH1 0x20 PUSH1 0x40 MLOAD DUP1 DUP4 SUB DUP2 DUP7 GAS STATICCALL ISZERO DUP1 ISZERO PUSH2 0xD9B JUMPI RETURNDATASIZE PUSH1 0x0 DUP1 RETURNDATACOPY RETURNDATASIZE PUSH1 0x0 REVERT JUMPDEST POP POP POP POP PUSH1 0x40 MLOAD RETURNDATASIZE PUSH1 0x1F NOT PUSH1 0x1F DUP3 ADD AND DUP3 ADD DUP1 PUSH1 0x40 MSTORE POP DUP2 ADD SWAP1 PUSH2 0xDBF SWAP2 SWAP1 PUSH2 0x1C7E JUMP JUMPDEST SWAP1 POP DUP4 PUSH1 0x2 ADD SLOAD NUMBER GT DUP1 ISZERO PUSH2 0xDD5 JUMPI POP PUSH1 0x0 DUP2 EQ ISZERO JUMPDEST ISZERO PUSH2 0xE46 JUMPI PUSH1 0x0 PUSH2 0xDEA DUP6 PUSH1 0x2 ADD SLOAD NUMBER PUSH2 0xC15 JUMP JUMPDEST SWAP1 POP PUSH1 0x0 PUSH1 0x3 SLOAD DUP7 PUSH1 0x1 ADD SLOAD PUSH1 0x2 SLOAD DUP5 PUSH2 0xE04 SWAP2 SWAP1 PUSH2 0x1B28 JUMP JUMPDEST PUSH2 0xE0E SWAP2 SWAP1 PUSH2 0x1B28 JUMP JUMPDEST PUSH2 0xE18 SWAP2 SWAP1 PUSH2 0x1B99 JUMP JUMPDEST SWAP1 POP DUP3 PUSH5 0xE8D4A51000 DUP3 PUSH2 0xE2C SWAP2 SWAP1 PUSH2 0x1B28 JUMP JUMPDEST PUSH2 0xE36 SWAP2 SWAP1 PUSH2 0x1B99 JUMP JUMPDEST DUP5 PUSH2 0xE41 SWAP2 SWAP1 PUSH2 0x1A48 JUMP JUMPDEST SWAP4 POP POP POP JUMPDEST DUP3 PUSH1 0x1 ADD SLOAD PUSH5 0xE8D4A51000 DUP4 DUP6 PUSH1 0x0 ADD SLOAD PUSH2 0xE61 SWAP2 SWAP1 PUSH2 0x1B28 JUMP JUMPDEST PUSH2 0xE6B SWAP2 SWAP1 PUSH2 0x1B99 JUMP JUMPDEST PUSH2 0xE75 SWAP2 SWAP1 PUSH2 0x1BCA JUMP JUMPDEST SWAP5 POP POP POP POP POP SWAP3 SWAP2 POP POP JUMP JUMPDEST PUSH1 0x0 PUSH1 0x6 DUP4 DUP2 SLOAD DUP2 LT PUSH2 0xE97 JUMPI PUSH2 0xE96 PUSH2 0x1A7C JUMP JUMPDEST JUMPDEST SWAP1 PUSH1 0x0 MSTORE PUSH1 0x20 PUSH1 0x0 KECCAK256 SWAP1 PUSH1 0x4 MUL ADD SWAP1 POP PUSH1 0x0 PUSH1 0x7 PUSH1 0x0 DUP6 DUP2 MSTORE PUSH1 0x20 ADD SWAP1 DUP2 MSTORE PUSH1 0x20 ADD PUSH1 0x0 KECCAK256 PUSH1 0x0 CALLER PUSH20 0xFFFFFFFFFFFFFFFFFFFFFFFFFFFFFFFFFFFFFFFF AND PUSH20 0xFFFFFFFFFFFFFFFFFFFFFFFFFFFFFFFFFFFFFFFF AND DUP2 MSTORE PUSH1 0x20 ADD SWAP1 DUP2 MSTORE PUSH1 0x20 ADD PUSH1 0x0 KECCAK256 SWAP1 POP PUSH2 0xF04 DUP5 PUSH2 0x7DE JUMP JUMPDEST PUSH1 0x0 DUP2 PUSH1 0x0 ADD SLOAD GT ISZERO PUSH2 0xFA1 JUMPI PUSH1 0x0 DUP2 PUSH1 0x1 ADD SLOAD PUSH5 0xE8D4A51000 DUP5 PUSH1 0x3 ADD SLOAD DUP5 PUSH1 0x0 ADD SLOAD PUSH2 0xF32 SWAP2 SWAP1 PUSH2 0x1B28 JUMP JUMPDEST PUSH2 0xF3C SWAP2 SWAP1 PUSH2 0x1B99 JUMP JUMPDEST PUSH2 0xF46 SWAP2 SWAP1 PUSH2 0x1BCA JUMP JUMPDEST SWAP1 POP PUSH1 0x0 DUP2 GT ISZERO PUSH2 0xF9F JUMPI PUSH2 0xF9E CALLER DUP3 PUSH1 0x1 PUSH1 0x0 SWAP1 SLOAD SWAP1 PUSH2 0x100 EXP SWAP1 DIV PUSH20 0xFFFFFFFFFFFFFFFFFFFFFFFFFFFFFFFFFFFFFFFF AND PUSH20 0xFFFFFFFFFFFFFFFFFFFFFFFFFFFFFFFFFFFFFFFF AND PUSH2 0x1210 SWAP1 SWAP3 SWAP2 SWAP1 PUSH4 0xFFFFFFFF AND JUMP JUMPDEST JUMPDEST POP JUMPDEST PUSH1 0x0 DUP4 GT ISZERO PUSH2 0x1068 JUMPI DUP2 PUSH1 0x0 ADD PUSH1 0x0 SWAP1 SLOAD SWAP1 PUSH2 0x100 EXP SWAP1 DIV PUSH20 0xFFFFFFFFFFFFFFFFFFFFFFFFFFFFFFFFFFFFFFFF AND PUSH20 0xFFFFFFFFFFFFFFFFFFFFFFFFFFFFFFFFFFFFFFFF AND PUSH4 0x23B872DD CALLER ADDRESS DUP7 PUSH1 0x40 MLOAD DUP5 PUSH4 0xFFFFFFFF AND PUSH1 0xE0 SHL DUP2 MSTORE PUSH1 0x4 ADD PUSH2 0x100B SWAP4 SWAP3 SWAP2 SWAP1 PUSH2 0x1CF3 JUMP JUMPDEST PUSH1 0x20 PUSH1 0x40 MLOAD DUP1 DUP4 SUB DUP2 PUSH1 0x0 DUP8 GAS CALL ISZERO DUP1 ISZERO PUSH2 0x102A JUMPI RETURNDATASIZE PUSH1 0x0 DUP1 RETURNDATACOPY RETURNDATASIZE PUSH1 0x0 REVERT JUMPDEST POP POP POP POP PUSH1 0x40 MLOAD RETURNDATASIZE PUSH1 0x1F NOT PUSH1 0x1F DUP3 ADD AND DUP3 ADD DUP1 PUSH1 0x40 MSTORE POP DUP2 ADD SWAP1 PUSH2 0x104E SWAP2 SWAP1 PUSH2 0x1C3C JUMP JUMPDEST POP DUP3 DUP2 PUSH1 0x0 ADD SLOAD PUSH2 0x105F SWAP2 SWAP1 PUSH2 0x1A48 JUMP JUMPDEST DUP2 PUSH1 0x0 ADD DUP2 SWAP1 SSTORE POP JUMPDEST PUSH5 0xE8D4A51000 DUP3 PUSH1 0x3 ADD SLOAD DUP3 PUSH1 0x0 ADD SLOAD PUSH2 0x1082 SWAP2 SWAP1 PUSH2 0x1B28 JUMP JUMPDEST PUSH2 0x108C SWAP2 SWAP1 PUSH2 0x1B99 JUMP JUMPDEST DUP2 PUSH1 0x1 ADD DUP2 SWAP1 SSTORE POP DUP4 CALLER PUSH20 0xFFFFFFFFFFFFFFFFFFFFFFFFFFFFFFFFFFFFFFFF AND PUSH32 0x90890809C654F11D6E72A28FA60149770A0D11EC6C92319D6CEB2BB0A4EA1A15 DUP6 PUSH1 0x40 MLOAD PUSH2 0x10DB SWAP2 SWAP1 PUSH2 0x1667 JUMP JUMPDEST PUSH1 0x40 MLOAD DUP1 SWAP2 SUB SWAP1 LOG3 POP POP POP POP JUMP JUMPDEST PUSH2 0x10F1 PUSH2 0x1192 JUMP JUMPDEST PUSH1 0x0 PUSH20 0xFFFFFFFFFFFFFFFFFFFFFFFFFFFFFFFFFFFFFFFF AND DUP2 PUSH20 0xFFFFFFFFFFFFFFFFFFFFFFFFFFFFFFFFFFFFFFFF AND SUB PUSH2 0x1160 JUMPI PUSH1 0x40 MLOAD PUSH32 0x8C379A000000000000000000000000000000000000000000000000000000000 DUP2 MSTORE PUSH1 0x4 ADD PUSH2 0x1157 SWAP1 PUSH2 0x1D9C JUMP JUMPDEST PUSH1 0x40 MLOAD DUP1 SWAP2 SUB SWAP1 REVERT JUMPDEST PUSH2 0x1169 DUP2 PUSH2 0x12D8 JUMP JUMPDEST POP JUMP JUMPDEST PUSH1 0x1 PUSH1 0x0 SWAP1 SLOAD SWAP1 PUSH2 0x100 EXP SWAP1 DIV PUSH20 0xFFFFFFFFFFFFFFFFFFFFFFFFFFFFFFFFFFFFFFFF AND DUP2 JUMP JUMPDEST PUSH2 0x119A PUSH2 0x13B2 JUMP JUMPDEST PUSH20 0xFFFFFFFFFFFFFFFFFFFFFFFFFFFFFFFFFFFFFFFF AND PUSH2 0x11B8 PUSH2 0xBEC JUMP JUMPDEST PUSH20 0xFFFFFFFFFFFFFFFFFFFFFFFFFFFFFFFFFFFFFFFF AND EQ PUSH2 0x120E JUMPI PUSH1 0x40 MLOAD PUSH32 0x8C379A000000000000000000000000000000000000000000000000000000000 DUP2 MSTORE PUSH1 0x4 ADD PUSH2 0x1205 SWAP1 PUSH2 0x1E08 JUMP JUMPDEST PUSH1 0x40 MLOAD DUP1 SWAP2 SUB SWAP1 REVERT JUMPDEST JUMP JUMPDEST PUSH2 0x1291 DUP4 PUSH4 0xA9059CBB PUSH1 0xE0 SHL DUP5 DUP5 PUSH1 0x40 MLOAD PUSH1 0x24 ADD PUSH2 0x122F SWAP3 SWAP2 SWAP1 PUSH2 0x1BFE JUMP JUMPDEST PUSH1 0x40 MLOAD PUSH1 0x20 DUP2 DUP4 SUB SUB DUP2 MSTORE SWAP1 PUSH1 0x40 MSTORE SWAP1 PUSH28 0xFFFFFFFFFFFFFFFFFFFFFFFFFFFFFFFFFFFFFFFFFFFFFFFFFFFFFFFF NOT AND PUSH1 0x20 DUP3 ADD DUP1 MLOAD PUSH28 0xFFFFFFFFFFFFFFFFFFFFFFFFFFFFFFFFFFFFFFFFFFFFFFFFFFFFFFFF DUP4 DUP2 DUP4 AND OR DUP4 MSTORE POP POP POP POP PUSH2 0x13BA JUMP JUMPDEST POP POP POP JUMP JUMPDEST PUSH1 0x0 DUP2 DUP4 PUSH2 0x12A4 SWAP2 SWAP1 PUSH2 0x1B28 JUMP JUMPDEST SWAP1 POP SWAP3 SWAP2 POP POP JUMP JUMPDEST PUSH1 0x0 DUP2 DUP4 PUSH2 0x12BA SWAP2 SWAP1 PUSH2 0x1B99 JUMP JUMPDEST SWAP1 POP SWAP3 SWAP2 POP POP JUMP JUMPDEST PUSH1 0x0 DUP2 DUP4 PUSH2 0x12D0 SWAP2 SWAP1 PUSH2 0x1A48 JUMP JUMPDEST SWAP1 POP SWAP3 SWAP2 POP POP JUMP JUMPDEST PUSH1 0x0 DUP1 PUSH1 0x0 SWAP1 SLOAD SWAP1 PUSH2 0x100 EXP SWAP1 DIV PUSH20 0xFFFFFFFFFFFFFFFFFFFFFFFFFFFFFFFFFFFFFFFF AND SWAP1 POP DUP2 PUSH1 0x0 DUP1 PUSH2 0x100 EXP DUP2 SLOAD DUP2 PUSH20 0xFFFFFFFFFFFFFFFFFFFFFFFFFFFFFFFFFFFFFFFF MUL NOT AND SWAP1 DUP4 PUSH20 0xFFFFFFFFFFFFFFFFFFFFFFFFFFFFFFFFFFFFFFFF AND MUL OR SWAP1 SSTORE POP DUP2 PUSH20 0xFFFFFFFFFFFFFFFFFFFFFFFFFFFFFFFFFFFFFFFF AND DUP2 PUSH20 0xFFFFFFFFFFFFFFFFFFFFFFFFFFFFFFFFFFFFFFFF AND PUSH32 0x8BE0079C531659141344CD1FD0A4F28419497F9722A3DAAFE3B4186F6B6457E0 PUSH1 0x40 MLOAD PUSH1 0x40 MLOAD DUP1 SWAP2 SUB SWAP1 LOG3 POP POP JUMP JUMPDEST PUSH1 0x0 DUP2 DUP4 PUSH2 0x13AA SWAP2 SWAP1 PUSH2 0x1BCA JUMP JUMPDEST SWAP1 POP SWAP3 SWAP2 POP POP JUMP JUMPDEST PUSH1 0x0 CALLER SWAP1 POP SWAP1 JUMP JUMPDEST PUSH1 0x0 PUSH2 0x141C DUP3 PUSH1 0x40 MLOAD DUP1 PUSH1 0x40 ADD PUSH1 0x40 MSTORE DUP1 PUSH1 0x20 DUP2 MSTORE PUSH1 0x20 ADD PUSH32 0x5361666545524332303A206C6F772D6C6576656C2063616C6C206661696C6564 DUP2 MSTORE POP DUP6 PUSH20 0xFFFFFFFFFFFFFFFFFFFFFFFFFFFFFFFFFFFFFFFF AND PUSH2 0x1481 SWAP1 SWAP3 SWAP2 SWAP1 PUSH4 0xFFFFFFFF AND JUMP JUMPDEST SWAP1 POP PUSH1 0x0 DUP2 MLOAD GT ISZERO PUSH2 0x147C JUMPI DUP1 DUP1 PUSH1 0x20 ADD SWAP1 MLOAD DUP2 ADD SWAP1 PUSH2 0x143C SWAP2 SWAP1 PUSH2 0x1C3C JUMP JUMPDEST PUSH2 0x147B JUMPI PUSH1 0x40 MLOAD PUSH32 0x8C379A000000000000000000000000000000000000000000000000000000000 DUP2 MSTORE PUSH1 0x4 ADD PUSH2 0x1472 SWAP1 PUSH2 0x1E9A JUMP JUMPDEST PUSH1 0x40 MLOAD DUP1 SWAP2 SUB SWAP1 REVERT JUMPDEST JUMPDEST POP POP POP JUMP JUMPDEST PUSH1 0x60 PUSH2 0x1490 DUP5 DUP5 PUSH1 0x0 DUP6 PUSH2 0x1499 JUMP JUMPDEST SWAP1 POP SWAP4 SWAP3 POP POP POP JUMP JUMPDEST PUSH1 0x60 DUP3 SELFBALANCE LT ISZERO PUSH2 0x14DE JUMPI PUSH1 0x40 MLOAD PUSH32 0x8C379A000000000000000000000000000000000000000000000000000000000 DUP2 MSTORE PUSH1 0x4 ADD PUSH2 0x14D5 SWAP1 PUSH2 0x1F2C JUMP JUMPDEST PUSH1 0x40 MLOAD DUP1 SWAP2 SUB SWAP1 REVERT JUMPDEST PUSH1 0x0 DUP1 DUP7 PUSH20 0xFFFFFFFFFFFFFFFFFFFFFFFFFFFFFFFFFFFFFFFF AND DUP6 DUP8 PUSH1 0x40 MLOAD PUSH2 0x1507 SWAP2 SWAP1 PUSH2 0x1FBD JUMP JUMPDEST PUSH1 0x0 PUSH1 0x40 MLOAD DUP1 DUP4 SUB DUP2 DUP6 DUP8 GAS CALL SWAP3 POP POP POP RETURNDATASIZE DUP1 PUSH1 0x0 DUP2 EQ PUSH2 0x1544 JUMPI PUSH1 0x40 MLOAD SWAP2 POP PUSH1 0x1F NOT PUSH1 0x3F RETURNDATASIZE ADD AND DUP3 ADD PUSH1 0x40 MSTORE RETURNDATASIZE DUP3 MSTORE RETURNDATASIZE PUSH1 0x0 PUSH1 0x20 DUP5 ADD RETURNDATACOPY PUSH2 0x1549 JUMP JUMPDEST PUSH1 0x60 SWAP2 POP JUMPDEST POP SWAP2 POP SWAP2 POP PUSH2 0x155A DUP8 DUP4 DUP4 DUP8 PUSH2 0x1566 JUMP JUMPDEST SWAP3 POP POP POP SWAP5 SWAP4 POP POP POP POP JUMP JUMPDEST PUSH1 0x60 DUP4 ISZERO PUSH2 0x15C8 JUMPI PUSH1 0x0 DUP4 MLOAD SUB PUSH2 0x15C0 JUMPI PUSH2 0x1580 DUP6 PUSH2 0x15DB JUMP JUMPDEST PUSH2 0x15BF JUMPI PUSH1 0x40 MLOAD PUSH32 0x8C379A000000000000000000000000000000000000000000000000000000000 DUP2 MSTORE PUSH1 0x4 ADD PUSH2 0x15B6 SWAP1 PUSH2 0x2020 JUMP JUMPDEST PUSH1 0x40 MLOAD DUP1 SWAP2 SUB SWAP1 REVERT JUMPDEST JUMPDEST DUP3 SWAP1 POP PUSH2 0x15D3 JUMP JUMPDEST PUSH2 0x15D2 DUP4 DUP4 PUSH2 0x15FE JUMP JUMPDEST JUMPDEST SWAP5 SWAP4 POP POP POP POP JUMP JUMPDEST PUSH1 0x0 DUP1 DUP3 PUSH20 0xFFFFFFFFFFFFFFFFFFFFFFFFFFFFFFFFFFFFFFFF AND EXTCODESIZE GT SWAP1 POP SWAP2 SWAP1 POP JUMP JUMPDEST PUSH1 0x0 DUP3 MLOAD GT ISZERO PUSH2 0x1611 JUMPI DUP2 MLOAD DUP1 DUP4 PUSH1 0x20 ADD REVERT JUMPDEST DUP1 PUSH1 0x40 MLOAD PUSH32 0x8C379A000000000000000000000000000000000000000000000000000000000 DUP2 MSTORE PUSH1 0x4 ADD PUSH2 0x1645 SWAP2 SWAP1 PUSH2 0x2095 JUMP JUMPDEST PUSH1 0x40 MLOAD DUP1 SWAP2 SUB SWAP1 REVERT JUMPDEST PUSH1 0x0 DUP2 SWAP1 POP SWAP2 SWAP1 POP JUMP JUMPDEST PUSH2 0x1661 DUP2 PUSH2 0x164E JUMP JUMPDEST DUP3 MSTORE POP POP JUMP JUMPDEST PUSH1 0x0 PUSH1 0x20 DUP3 ADD SWAP1 POP PUSH2 0x167C PUSH1 0x0 DUP4 ADD DUP5 PUSH2 0x1658 JUMP JUMPDEST SWAP3 SWAP2 POP POP JUMP JUMPDEST PUSH1 0x0 DUP1 REVERT JUMPDEST PUSH2 0x1690 DUP2 PUSH2 0x164E JUMP JUMPDEST DUP2 EQ PUSH2 0x169B JUMPI PUSH1 0x0 DUP1 REVERT JUMPDEST POP JUMP JUMPDEST PUSH1 0x0 DUP2 CALLDATALOAD SWAP1 POP PUSH2 0x16AD DUP2 PUSH2 0x1687 JUMP JUMPDEST SWAP3 SWAP2 POP POP JUMP JUMPDEST PUSH1 0x0 PUSH1 0x20 DUP3 DUP5 SUB SLT ISZERO PUSH2 0x16C9 JUMPI PUSH2 0x16C8 PUSH2 0x1682 JUMP JUMPDEST JUMPDEST PUSH1 0x0 PUSH2 0x16D7 DUP5 DUP3 DUP6 ADD PUSH2 0x169E JUMP JUMPDEST SWAP2 POP POP SWAP3 SWAP2 POP POP JUMP JUMPDEST PUSH1 0x0 PUSH20 0xFFFFFFFFFFFFFFFFFFFFFFFFFFFFFFFFFFFFFFFF DUP3 AND SWAP1 POP SWAP2 SWAP1 POP JUMP JUMPDEST PUSH1 0x0 DUP2 SWAP1 POP SWAP2 SWAP1 POP JUMP JUMPDEST PUSH1 0x0 PUSH2 0x1725 PUSH2 0x1720 PUSH2 0x171B DUP5 PUSH2 0x16E0 JUMP JUMPDEST PUSH2 0x1700 JUMP JUMPDEST PUSH2 0x16E0 JUMP JUMPDEST SWAP1 POP SWAP2 SWAP1 POP JUMP JUMPDEST PUSH1 0x0 PUSH2 0x1737 DUP3 PUSH2 0x170A JUMP JUMPDEST SWAP1 POP SWAP2 SWAP1 POP JUMP JUMPDEST PUSH1 0x0 PUSH2 0x1749 DUP3 PUSH2 0x172C JUMP JUMPDEST SWAP1 POP SWAP2 SWAP1 POP JUMP JUMPDEST PUSH2 0x1759 DUP2 PUSH2 0x173E JUMP JUMPDEST DUP3 MSTORE POP POP JUMP JUMPDEST PUSH1 0x0 PUSH1 0x80 DUP3 ADD SWAP1 POP PUSH2 0x1774 PUSH1 0x0 DUP4 ADD DUP8 PUSH2 0x1750 JUMP JUMPDEST PUSH2 0x1781 PUSH1 0x20 DUP4 ADD DUP7 PUSH2 0x1658 JUMP JUMPDEST PUSH2 0x178E PUSH1 0x40 DUP4 ADD DUP6 PUSH2 0x1658 JUMP JUMPDEST PUSH2 0x179B PUSH1 0x60 DUP4 ADD DUP5 PUSH2 0x1658 JUMP JUMPDEST SWAP6 SWAP5 POP POP POP POP POP JUMP JUMPDEST PUSH1 0x0 PUSH2 0x17AF DUP3 PUSH2 0x16E0 JUMP JUMPDEST SWAP1 POP SWAP2 SWAP1 POP JUMP JUMPDEST PUSH1 0x0 PUSH2 0x17C1 DUP3 PUSH2 0x17A4 JUMP JUMPDEST SWAP1 POP SWAP2 SWAP1 POP JUMP JUMPDEST PUSH2 0x17D1 DUP2 PUSH2 0x17B6 JUMP JUMPDEST DUP2 EQ PUSH2 0x17DC JUMPI PUSH1 0x0 DUP1 REVERT JUMPDEST POP JUMP JUMPDEST PUSH1 0x0 DUP2 CALLDATALOAD SWAP1 POP PUSH2 0x17EE DUP2 PUSH2 0x17C8 JUMP JUMPDEST SWAP3 SWAP2 POP POP JUMP JUMPDEST PUSH1 0x0 DUP2 ISZERO ISZERO SWAP1 POP SWAP2 SWAP1 POP JUMP JUMPDEST PUSH2 0x1809 DUP2 PUSH2 0x17F4 JUMP JUMPDEST DUP2 EQ PUSH2 0x1814 JUMPI PUSH1 0x0 DUP1 REVERT JUMPDEST POP JUMP JUMPDEST PUSH1 0x0 DUP2 CALLDATALOAD SWAP1 POP PUSH2 0x1826 DUP2 PUSH2 0x1800 JUMP JUMPDEST SWAP3 SWAP2 POP POP JUMP JUMPDEST PUSH1 0x0 DUP1 PUSH1 0x0 PUSH1 0x60 DUP5 DUP7 SUB SLT ISZERO PUSH2 0x1845 JUMPI PUSH2 0x1844 PUSH2 0x1682 JUMP JUMPDEST JUMPDEST PUSH1 0x0 PUSH2 0x1853 DUP7 DUP3 DUP8 ADD PUSH2 0x169E JUMP JUMPDEST SWAP4 POP POP PUSH1 0x20 PUSH2 0x1864 DUP7 DUP3 DUP8 ADD PUSH2 0x17DF JUMP JUMPDEST SWAP3 POP POP PUSH1 0x40 PUSH2 0x1875 DUP7 DUP3 DUP8 ADD PUSH2 0x1817 JUMP JUMPDEST SWAP2 POP POP SWAP3 POP SWAP3 POP SWAP3 JUMP JUMPDEST PUSH1 0x0 DUP1 PUSH1 0x40 DUP4 DUP6 SUB SLT ISZERO PUSH2 0x1896 JUMPI PUSH2 0x1895 PUSH2 0x1682 JUMP JUMPDEST JUMPDEST PUSH1 0x0 PUSH2 0x18A4 DUP6 DUP3 DUP7 ADD PUSH2 0x169E JUMP JUMPDEST SWAP3 POP POP PUSH1 0x20 PUSH2 0x18B5 DUP6 DUP3 DUP7 ADD PUSH2 0x169E JUMP JUMPDEST SWAP2 POP POP SWAP3 POP SWAP3 SWAP1 POP JUMP JUMPDEST PUSH1 0x0 DUP1 PUSH1 0x0 PUSH1 0x60 DUP5 DUP7 SUB SLT ISZERO PUSH2 0x18D8 JUMPI PUSH2 0x18D7 PUSH2 0x1682 JUMP JUMPDEST JUMPDEST PUSH1 0x0 PUSH2 0x18E6 DUP7 DUP3 DUP8 ADD PUSH2 0x169E JUMP JUMPDEST SWAP4 POP POP PUSH1 0x20 PUSH2 0x18F7 DUP7 DUP3 DUP8 ADD PUSH2 0x169E JUMP JUMPDEST SWAP3 POP POP PUSH1 0x40 PUSH2 0x1908 DUP7 DUP3 DUP8 ADD PUSH2 0x1817 JUMP JUMPDEST SWAP2 POP POP SWAP3 POP SWAP3 POP SWAP3 JUMP JUMPDEST PUSH2 0x191B DUP2 PUSH2 0x17A4 JUMP JUMPDEST DUP3 MSTORE POP POP JUMP JUMPDEST PUSH1 0x0 PUSH1 0x20 DUP3 ADD SWAP1 POP PUSH2 0x1936 PUSH1 0x0 DUP4 ADD DUP5 PUSH2 0x1912 JUMP JUMPDEST SWAP3 SWAP2 POP POP JUMP JUMPDEST PUSH2 0x1945 DUP2 PUSH2 0x17A4 JUMP JUMPDEST DUP2 EQ PUSH2 0x1950 JUMPI PUSH1 0x0 DUP1 REVERT JUMPDEST POP JUMP JUMPDEST PUSH1 0x0 DUP2 CALLDATALOAD SWAP1 POP PUSH2 0x1962 DUP2 PUSH2 0x193C JUMP JUMPDEST SWAP3 SWAP2 POP POP JUMP JUMPDEST PUSH1 0x0 DUP1 PUSH1 0x40 DUP4 DUP6 SUB SLT ISZERO PUSH2 0x197F JUMPI PUSH2 0x197E PUSH2 0x1682 JUMP JUMPDEST JUMPDEST PUSH1 0x0 PUSH2 0x198D DUP6 DUP3 DUP7 ADD PUSH2 0x169E JUMP JUMPDEST SWAP3 POP POP PUSH1 0x20 PUSH2 0x199E DUP6 DUP3 DUP7 ADD PUSH2 0x1953 JUMP JUMPDEST SWAP2 POP POP SWAP3 POP SWAP3 SWAP1 POP JUMP JUMPDEST PUSH1 0x0 PUSH1 0x40 DUP3 ADD SWAP1 POP PUSH2 0x19BD PUSH1 0x0 DUP4 ADD DUP6 PUSH2 0x1658 JUMP JUMPDEST PUSH2 0x19CA PUSH1 0x20 DUP4 ADD DUP5 PUSH2 0x1658 JUMP JUMPDEST SWAP4 SWAP3 POP POP POP JUMP JUMPDEST PUSH1 0x0 PUSH1 0x20 DUP3 DUP5 SUB SLT ISZERO PUSH2 0x19E7 JUMPI PUSH2 0x19E6 PUSH2 0x1682 JUMP JUMPDEST JUMPDEST PUSH1 0x0 PUSH2 0x19F5 DUP5 DUP3 DUP6 ADD PUSH2 0x1953 JUMP JUMPDEST SWAP2 POP POP SWAP3 SWAP2 POP POP JUMP JUMPDEST PUSH1 0x0 PUSH1 0x20 DUP3 ADD SWAP1 POP PUSH2 0x1A13 PUSH1 0x0 DUP4 ADD DUP5 PUSH2 0x1750 JUMP JUMPDEST SWAP3 SWAP2 POP POP JUMP JUMPDEST PUSH32 0x4E487B7100000000000000000000000000000000000000000000000000000000 PUSH1 0x0 MSTORE PUSH1 0x11 PUSH1 0x4 MSTORE PUSH1 0x24 PUSH1 0x0 REVERT JUMPDEST PUSH1 0x0 PUSH2 0x1A53 DUP3 PUSH2 0x164E JUMP JUMPDEST SWAP2 POP PUSH2 0x1A5E DUP4 PUSH2 0x164E JUMP JUMPDEST SWAP3 POP DUP3 DUP3 ADD SWAP1 POP DUP1 DUP3 GT ISZERO PUSH2 0x1A76 JUMPI PUSH2 0x1A75 PUSH2 0x1A19 JUMP JUMPDEST JUMPDEST SWAP3 SWAP2 POP POP JUMP JUMPDEST PUSH32 0x4E487B7100000000000000000000000000000000000000000000000000000000 PUSH1 0x0 MSTORE PUSH1 0x32 PUSH1 0x4 MSTORE PUSH1 0x24 PUSH1 0x0 REVERT JUMPDEST PUSH1 0x0 DUP3 DUP3 MSTORE PUSH1 0x20 DUP3 ADD SWAP1 POP SWAP3 SWAP2 POP POP JUMP JUMPDEST PUSH32 0x77697468647261773A206E6F7420656E6F756768000000000000000000000000 PUSH1 0x0 DUP3 ADD MSTORE POP JUMP JUMPDEST PUSH1 0x0 PUSH2 0x1AF2 PUSH1 0x14 DUP4 PUSH2 0x1AAB JUMP JUMPDEST SWAP2 POP PUSH2 0x1AFD DUP3 PUSH2 0x1ABC JUMP JUMPDEST PUSH1 0x20 DUP3 ADD SWAP1 POP SWAP2 SWAP1 POP JUMP JUMPDEST PUSH1 0x0 PUSH1 0x20 DUP3 ADD SWAP1 POP DUP2 DUP2 SUB PUSH1 0x0 DUP4 ADD MSTORE PUSH2 0x1B21 DUP2 PUSH2 0x1AE5 JUMP JUMPDEST SWAP1 POP SWAP2 SWAP1 POP JUMP JUMPDEST PUSH1 0x0 PUSH2 0x1B33 DUP3 PUSH2 0x164E JUMP JUMPDEST SWAP2 POP PUSH2 0x1B3E DUP4 PUSH2 0x164E JUMP JUMPDEST SWAP3 POP DUP3 DUP3 MUL PUSH2 0x1B4C DUP2 PUSH2 0x164E JUMP JUMPDEST SWAP2 POP DUP3 DUP3 DIV DUP5 EQ DUP4 ISZERO OR PUSH2 0x1B63 JUMPI PUSH2 0x1B62 PUSH2 0x1A19 JUMP JUMPDEST JUMPDEST POP SWAP3 SWAP2 POP POP JUMP JUMPDEST PUSH32 0x4E487B7100000000000000000000000000000000000000000000000000000000 PUSH1 0x0 MSTORE PUSH1 0x12 PUSH1 0x4 MSTORE PUSH1 0x24 PUSH1 0x0 REVERT JUMPDEST PUSH1 0x0 PUSH2 0x1BA4 DUP3 PUSH2 0x164E JUMP JUMPDEST SWAP2 POP PUSH2 0x1BAF DUP4 PUSH2 0x164E JUMP JUMPDEST SWAP3 POP DUP3 PUSH2 0x1BBF JUMPI PUSH2 0x1BBE PUSH2 0x1B6A JUMP JUMPDEST JUMPDEST DUP3 DUP3 DIV SWAP1 POP SWAP3 SWAP2 POP POP JUMP JUMPDEST PUSH1 0x0 PUSH2 0x1BD5 DUP3 PUSH2 0x164E JUMP JUMPDEST SWAP2 POP PUSH2 0x1BE0 DUP4 PUSH2 0x164E JUMP JUMPDEST SWAP3 POP DUP3 DUP3 SUB SWAP1 POP DUP2 DUP2 GT ISZERO PUSH2 0x1BF8 JUMPI PUSH2 0x1BF7 PUSH2 0x1A19 JUMP JUMPDEST JUMPDEST SWAP3 SWAP2 POP POP JUMP JUMPDEST PUSH1 0x0 PUSH1 0x40 DUP3 ADD SWAP1 POP PUSH2 0x1C13 PUSH1 0x0 DUP4 ADD DUP6 PUSH2 0x1912 JUMP JUMPDEST PUSH2 0x1C20 PUSH1 0x20 DUP4 ADD DUP5 PUSH2 0x1658 JUMP JUMPDEST SWAP4 SWAP3 POP POP POP JUMP JUMPDEST PUSH1 0x0 DUP2 MLOAD SWAP1 POP PUSH2 0x1C36 DUP2 PUSH2 0x1800 JUMP JUMPDEST SWAP3 SWAP2 POP POP JUMP JUMPDEST PUSH1 0x0 PUSH1 0x20 DUP3 DUP5 SUB SLT ISZERO PUSH2 0x1C52 JUMPI PUSH2 0x1C51 PUSH2 0x1682 JUMP JUMPDEST JUMPDEST PUSH1 0x0 PUSH2 0x1C60 DUP5 DUP3 DUP6 ADD PUSH2 0x1C27 JUMP JUMPDEST SWAP2 POP POP SWAP3 SWAP2 POP POP JUMP JUMPDEST PUSH1 0x0 DUP2 MLOAD SWAP1 POP PUSH2 0x1C78 DUP2 PUSH2 0x1687 JUMP JUMPDEST SWAP3 SWAP2 POP POP JUMP JUMPDEST PUSH1 0x0 PUSH1 0x20 DUP3 DUP5 SUB SLT ISZERO PUSH2 0x1C94 JUMPI PUSH2 0x1C93 PUSH2 0x1682 JUMP JUMPDEST JUMPDEST PUSH1 0x0 PUSH2 0x1CA2 DUP5 DUP3 DUP6 ADD PUSH2 0x1C69 JUMP JUMPDEST SWAP2 POP POP SWAP3 SWAP2 POP POP JUMP JUMPDEST PUSH1 0x0 PUSH2 0x1CB6 DUP3 PUSH2 0x164E JUMP JUMPDEST SWAP2 POP PUSH32 0xFFFFFFFFFFFFFFFFFFFFFFFFFFFFFFFFFFFFFFFFFFFFFFFFFFFFFFFFFFFFFFFF DUP3 SUB PUSH2 0x1CE8 JUMPI PUSH2 0x1CE7 PUSH2 0x1A19 JUMP JUMPDEST JUMPDEST PUSH1 0x1 DUP3 ADD SWAP1 POP SWAP2 SWAP1 POP JUMP JUMPDEST PUSH1 0x0 PUSH1 0x60 DUP3 ADD SWAP1 POP PUSH2 0x1D08 PUSH1 0x0 DUP4 ADD DUP7 PUSH2 0x1912 JUMP JUMPDEST PUSH2 0x1D15 PUSH1 0x20 DUP4 ADD DUP6 PUSH2 0x1912 JUMP JUMPDEST PUSH2 0x1D22 PUSH1 0x40 DUP4 ADD DUP5 PUSH2 0x1658 JUMP JUMPDEST SWAP5 SWAP4 POP POP POP POP JUMP JUMPDEST PUSH32 0x4F776E61626C653A206E6577206F776E657220697320746865207A65726F2061 PUSH1 0x0 DUP3 ADD MSTORE PUSH32 0x6464726573730000000000000000000000000000000000000000000000000000 PUSH1 0x20 DUP3 ADD MSTORE POP JUMP JUMPDEST PUSH1 0x0 PUSH2 0x1D86 PUSH1 0x26 DUP4 PUSH2 0x1AAB JUMP JUMPDEST SWAP2 POP PUSH2 0x1D91 DUP3 PUSH2 0x1D2A JUMP JUMPDEST PUSH1 0x40 DUP3 ADD SWAP1 POP SWAP2 SWAP1 POP JUMP JUMPDEST PUSH1 0x0 PUSH1 0x20 DUP3 ADD SWAP1 POP DUP2 DUP2 SUB PUSH1 0x0 DUP4 ADD MSTORE PUSH2 0x1DB5 DUP2 PUSH2 0x1D79 JUMP JUMPDEST SWAP1 POP SWAP2 SWAP1 POP JUMP JUMPDEST PUSH32 0x4F776E61626C653A2063616C6C6572206973206E6F7420746865206F776E6572 PUSH1 0x0 DUP3 ADD MSTORE POP JUMP JUMPDEST PUSH1 0x0 PUSH2 0x1DF2 PUSH1 0x20 DUP4 PUSH2 0x1AAB JUMP JUMPDEST SWAP2 POP PUSH2 0x1DFD DUP3 PUSH2 0x1DBC JUMP JUMPDEST PUSH1 0x20 DUP3 ADD SWAP1 POP SWAP2 SWAP1 POP JUMP JUMPDEST PUSH1 0x0 PUSH1 0x20 DUP3 ADD SWAP1 POP DUP2 DUP2 SUB PUSH1 0x0 DUP4 ADD MSTORE PUSH2 0x1E21 DUP2 PUSH2 0x1DE5 JUMP JUMPDEST SWAP1 POP SWAP2 SWAP1 POP JUMP JUMPDEST PUSH32 0x5361666545524332303A204552433230206F7065726174696F6E20646964206E PUSH1 0x0 DUP3 ADD MSTORE PUSH32 0x6F74207375636365656400000000000000000000000000000000000000000000 PUSH1 0x20 DUP3 ADD MSTORE POP JUMP JUMPDEST PUSH1 0x0 PUSH2 0x1E84 PUSH1 0x2A DUP4 PUSH2 0x1AAB JUMP JUMPDEST SWAP2 POP PUSH2 0x1E8F DUP3 PUSH2 0x1E28 JUMP JUMPDEST PUSH1 0x40 DUP3 ADD SWAP1 POP SWAP2 SWAP1 POP JUMP JUMPDEST PUSH1 0x0 PUSH1 0x20 DUP3 ADD SWAP1 POP DUP2 DUP2 SUB PUSH1 0x0 DUP4 ADD MSTORE PUSH2 0x1EB3 DUP2 PUSH2 0x1E77 JUMP JUMPDEST SWAP1 POP SWAP2 SWAP1 POP JUMP JUMPDEST PUSH32 0x416464726573733A20696E73756666696369656E742062616C616E636520666F PUSH1 0x0 DUP3 ADD MSTORE PUSH32 0x722063616C6C0000000000000000000000000000000000000000000000000000 PUSH1 0x20 DUP3 ADD MSTORE POP JUMP JUMPDEST PUSH1 0x0 PUSH2 0x1F16 PUSH1 0x26 DUP4 PUSH2 0x1AAB JUMP JUMPDEST SWAP2 POP PUSH2 0x1F21 DUP3 PUSH2 0x1EBA JUMP JUMPDEST PUSH1 0x40 DUP3 ADD SWAP1 POP SWAP2 SWAP1 POP JUMP JUMPDEST PUSH1 0x0 PUSH1 0x20 DUP3 ADD SWAP1 POP DUP2 DUP2 SUB PUSH1 0x0 DUP4 ADD MSTORE PUSH2 0x1F45 DUP2 PUSH2 0x1F09 JUMP JUMPDEST SWAP1 POP SWAP2 SWAP1 POP JUMP JUMPDEST PUSH1 0x0 DUP2 MLOAD SWAP1 POP SWAP2 SWAP1 POP JUMP JUMPDEST PUSH1 0x0 DUP2 SWAP1 POP SWAP3 SWAP2 POP POP JUMP JUMPDEST PUSH1 0x0 JUMPDEST DUP4 DUP2 LT ISZERO PUSH2 0x1F80 JUMPI DUP1 DUP3 ADD MLOAD DUP2 DUP5 ADD MSTORE PUSH1 0x20 DUP2 ADD SWAP1 POP PUSH2 0x1F65 JUMP JUMPDEST PUSH1 0x0 DUP5 DUP5 ADD MSTORE POP POP POP POP JUMP JUMPDEST PUSH1 0x0 PUSH2 0x1F97 DUP3 PUSH2 0x1F4C JUMP JUMPDEST PUSH2 0x1FA1 DUP2 DUP6 PUSH2 0x1F57 JUMP JUMPDEST SWAP4 POP PUSH2 0x1FB1 DUP2 DUP6 PUSH1 0x20 DUP7 ADD PUSH2 0x1F62 JUMP JUMPDEST DUP1 DUP5 ADD SWAP2 POP POP SWAP3 SWAP2 POP POP JUMP JUMPDEST PUSH1 0x0 PUSH2 0x1FC9 DUP3 DUP5 PUSH2 0x1F8C JUMP JUMPDEST SWAP2 POP DUP2 SWAP1 POP SWAP3 SWAP2 POP POP JUMP JUMPDEST PUSH32 0x416464726573733A2063616C6C20746F206E6F6E2D636F6E7472616374000000 PUSH1 0x0 DUP3 ADD MSTORE POP JUMP JUMPDEST PUSH1 0x0 PUSH2 0x200A PUSH1 0x1D DUP4 PUSH2 0x1AAB JUMP JUMPDEST SWAP2 POP PUSH2 0x2015 DUP3 PUSH2 0x1FD4 JUMP JUMPDEST PUSH1 0x20 DUP3 ADD SWAP1 POP SWAP2 SWAP1 POP JUMP JUMPDEST PUSH1 0x0 PUSH1 0x20 DUP3 ADD SWAP1 POP DUP2 DUP2 SUB PUSH1 0x0 DUP4 ADD MSTORE PUSH2 0x2039 DUP2 PUSH2 0x1FFD JUMP JUMPDEST SWAP1 POP SWAP2 SWAP1 POP JUMP JUMPDEST PUSH1 0x0 DUP2 MLOAD SWAP1 POP SWAP2 SWAP1 POP JUMP JUMPDEST PUSH1 0x0 PUSH1 0x1F NOT PUSH1 0x1F DUP4 ADD AND SWAP1 POP SWAP2 SWAP1 POP JUMP JUMPDEST PUSH1 0x0 PUSH2 0x2067 DUP3 PUSH2 0x2040 JUMP JUMPDEST PUSH2 0x2071 DUP2 DUP6 PUSH2 0x1AAB JUMP JUMPDEST SWAP4 POP PUSH2 0x2081 DUP2 DUP6 PUSH1 0x20 DUP7 ADD PUSH2 0x1F62 JUMP JUMPDEST PUSH2 0x208A DUP2 PUSH2 0x204B JUMP JUMPDEST DUP5 ADD SWAP2 POP POP SWAP3 SWAP2 POP POP JUMP JUMPDEST PUSH1 0x0 PUSH1 0x20 DUP3 ADD SWAP1 POP DUP2 DUP2 SUB PUSH1 0x0 DUP4 ADD MSTORE PUSH2 0x20AF DUP2 DUP5 PUSH2 0x205C JUMP JUMPDEST SWAP1 POP SWAP3 SWAP2 POP POP JUMP INVALID LOG2 PUSH5 0x6970667358 0x22 SLT KECCAK256 LT MSTORE8 EXTCODEHASH PUSH2 0x95A6 0xE8 CALLVALUE SWAP3 0xBD ADDRESS DUP16 0xDD PUSH7 0x53A0071D527761 CREATE2 PUSH13 0x3EE3B8FF7641F940E64736F6C PUSH4 0x43000813 STOP CALLER "
				},
				"gasEstimates": {
					"creation": {
						"codeDepositCost": "1685800",
						"executionCost": "infinite",
						"totalCost": "infinite"
					},
					"external": {
						"add(uint256,address,bool)": "infinite",
						"bonusEndBlock()": "2519",
						"deposit(uint256,uint256)": "infinite",
						"emergencyWithdraw(uint256)": "infinite",
						"getMultiplier(uint256,uint256)": "infinite",
						"massUpdatePools()": "infinite",
						"owner()": "2633",
						"pendingReward(uint256,address)": "infinite",
						"poolInfo(uint256)": "infinite",
						"poolLength()": "2469",
						"renounceOwnership()": "30443",
						"rewardPerBlock()": "2518",
						"rewardToken()": "infinite",
						"set(uint256,uint256,bool)": "infinite",
						"startBlock()": "2474",
						"stopReward()": "24588",
						"totalAllocPoint()": "2497",
						"transferOwnership(address)": "30854",
						"updatePool(uint256)": "infinite",
						"userInfo(uint256,address)": "infinite",
						"withdraw(uint256,uint256)": "infinite"
					}
				},
				"methodIdentifiers": {
					"add(uint256,address,bool)": "1eaaa045",
					"bonusEndBlock()": "1aed6553",
					"deposit(uint256,uint256)": "e2bbb158",
					"emergencyWithdraw(uint256)": "5312ea8e",
					"getMultiplier(uint256,uint256)": "8dbb1e3a",
					"massUpdatePools()": "630b5ba1",
					"owner()": "8da5cb5b",
					"pendingReward(uint256,address)": "98969e82",
					"poolInfo(uint256)": "1526fe27",
					"poolLength()": "081e3eda",
					"renounceOwnership()": "715018a6",
					"rewardPerBlock()": "8ae39cac",
					"rewardToken()": "f7c618c1",
					"set(uint256,uint256,bool)": "64482f79",
					"startBlock()": "48cd4cb1",
					"stopReward()": "80dc0672",
					"totalAllocPoint()": "17caf6f1",
					"transferOwnership(address)": "f2fde38b",
					"updatePool(uint256)": "51eb05a6",
					"userInfo(uint256,address)": "93f1a40b",
					"withdraw(uint256,uint256)": "441a3e70"
				}
			},
			"storageLayout": {
				"storage": [
					{
						"astId": 7,
						"contract": "contracts/MasterChef.sol:MasterChef",
						"label": "_owner",
						"offset": 0,
						"slot": "0",
						"type": "t_address"
					},
					{
						"astId": 1204,
						"contract": "contracts/MasterChef.sol:MasterChef",
						"label": "rewardToken",
						"offset": 0,
						"slot": "1",
						"type": "t_contract(IERC20)190"
					},
					{
						"astId": 1206,
						"contract": "contracts/MasterChef.sol:MasterChef",
						"label": "rewardPerBlock",
						"offset": 0,
						"slot": "2",
						"type": "t_uint256"
					},
					{
						"astId": 1209,
						"contract": "contracts/MasterChef.sol:MasterChef",
						"label": "totalAllocPoint",
						"offset": 0,
						"slot": "3",
						"type": "t_uint256"
					},
					{
						"astId": 1211,
						"contract": "contracts/MasterChef.sol:MasterChef",
						"label": "startBlock",
						"offset": 0,
						"slot": "4",
						"type": "t_uint256"
					},
					{
						"astId": 1213,
						"contract": "contracts/MasterChef.sol:MasterChef",
						"label": "bonusEndBlock",
						"offset": 0,
						"slot": "5",
						"type": "t_uint256"
					},
					{
						"astId": 1217,
						"contract": "contracts/MasterChef.sol:MasterChef",
						"label": "poolInfo",
						"offset": 0,
						"slot": "6",
						"type": "t_array(t_struct(PoolInfo)1201_storage)dyn_storage"
					},
					{
						"astId": 1224,
						"contract": "contracts/MasterChef.sol:MasterChef",
						"label": "userInfo",
						"offset": 0,
						"slot": "7",
						"type": "t_mapping(t_uint256,t_mapping(t_address,t_struct(UserInfo)1191_storage))"
					}
				],
				"types": {
					"t_address": {
						"encoding": "inplace",
						"label": "address",
						"numberOfBytes": "20"
					},
					"t_array(t_struct(PoolInfo)1201_storage)dyn_storage": {
						"base": "t_struct(PoolInfo)1201_storage",
						"encoding": "dynamic_array",
						"label": "struct MasterChef.PoolInfo[]",
						"numberOfBytes": "32"
					},
					"t_contract(IERC20)190": {
						"encoding": "inplace",
						"label": "contract IERC20",
						"numberOfBytes": "20"
					},
					"t_mapping(t_address,t_struct(UserInfo)1191_storage)": {
						"encoding": "mapping",
						"key": "t_address",
						"label": "mapping(address => struct MasterChef.UserInfo)",
						"numberOfBytes": "32",
						"value": "t_struct(UserInfo)1191_storage"
					},
					"t_mapping(t_uint256,t_mapping(t_address,t_struct(UserInfo)1191_storage))": {
						"encoding": "mapping",
						"key": "t_uint256",
						"label": "mapping(uint256 => mapping(address => struct MasterChef.UserInfo))",
						"numberOfBytes": "32",
						"value": "t_mapping(t_address,t_struct(UserInfo)1191_storage)"
					},
					"t_struct(PoolInfo)1201_storage": {
						"encoding": "inplace",
						"label": "struct MasterChef.PoolInfo",
						"members": [
							{
								"astId": 1194,
								"contract": "contracts/MasterChef.sol:MasterChef",
								"label": "lpToken",
								"offset": 0,
								"slot": "0",
								"type": "t_contract(IERC20)190"
							},
							{
								"astId": 1196,
								"contract": "contracts/MasterChef.sol:MasterChef",
								"label": "allocPoint",
								"offset": 0,
								"slot": "1",
								"type": "t_uint256"
							},
							{
								"astId": 1198,
								"contract": "contracts/MasterChef.sol:MasterChef",
								"label": "lastRewardBlock",
								"offset": 0,
								"slot": "2",
								"type": "t_uint256"
							},
							{
								"astId": 1200,
								"contract": "contracts/MasterChef.sol:MasterChef",
								"label": "accRewardPerShare",
								"offset": 0,
								"slot": "3",
								"type": "t_uint256"
							}
						],
						"numberOfBytes": "128"
					},
					"t_struct(UserInfo)1191_storage": {
						"encoding": "inplace",
						"label": "struct MasterChef.UserInfo",
						"members": [
							{
								"astId": 1188,
								"contract": "contracts/MasterChef.sol:MasterChef",
								"label": "amount",
								"offset": 0,
								"slot": "0",
								"type": "t_uint256"
							},
							{
								"astId": 1190,
								"contract": "contracts/MasterChef.sol:MasterChef",
								"label": "rewardDebt",
								"offset": 0,
								"slot": "1",
								"type": "t_uint256"
							}
						],
						"numberOfBytes": "64"
					},
					"t_uint256": {
						"encoding": "inplace",
						"label": "uint256",
						"numberOfBytes": "32"
					}
				}
			},
			"userdoc": {
				"kind": "user",
				"methods": {},
				"version": 1
			}
		}
	}
}